:020000040000FA
:10000000B00E0020510100005F01000061010000FE
:1000100000000000000000000000000000000000E0
:10002000000000000000000000000000E30C0000E1
:1000300000000000000000000F010000690D00003A
:100040003511000055110000571100005911000032
:100050001B0400001D040000B90900001F0400007B
:10006000E90F00004D060000E10C0000FF02000057
:1000700069010000ED0B00000D1000000B030000F3
:10008000690100006901000091030000690100009E
:1000900069010000000000000000000000000000F6
:1000A0000000000000000000000000000000000050
:1000B0000000000000000000000000000000000040
:1000C0000448854600F0E8F8004800477317000030
:1000D000C046C046B00E0020084B196808682030A2
:1000E00080F30988022080F31488BFF36F8F3FBC30
:1000F000AE4608BC04BC62B61847000044000020AD
:10010000EFF3108072B6704780F310887047EFF3FA
:1001100009800E4B1A6820381060F0C044464D46E6
:1001200056465F46F0C008B572B602F0B3FA62B642
:100130000CBC116808681030F0C8A046A946B24649
:10014000BB4680F309882038F0C8184744000020D7
:10015000064880F308880648804706480047FEE7BF
:10016000FEE7FEE7FEE7FEE7FEE70000B00E002038
:10017000790D0000C100000030B50B46014600209B
:100180002022012409E00D46D5409D4205D31D469D
:100190009540491B2546954040191546521E002D95
:1001A000F1DC30BDF8B500242546002904DA0E46FE
:1001B000012400214042B141002B04DA1E460023F5
:1001C00052420125B34100F037F88C4617461E46CF
:1001D000AC4203D0002540428D41AC46002C02D0F9
:1001E000002657429E4161463A46334601B0F0BD73
:1001F00003460B439B0703D009E008C9121F08C040
:10020000042AFAD203E00B780370401C491C521EEA
:10021000F9D27047D2B201E00270401C491EFBD2F5
:1002200070470022F6E710B513460A460446194601
:10023000FFF7F0FF204610BDF0B51FB406460020C2
:1002400082B005464024019100901BE001992246AE
:100250000F46304600F042F8049A059B801A9941F7
:1002600010D310461946224600F028F8361A8F415E
:100270000197224601200021009F00F01FF8381846
:100280004D4100902046641E0028DFDC019B009851
:100290002946324607B0F0BD064C0125064E05E062
:1002A000E36807CC2B430C3C98471034B442F7D397
:1002B000FFF70AFF0C3300002C33000010B5202A92
:1002C00004DB0146203A9140002010BD91402023DC
:1002D0009C1A0346E3401943904010BD10B5202AF4
:1002E00004DB0846203AD040002110BD0B46D34025
:1002F000D0402024A21A91400843194610BD7047EF
:1003000002E0642002F008F9FBE7704710B50246EE
:100310000023002A00D110BD00290BDD00BF10789A
:10032000C018C3B2521C08464C1EE1B20028F6D1D8
:100330001846F0E7FF20EEE700B5094809490863D1
:10034000C805406BC9130843C9034863642000F023
:10035000E1FC0548034908600020086300BD000077
:10036000837A000080000040FF010000002904D0D3
:10037000026801231A43026003E002685208520037
:1003800002607047014A51607047000040300140F0
:1003900010B50848406804210840002808D00548E6
:1003A0002038FFF7EFFF012102482038FFF7DEFF7A
:1003B00010BD000040300140002202600A898B7AA3
:1003C0001B041A434260CA6882600A69C2600A78E4
:1003D00052004B781B011A438B785B011A43CB7890
:1003E0009B011A430B79DB011A434B791B021A4319
:1003F0008B799B021A43CB791B031A4302600122BB
:10040000014B1A60704700004030014010B50446AF
:1004100014212046FFF705FF10BD70477047704755
:10042000F0B50B46002200240025002100BF57E054
:100430000126964034461E6826403546A5424ED1D8
:100440001E79002E0CD101680126964031430160CF
:100450004168012696400F46B743394641601FE088
:100460001E79012E0BD1016896400F46B7433946DD
:1004700001604168012696403143416010E01E79D9
:10048000022E0DD10168012696400F46B74339462A
:1004900001604168012696400F46B74339464160E6
:1004A0005E79012E04D1016996403143016109E072
:1004B0005E79002E06D10169012696400F46B743AA
:1004C0003946016181699E68012E02D1964031430F
:1004D00004E0012696400F46B74339468161521C1D
:1004E000102AA5D3F0BD000030B50C46230000F063
:1004F00093FE10090F171E252B333A41474F565DC7
:10050000636B7279016A394D29408B1803626AE086
:10051000016A364DE13D294013015B18036262E038
:10052000016A334D294013025B1803625BE0036AE2
:100530001905090D13035B18036254E0416A2B4D42
:1005400029408B1843624EE0416A284DE13D294025
:1005500013015B18436246E0416A254D29401302AE
:100560005B1843623FE0436A1905090D13035B18EA
:10057000436238E0816A1D4D29408B18836232E066
:10058000816A1A4DE13D294013015B1883622AE01C
:10059000816A174D294013025B18836223E0836A46
:1005A0001905090D13035B1883621CE0C16A0F4D26
:1005B00029408B18C36216E0C16A0C4DE13D294009
:1005C00013015B18C3620EE0C16A094D2940130292
:1005D0005B18C36207E0C36A1905090D13035B18B2
:1005E000C36200E000BF00BF30BD0000F0FF0000AC
:1005F000FFF0000002460020D3680B40002B01D022
:10060000012000E00020704730B504460D4600226E
:100610002946204600F010F830BD30B504460D469E
:1006200001222946204600F007F830BD0021016074
:100630000171417181607047002A03D0C3680B4388
:10064000C36002E0C3688B43C3607047704700001B
:100650000EB56846FFF7EAFF0021684601710120E8
:10066000C00300906846417169461748FFF7D8FEFD
:100670006846FFF7DBFF0121684601710120009009
:1006800000216846417169460F484030FFF7C8FEB7
:1006900004220F210C48FFF727FF042200210A48FB
:1006A0004030FFF721FF6846FFF7C0FF0121684691
:1006B0000171082000900021684641716946024896
:1006C0004030FFF7ADFE0EBD0020014010B5FFF732
:1006D000BFFF00F093F80A210448FFF7A2FD0320B2
:1006E00002490872487200F039FD10BD1C0100205B
:1006F00010B504463C48007A801E030000F08CFDD3
:100700000B6A07131F2B376E444A515E6E00207828
:10071000AA2804D1344908700420487202E002205B
:10072000314948725EE02078122804D12E49487081
:100730000520487202E002202B49487252E02078DE
:10074000082804D1284988700620487202E0022057
:100750002549487246E02078102804D12249C87003
:100760000720487202E002201F4948723AE02078D0
:10077000022805D120781C4908710720487202E040
:100780000220194948722DE02078174948710A2043
:10079000487227E02178144881710B201249487271
:1007A00020E007211048FFF7B1FD2178884204D1ED
:1007B00020780D49C8710320487213E02078AA28D8
:1007C00004D1094908700420487202E00220064959
:1007D000487207E003200449487203E003200249FD
:1007E000487200BF00BF10BD1C0100200248407AC3
:1007F00001490872704700001C0100201FB56846BF
:1008000000F088FCE1204002009000216846017160
:1008100041718171C171432101736946014800F042
:10082000F7FB1FBD0028014010B50446601E1249A9
:10083000884201D9012010BD601E104948610F2176
:100840000020C04300F006FD00200C4988610846E6
:1008500000690421884309490861084600690221AA
:100860000843064908610846006901210843034915
:1008700008610020DFE70000FFFFFF0000E000E06C
:1008800000B585B06846FFF7C1FD012168460170DB
:10089000002141708170C1700121017100214171FD
:1008A00081710121C17101810A2181720648039081
:1008B0000648049069460648FFF77EFD012104487A
:1008C000FFF754FD05B000BD0C2C01409C0000203A
:1008D000303001400EB50021684601718020009043
:1008E0006846417169460D48FFF79AFD0121684647
:1008F0000171402000900021684641716946074817
:10090000FFF78EFD042207210448FFF7EDFD0422C6
:1009100006210248FFF7E8FD0EBD0000002001405F
:100920001FB5FFF7D7FF684600F0F4FBE120400257
:10093000009000216846017141718171C1714121AE
:1009400001736946024800F063FBFFF799FF1FBD82
:10095000002C014010B572B61348144908631448BE
:100960000068C91208431249086000F0DFF9FFF778
:10097000D7FFFFF7ABFE642000F0CCF9012108207F
:1009800000F068FC082000F055FC0021084600F04B
:1009900061FC002000F04EFC00200449086305487B
:1009A000FFF742FF62B610BD837A0000800000406E
:1009B00000040040E02E0000704770B504460D466C
:1009C00029462046FFF716FE0646002E05D029468A
:1009D0002046FFF719FE002070BD29462046FFF78C
:1009E0001CFE0120F8E700001CB53348002301225B
:1009F0007D21C900009031A002F006FC3249086058
:100A000008460068002803D130A000F0F5FB1CE088
:100A100036A000F0F1FB02F091F90446FF20F5301A
:100A200000232246012100902748006802F02AFC9A
:100A30003649086008460068002803D134A000F059
:100A4000DBFB02E039A000F0D7FB01F095FC3F484A
:100A5000042100234022009101903DA1404802F072
:100A600029F94049086008460068012803D13EA0E2
:100A700000F0C2FB02E043A000F0BEFB00203949B9
:100A8000086047480321002340220091019045A1BE
:100A9000474802F00FF9334908600846006801280A
:100AA00003D144A000F0A8FB02E049A000F0A4FBA1
:100AB00001F070FC1CBD0000550D00005379734C13
:100AC000454454696D657200080000207379734CC9
:100AD000454454696D6572204372656174652046B2
:100AE00061696C6564210D0A000000007379734C24
:100AF000454454696D657220437265617465205385
:100B0000756363656564210D0A0000000C00002018
:100B10007379734C454454696D65722053746172E6
:100B200074204661696C6564210D0A007379734C09
:100B3000454454696D657220537461727420537515
:100B40006363656564210D0A000000000000002059
:100B500052533438355461736B46756E6300000030
:100B6000F10B0000100000205253343835546173EB
:100B70006B204372656174652053756363656564BA
:100B8000210D0A0052533438355461736B2043727F
:100B900065617465204661696C6564210D0A000019
:100BA0000400002043414E5461736B46756E630030
:100BB0000103000043414E5461736B204372656131
:100BC00074652053756363656564210D0A00000038
:100BD00043414E5461736B204372656174652046D6
:100BE00061696C6564210D0A000000007047000017
:100BF00023E012480078AA2804D008210F48FFF704
:100C000010FB17E00D480078AA2813D10CA000F0C3
:100C1000F3FA002405E00948015D0DA000F0ECFAAC
:100C2000641C082CF7DB0CA000F0E6FA082103484E
:100C3000FFF7F7FA0A2001F06FFCDAE7180000204E
:100C400052533438352052784461746120000000DA
:100C500025303258200000000D0A000010B500F0C9
:100C600095FA10BDF3B583B007461C48019000BF4C
:100C700001980078002801D100F088FA00BFEFF356
:100C80001080012181F3108800BF00BF1821794333
:100C9000124A18328C18E1684D1CA168A94200D193
:100CA00000256169022903D100BF2169A942FCD056
:100CB0002169A94209D0E268616889180291049A01
:100CC00002990A70E560012600E00026C1B281F3B6
:100CD000108800BF00BF304605B0F0BD740A002088
:100CE00070477047094A0A4B1A63002904D01A4614
:100CF000D2690243DA6104E0054AD2698243044BB7
:100D0000DA610022024B1A6370470000837A000008
:100D10008000004008B50021009103E000BF009969
:100D2000491C009100998142F8D308BD0EB5684670
:100D3000FFF77CFC01216846017101200090002131
:100D40006846417169460248FFF76AFB0EBD000024
:100D50000020014010B5044601210248FFF72DFE96
:100D600010BD00000020014010B501F0D5FF0128A2
:100D700001D001F0EBFC10BD00B5FFF7DDFA00BDBE
:100D8000002932D0324A904208D1314AC032126B27
:100D900010231A432E4BC0331A6358E02C4A2032DA
:100DA000904208D12A4AC032126B20231A43284BA2
:100DB000C0331A634BE0264A4032904208D1244A9D
:100DC000C032126B40231A43214BC0331A633EE0FA
:100DD0001F4A603290423AD11D4AC032126B8023C2
:100DE0001A431B4BC0331A6331E0194A904208D1B1
:100DF000174AC032126B10239A43154BC0331A6343
:100E000025E0134A2032904208D1114AC032126BB9
:100E100020239A430E4BC0331A6318E00C4A403229
:100E2000904208D10A4AC032126B40239A43084BC1
:100E3000C0331A630BE0064A6032904207D1044A7D
:100E4000C032126B80239A43014BC0331A63704740
:100E500000180140F0B585B006460C46012104207B
:100E6000FFF740FF2168890060680843A168C90056
:100E70000843216909010843E16889010843616960
:100E8000C9010843E16A090208433060A069706043
:100E9000E069F060206A30614848006B0390474881
:100EA000476BA08C0007000F0190208D0007000FFA
:100EB00000904248C03886421AD110210398084356
:100EC0000390072002903946029881430F46206B19
:100ED00007433A484038056AFF2000020540019860
:100EE00005430098000105433448403805625EE040
:100EF0003248A03886421AD1202103980843039033
:100F0000382002903946029881430F46206BC0007A
:100F100007432A484038056AEDB2019800020543AC
:100F20000098000305432548403805623FE0234808
:100F3000803886421CD14021039808430390FF204B
:100F4000C13002903946029881430F46206B8001E0
:100F500007431A484038456AFF20000205400198BF
:100F600005430098000105431448403845621EE0DF
:100F70001248603886421AD18021039808430390B2
:100F80000720400202903946029881430F46206BA9
:100F90004002074309484038456AEDB20198000213
:100FA000054300980003054304484038456203495F
:100FB000039808630846476305B0F0BDC0180140B8
:100FC00000214160016081600161C16041617D215A
:100FD000C90081614910C1610162002141628162E1
:100FE000C16201637047000010B50748C069022163
:100FF0000840002806D002200349C86102480C308E
:10100000FFF776FB10BD000000280140704700008C
:10101000F0B587B005460C463948854204D1012118
:101020001020FFF75FFE06E03648854203D101211C
:101030002020FFF757FE002720680246002301907A
:1010400031481946FFF7AEF803910290781C02462A
:10105000002301900298FFF7A5F8064612E07F1CD6
:10106000206802460023019027481946FFF79AF8A6
:1010700003910290781C0246002301900298FFF72A
:1010800091F8064621488642E9D821488761761EB4
:10109000F0B2A860FF2000023040000A6860E079EA
:1010A000012803D104900020059009E0E07902288E
:1010B00003D101200490059002E0002004900590E7
:1010C0002079617949000843A1798900084305998D
:1010D000C9000843049909010843217A49010843DA
:1010E000617A890108432860607B4000A17B084346
:1010F000286260892861207BA86107B0F0BD0000EC
:1011000000280140002C014000D8B805FFFF000076
:10111000800000404B21C901016000210171417133
:101120008171C17101724172418101734173817397
:101130007047000010B50648806B02210840002867
:1011400004D0022002498863FFF750FB10BD000065
:10115000C0180140704770477047000000B58DB05F
:101160006846FFF72DFFC820069000200B90012055
:101170000C9069460448FFF76DFE01210248FFF715
:10118000FFFD0DB000BD00000018014070B5134C0C
:10119000A8212046FFF745F803202061606110A0D8
:1011A000A0611249E161802121620021A162616296
:1011B000E1620BA020660E4961661021A166002144
:1011C0002167E1666167002505E00F20401B0949A2
:1011D000085C60556D1C102DF7D370BD740A00209B
:1011E0005465726D696E616C000000001C0B00207C
:1011F0009C0B0020F83200000FB410B503A9044B7B
:10120000044A029800F072F810BC08BC04B01847F9
:10121000611700009800002030B47446641E2578E1
:10122000641CAB4204D3635D5B00E31830BC184719
:101230001D46F8E7002809DB00BF00BFC206D20E3A
:1012400001219140024A116000BF00BF70470000B9
:1012500000E100E010B5002819DB1A4A03231B0245
:10126000D21883089B00D2588307DC0EFF23A340CB
:101270009A430B071B0E8407E40EA3401A43114B3D
:10128000032424021B198408A4001A5118E00E4AF2
:1012900003071B0F083B9B089B00D2588307DC0EFB
:1012A000FF23A3409A430B071B0E8407E40EA340C1
:1012B0001A43054B0407240F083CA408A4001A5144
:1012C00010BD000000E100E01CED00E002E008C8F5
:1012D000121F08C1002AFAD170477047002001E0B0
:1012E00001C1121F002AFBD170470000FFB591B069
:1012F0000F460546002606E025280AD0149A1399C1
:1013000090476D1C761C28780028F5D1304615B022
:10131000F0BD002400940121F34A029400E004434C
:101320006D1C2B780846203B98401042F7D1287856
:101330002A280ED00222287801463039092915D8EA
:1013400000990A2359433039401814436D1C00900A
:10135000F1E701CF0090002805DA012040030443A3
:10136000009840420090022004436D1C28782E28EB
:1013700015D10420044368786D1C2A280AD101CFB6
:101380006D1C02900BE002990A225143303940183B
:101390006D1C02902878014630390929F3D9287844
:1013A0006C2810D006DC4C281AD068280ED06A2889
:1013B00017D104E0742813D07A2812D110E001204C
:1013C000400504430CE00121090501E00321090562
:1013D0000C436978814203D10120000524186D1C5B
:1013E0006D1C28786E281ED00CDC632831D004DCFC
:1013F00000288BD0582811D1B2E064287BD069280E
:101400000CD178E073282DD004DC6F2870D07028C0
:1014100004D1A7E075286CD078286BD0149A139962
:101420009047761C62E06002400F022807D0032834
:101430000AD0042838680AD006603F1D56E0386894
:10144000F11706604160F8E738680680F5E7067036
:10145000F3E73878694608740020487404A80390BC
:10146000012003E0386803900020C0433F1D61075E
:101470000FD5002101E00199491C029A0191914286
:1014800013DA8142F7DB019A0399895C0029F2D1D2
:101490000BE0002101E00199491C01918142FADB36
:1014A000019A0399895C0029F5D101990098139A52
:1014B000401A00902146149B00F03CF901998019D4
:1014C000461807E0039803990078491C0391149A81
:1014D000139990470198401E0190401CF2D121467B
:1014E000149B139A009800F015F986196D1C0AE7F1
:1014F00041E033E034E00A200021049005916002CD
:10150000410F022905D001CFC2179446032905D007
:1015100007E0FF1DFF08FF0003CF06E000B2C2177F
:101520009446042902D140B2C1178C46002261467C
:10153000944506DA0A460021404291418C462D210D
:1015400002E0210504D52B216A461176012103E032
:10155000E10701D02021F7E7019155E00A200BE0D7
:10156000102009E0102004900021042004430820EA
:101570000591029003E0082000210591049060028B
:10158000410F022905D001CF00229446032906D03D
:1015900006E0FF1DFF08FF0003CF8C4603E080B28A
:1015A000042900D1C0B20021019121072CD529784E
:1015B0000391702906D0049A1021059B4A401A43D2
:1015C00005D00EE040216A461176012108E061460F
:1015D000014306D030216A461176039951760221E3
:1015E0000191049A0821059B4A401A430CD1614697
:1015F000014301D1610707D530216A4611760121E7
:1016000001910299491E02912978582904D037A1E5
:1016100003910FA90F910DE039A1F9E76146059BF0
:10162000049AFEF709FE039B8C469B5C0F9A521EA0
:101630000F92137061460143F0D10F9807A9081A61
:1016400020300390600704D50120000484430298F1
:1016500001E0012002900399884201DD401A00E078
:10166000002041180290019809180098401A009033
:10167000E00306D42146149B139A009800F05AF810
:1016800086190020049008E006A9085C149A1399B2
:1016900090470498401C761C049001998842F3DB23
:1016A000E0030CD52146149B139A009800F042F8F1
:1016B000861904E0149A302013999047761C0299F9
:1016C000481E02900029F5DC08E00F980F99007879
:1016D000491C0F91149A13999047761C0399481E40
:1016E00003900029F1DCFAE6092801003031323399
:1016F000343536373839616263646566000000004E
:101700003031323334353637383941424344454637
:1017100000000000F8B5044600251E461746880460
:1017200004D405E039462020B0476D1C641EF9D56D
:101730002846F8BDFFB50446002581B01E46C80303
:1017400001D5302700E02027880404D505E038467D
:101750000399B0476D1C641EF9D5284605B0F0BD4D
:1017600070B504460D46E1B20020FFF77BFA204633
:1017700070BDFFF773FAFFF7EDF8FFF735F900F0EA
:1017800041FF00BFFEE70000F8B505460E462148C0
:10179000076821480068001D00F0A8FD681C0028AB
:1017A0001CD1002E1AD01D4948681B490968886061
:1017B000194982680968CA6017490968091D826861
:1017C000516015490968091D8160144A1249096868
:1017D0004A6111460968491C11601AE07C190E48DB
:1017E00000684460BC4207D20B480168091D0C48E0
:1017F000006800F0A5FD0CE007480168091D0948D4
:10180000006800F09DFD08480068844201D2064847
:101810000460F8BD5800002044000020380A002071
:101820004C000020480000207400002010B5044641
:1018300000F0A2FD2B480068401C2A4908602A4895
:101840000068002808D1284804600846006801287C
:101850000ED100F0F5F90BE024480068002807D10C
:1018600021480068C06AE16A884201D81E480460C5
:101870001F480068401C1E4908601E49E06A09684C
:10188000884202D91B49E06A08601422E16A514388
:10189000194A89184868A0608268E260211D826840
:1018A000516081601422E16A5143134A8A186261CF
:1018B0001422E16A5143104A5158491C1423E26A28
:1018C0005A430D4B995000F065FD08480068002808
:1018D00007D005480068C06AE16A884201D200F07A
:1018E000BFFD10BD54000020440000206000002017
:1018F000700000205C0000208409002010B500F07A
:101900003BFD1148006800281BD1104800F008FD7D
:101910000F4800F005FD0D480E4908600C480E49BF
:10192000086000220C21012000F022FF0649086017
:1019300008460068002804D008A10348006800F0A9
:101940009BFD00F027FD10BD8C0000204C0A0020FC
:10195000600A00208400002088000020546D72512D
:101960000000000010B516E000F006FD0C48C0684D
:10197000C468201D00F0BAFC0A480068401E0949EE
:10198000086009480068401E0749086000F002FD31
:10199000204600F061F8044800680028E4D110BD3A
:1019A000240A0020540000205000002070B5044696
:1019B0000D46206C00280ED0216CE0684118E160D3
:1019C000A168E068884201D32168E1602846226C62
:1019D000E168FEF70DFC70BDF8B504460F461546EC
:1019E00000200090A66B206C002809D120680028F8
:1019F0002ED1A06801F07CFA00900020A06027E0C2
:101A0000002D0FD13946226C6068FEF7F1FB216C86
:101A1000606840186060A1686068884218D32068D8
:101A2000606015E03946226CE068FEF7E1FB216C4E
:101A3000E068411AE1602168E068884203D2216CC5
:101A4000A068411AE160022D02D1002E00D0761E5E
:101A5000701CA0630098F8BD10B50446206B00F020
:101A6000ADFC204600F0AAFC10BD00000146094A6A
:101A700012681268002A01D1012200E000220A60E7
:101A80000A68002A04D1034A1268D268106800E08C
:101A9000002070478400002030B50123DB02154888
:101AA0004407640F002C05D0C01DC008C000114CB5
:101AB000041B1B1B0246104C226000240E4D6C6060
:101AC000D0180838C008C0000C4C206000240B4D12
:101AD0002D686C60094D2D682C601146441A4C60CD
:101AE000064C24680C60064D4C682C60054D4C6813
:101AF0002C6030BD44010020240000202C00002078
:101B0000340000203000002000BFFFF72BFF034807
:101B100000680128F9D900F0A3FCF6E78409002049
:101B2000F8B506460D461746069C002D01D12460E7
:101B300000E02760E66325640121204600F049FEAD
:101B40000020A064F8BDFFB581B00F460A9E0C9C32
:101B5000216B0398401E8000081800900098C00870
:101B6000C000009000984007400F002801D10120DC
:101B700000E00020002802D172B600BFFEE7002F6F
:101B800010D0002508E0795D204634304155785D5D
:101B9000002800D102E06D1C402DF4D300BF0021CD
:101BA00073200155052E01D2012000E000200028FD
:101BB00002D172B600BFFEE7052E00D30426E6620E
:101BC0006667201D00F0B9FB2046183000F0B5FB19
:101BD00024610520801BA0616462049A0199009829
:101BE00000F074FB20600B98002801D00B98046073
:101BF00005B0F0BDFFB581B006460D4617460B9CFB
:101C0000002D01D0012000E00020002802D172B692
:101C100000BFFEE7FFF772FE2660A5610498E06151
:101C20000A982062201D00F088FB002F05D0242098
:101C3000005D042108432421085505B0F0BD0000D3
:101C400010B5002406E0142161430E4A881800F004
:101C500067FB641C052CF6D30B4800F061FB0B48B6
:101C600000F05EFB0A4800F05BFB0A4800F058FBFE
:101C7000094800F055FB0448084908600348084932
:101C8000086010BD84090020E8090020FC0900203C
:101C9000100A0020240A0020380A002048000020F2
:101CA0004C00002010B50146164800E000680368AB
:101CB0008B42FBD3024643689B188B4204D1436896
:101CC0004C681B19436001460A464B689B18046820
:101CD000A34211D10C4C03682468A34208D04B687E
:101CE000046864681B194B6003681B680B6005E09F
:101CF000054B1B680B6001E003680B60884200D055
:101D0000016010BD240000202C000020F8B504461E
:101D10000D4616461F460020009065602461B542BE
:101D20000CD8F01BA169884202D30120009011E079
:101D3000211D0948006800F003FB0BE0BE4204D2FD
:101D4000BD4202D30120009004E0211D0348006839
:101D500000F0F6FA0098F8BD88000020840000200A
:101D600070B5054600F008FBA86B002801D10124DE
:101D700000E0002400F00EFB204670BD70B5054663
:101D800000F0FAFAA86BE96B884201D1012400E067
:101D9000002400F0FFFA204670BDF1B50098846C75
:101DA0000026002C02D172B600BFFEE7A06BE16BEB
:101DB000884201D2012000E00020002802D172B642
:101DC00000BFFEE7A06BE16B88422FD2452005578C
:101DD000002269462046FFF7FFFD0646681C0028E2
:101DE0000FD1606A002801D1012000E00020002806
:101DF0001BD12046243001F0D5F8002815D001264B
:101E000013E000F087FA0746BD420DD27F2D01D0C6
:101E1000012000E00020002802D172B600BFFEE7DA
:101E2000681C41B24520015500BF00BF3046F8BDD7
:101E300070B505460E460E480068C068C468201D8F
:101E400000F054FA2420005D04210840002805D049
:101E500032462946204600F0D1F805E02420005DF6
:101E6000FE210840242108552046216A884770BD7C
:101E7000840000207FB57EE0019800287BDB039C76
:101E80006069002801D1012000E00020002802D173
:101E9000201D00F02BFA684600F0DEF80546019898
:101EA0000300FFF7B9F90A66060831395507093208
:101EB0003A6600BF00BF00BF2420005D0121084337
:101EC000242108550298A269811803462A46204613
:101ED000FFF71CFF002816D02420005D04210840D5
:101EE000002807D00298A26981182A46204600F0EF
:101EF00085F805E02420005DFE21084024210855D6
:101F00002046216A884735E000BF2420005DFE217D
:101F10000840242108552DE000BF2420005D012148
:101F20000843242108550298A061A069002801D027
:101F3000012000E00020002802D172B600BFFEE7B9
:101F4000A06941192B462A462046FFF7DFFE11E023
:101F50002420005D02210840002803D1204600F023
:101F60002DFA05E02420005DFE21084024210855BB
:101F700000E000BF00BF002201A90448006800F093
:101F8000C1FD002800D077E77FBD00008C00002055
:101F9000F8B505460C4600F075FB684600F05CF8A5
:101FA00006460098002822D1002C08D1B54206D858
:101FB00001F07CF831462846FFF73AFF19E0002C83
:101FC00008D00C4800680068002801D1012000E01A
:101FD00000200446A91B22460748006800F076FA54
:101FE00001F064F8002804D100F03AFA01E001F0B1
:101FF0005DF8F8BD880000208C00002070B5044614
:102000000D46164604E0A06945192046216A884716
:10201000A06941192B4632462046FFF777FE00287B
:10202000F1D170BD0A4800680068002801D1012084
:1020300000E00020002804D00020C04305490860CB
:1020400005E003480068C0680068024908607047FE
:10205000480000207400002070B5044600F06EFEB9
:10206000054607480068854204D200F00BF80120BD
:10207000206001E00020206001480560284670BD16
:102080009400002070B508E00D480068C06804683E
:102090000021C9432046FFF7CBFE094800680068CD
:1020A000002801D1012000E000200028ECD00448E5
:1020B000056804480068024908600248056070BD70
:1020C000840000208800002007480068401C002889
:1020D00001D1012000E00020002802D172B600BF2B
:1020E000FEE772B600BFFEE74000002008B500BF63
:1020F0006846FFF7BBFC044620460099FFF748FFFF
:10210000FFF7B8FEF4E770B5044600F035F9452056
:1021100005571EE0A06C002807D02046FFF73DFEC3
:10212000002814D000F026FA11E0606A002801D1DE
:10213000012000E00020002808D12046243000F0D3
:1021400031FF002803D000F015FA00E003E0681E1C
:1021500045B2002DDEDC00BF0021C94345200155FA
:1021600000F018F900F008F94420055713E0206941
:10217000002801D1012000E0002000280AD12046DB
:10218000103000F00FFF002801D000F0F3F9681EB6
:1021900045B200E001E0002DE9DC00BF0021C943A9
:1021A0004420015500F0F6F870BD0000FEB505466C
:1021B0000020019000F066FA3F480068002801D135
:1021C000FFF76AFC002D13D06807400F1021081A92
:1021D00000900021C9430098081AA84201D20120AA
:1021E00000E00020002802D100982D1800E0002512
:1021F000E817401C00284ED0002D4CD02F48006816
:10220000854248D82E4E3046046801E026462468B0
:102210006068A84202D220680028F7D126480068EA
:10222000844238D03068083001902068306060689F
:10223000401B102813D967197807400F002801D1D7
:10224000012000E00020002802D172B600BFFEE7A6
:102250006068401B786065603846FFF723FD1749CA
:1022600060680968081A1549086008460068154939
:102270000968884203D211480068124908600121A8
:10228000C907606808436060002020600E4800684D
:10229000401C0D49086000F009FF01984007400FFD
:1022A000002801D1012000E00020002802D172B6F0
:1022B00000BFFEE70198FEBD2C000020300000208A
:1022C000240000203400002038000020001F0123DB
:1022D0001B060360001F0160001F034B03601438DE
:1022E0000260203870470000C920000001460A69DA
:1022F0004B68886898608B68486858605068884266
:1023000001D188685060002008611068401E10608C
:1023100010687047014800687047000054000020B2
:102320000146083141600021C943816001460831FE
:10233000C1600161002101607047002101617047A7
:1023400010B502460B685C1C002C01D1106907E037
:102350001046083000E04068446824689C42FAD97E
:1023600044684C604C68A160886041600A611468F0
:10237000641C146010BD000072B605480068401C63
:1023800003490860BFF34F8FBFF36F8F70470000A2
:102390004000002008480068002802D172B600BF43
:1023A000FEE705480068401E0349086008460068CB
:1023B000002800D162B670474000002070B5064684
:1023C0003546002E30D0083D2C466068C00F0028EE
:1023D00002D172B600BFFEE72068002801D10120BB
:1023E00000E00020002802D172B600BFFEE760685E
:1023F000C00F002818D02068002815D16068400060
:102400004008606000F03EF90849606809684018BB
:10241000064908602046FFF745FC05480068401C57
:102420000349086000F042FE70BD0000300000204B
:102430003C00002010B500200749086188617D211B
:10244000C90006480068FDF797FE401E0249486132
:102450000720086110BD000000E000E0140000202B
:102460000120000703494860BFF34F8FBFF36F8F10
:102470007047000000ED00E030B502460B46002139
:10248000002A02D172B600BFFEE7002B17D0002051
:1024900012E0C4000C4D64196468944202D1C40077
:1024A00061190BE0002906D1C400074D2C59002CFE
:1024B00001D1C4006119401C0828EAD300BF0029DB
:1024C00001D00B604A6030BD44090020F8B50546D4
:1024D0000E4617462C46FFF74FFF44210857401C75
:1024E000002802D100214420015545210857401CF5
:1024F000002802D1002145200155FFF74BFFA06BBA
:10250000002805D13A4631462046243000F04EF8E6
:102510002046FFF7F8FDF8BD70B504460025002CF5
:1025200014D00D480068002801D1012000E00020EF
:10253000002802D172B600BFFEE700F0A3F8002128
:102540002046FFF721F900F0B1FD0546002D01D12D
:10255000FFF786FF70BD0000800000200349096876
:102560000160034909684160704700006C00002069
:1025700058000020012001490860704768000020D1
:1025800070B504460D46002C02D172B600BFFEE7BE
:102590000548016818312046FFF7D2FE0121284680
:1025A000FFF7F2F870BD00004400002070B504464B
:1025B0000E461546002C02D172B600BFFEE76068D9
:1025C0000F490968C8610E49826809680A620C49A6
:1025D00009681831826851600949096818318160B9
:1025E000074909688C622168491C2160002D01D0CF
:1025F0000026F64329463046FFF7C6F870BD0000B6
:10260000440000201CB5174800210B4640220091D1
:10261000019015A1164800F04DFB0446012C02D193
:1026200000F00CFE0446012C0DD172B60020C04310
:102630001049086001201049086000200F49086017
:1026400000F068F80AE0601C002801D0012000E0DA
:102650000020002802D172B600BFFEE708480068DB
:102660001CBD00007800002049444C4500000000DB
:10267000091B0000740000206000002058000020AA
:102680007C00002002480068401C01490860704737
:10269000800000201A480068002803D00120194952
:1026A00008602CE00020174908601748016805E021
:1026B000002902D172B600BFFEE7491E142048432C
:1026C000124A1058002801D1012000E00020002803
:1026D000EED114224A430D4BD01842685268426032
:1026E000024608324368934202D14268526842600F
:1026F0004268D268064B1A600348016000BF704709
:1027000080000020680000205C0000208409002078
:102710004400002010B50B48006AFF21090408435B
:10272000084908620846006AFF210906084305496E
:102730000862FFF77FFE002003490860FDF7CCFC2C
:10274000002010BD00ED00E04000002010B5FDF7B6
:10275000D7FC044600F0F8FA002803D00120000757
:10276000024948602046FDF7CFFC10BD00ED00E0B7
:10277000F7B582B005460E460024002D21D029462B
:10278000601EFDF7F9FCB0421BD3284670434C2174
:10279000C943884215D82F46774338464C30FFF757
:1027A00005FD0446002C11D00194019C20464C30BC
:1027B0000190009431462846049B019AFFF7B0F936
:1027C00004E0002C02D172B600BFFEE7204605B03F
:1027D000F0BDF8B505460E4601272C46002C02D167
:1027E00072B600BFFEE7002C41D0E06B00283ED05F
:1027F0000020C043E16BFDF7BFFC216C884236D35B
:10280000FFF7BAFD216CE06B484321684018A060D7
:102810000020A06320686060E06B401E216C48438C
:1028200021684118E1600021C94344200155452039
:102830000155002E10D12069002801D1012000E0AF
:102840000020002810D12046103000F0ABFB0028FB
:102850000AD0FFF705FE07E020461030FFF760FDC5
:1028600020462430FFF75CFDFFF794FD00E00027D1
:10287000002F01D0012000E00020002802D172B614
:1028800000BFFEE73846F8BDFFB585B006461D46D9
:10289000002004903446002C02D172B600BFFEE73F
:1028A0000698002802D1206C002801D1012000E008
:1028B0000020002802D172B600BFFEE7022D02D12F
:1028C000E06B012801D1012000E00020002802D1A6
:1028D00072B600BFFEE700F01FFA002802D1079889
:1028E000002801D1012000E00020002802D172B6AA
:1028F00000BFFEE700BFFFF73FFDA06BE16B884222
:1029000001D3022D31D1A06B01902A4620460699B1
:10291000FFF762F80746A06C00280CD0022D02D108
:10292000019800281CD12046FFF737FA002817D05D
:10293000FFF796FD14E0606A002801D1012000E055
:102940000020002808D12046243000F02BFB00286E
:1029500006D0FFF785FD03E0002F01D0FFF780FDD3
:10296000FFF718FD012009B0F0BD0798002803D13A
:10297000FFF710FD0020F6E70498002804D102A814
:10298000FFF7ECFD01200490FFF704FDFFF77AFE4E
:10299000FFF7F2FC44210857401C002802D1002117
:1029A0004420015545210857401C002802D1002130
:1029B00045200155FFF7EEFC07A902A800F03EF9FB
:1029C000002819D12046FFF7D9F900280ED020465B
:1029D00010300799FFF7D4FD2046FFF794FB00F075
:1029E00065FB002887D1FFF73BFD84E72046FFF712
:1029F0008AFB00F05BFB7EE72046FFF784FB00F0DC
:102A000055FB0020AFE7FFB585B015461E46059C77
:102A1000002C02D172B600BFFEE70698002802D152
:102A2000206C002801D1012000E00020002802D104
:102A300072B600BFFEE7022E02D1E06B012801D181
:102A4000012000E00020002802D172B600BFFEE79E
:102A5000FDF756FB0390A06BE16B884201D3022E79
:102A600048D145200757A06B029032462046069970
:102A7000FEF7B2FF781C002824D1A06C00280ED0ED
:102A8000022E02D10298002831D12046FFF785F9A5
:102A900000282CD0002D2AD00120286027E0606A71
:102AA000002801D1012000E0002000281FD120468D
:102AB000243000F077FA002819D0002D17D001201B
:102AC000286014E0FFF726FC0190019887420DD2A0
:102AD0007F2F01D0012000E00020002802D172B633
:102AE00000BFFEE7781C41B24520015500BF012020
:102AF000049001E0002004900398FDF705FB049882
:102B000009B0F0BDF7B584B005460E46002003902D
:102B10002C46002C02D172B600BFFEE7002E02D177
:102B2000206C002801D1012000E00020002802D103
:102B300072B600BFFEE700F0EFF8002802D1069859
:102B4000002801D1012000E00020002802D172B647
:102B500000BFFEE700BFFFF70FFCA76B002F1AD0E6
:102B600031462046FEF722FF781EA0632069002828
:102B700001D1012000E00020002807D120461030BC
:102B800000F010FA002801D0FFF76AFCFFF702FC02
:102B9000012007B0F0BD0698002803D1FFF7FAFB2B
:102BA0000020F6E70398002804D101A8FFF7D6FC1F
:102BB00001200390FFF7EEFBFFF764FDFFF7DCFB5E
:102BC00044210857401C002802D10021442001550F
:102BD00045210857401C002802D1002145200155FD
:102BE000FFF7D8FB06A901A800F028F8002819D1A2
:102BF0002046FFF7B5F800280ED02046243006996D
:102C0000FFF7BEFC2046FFF77EFA00F04FFA0028DF
:102C1000A1D1FFF725FC9EE72046FFF774FA00F0EC
:102C200045FA98E72046FFF76EFA00F03FFA204693
:102C3000FFF796F800288ED00020AAE770B5054669
:102C40000C46002D02D172B600BFFEE7002C02D167
:102C500072B600BFFEE7FFF78FFB14480268686892
:102C6000131A2068401C002801D1002619E01049E1
:102C700028680968884206D06868904203D801260F
:102C8000002020600DE02068984207D92068C01A13
:102C900020602846FFF762FC002602E0002020604A
:102CA0000126FFF777FB304670BD0000580000207A
:102CB0006C000020FFB585B01746B800FFF776FA24
:102CC0000646002E0FD08420FFF770FA0446002C31
:102CD00005D084212046FDF7A4FA266304E030469F
:102CE000FFF76CFB00E00024002C10D000220F99AD
:102CF0000E986B4613C303923A46089B06990598B3
:102D0000FEF721FF2046FEF791FD012501E0002599
:102D1000ED43284609B0F0BD06490968002901D1F4
:102D2000012006E004490968002901D1022000E0E1
:102D300000207047600000208000002001490868E2
:102D40007047000058000020F8B5002000905D4852
:102D5000006800287ED15C480068451C5A48056020
:102D6000002D1CD1594800680068002801D10120BD
:102D700000E00020002802D172B600BFFEE75348F1
:102D80000768534800685149086051480760514836
:102D90000068401C4F490860FFF744F900BF4E48E7
:102DA0000068854275D300BF484800680068002865
:102DB00001D1012000E00020002804D00020C04301
:102DC0004549086064E041480068C068C4686668B6
:102DD000B54202D2404806605AE06069E268A168E4
:102DE0008A60A268E1684A60211D42688A4201D176
:102DF000E1684160002262610168491E0160A06AC9
:102E0000002813D0A06A226AE1698A60E269216A17
:102E10004A602146183142688A4201D1216A4160E4
:102E20000022A2620168491E016000BF2B49E06ACE
:102E30000968884202D92949E06A08601422E16AD7
:102E40005143274A89184868A0608268E260211DC2
:102E5000826800E02FE0516081601422E16A5143F2
:102E60001F4A8A1862611422E16A51431C4A515870
:102E7000491C1423E26A5A43194B99501949E06AD4
:102E80000968C96A88428FD9012000908CE700E068
:102E900000BF14480068C06A14214843104908580C
:102EA000012801D9012000900F480068002801D0B6
:102EB0000120009004E00D480068401C0B490860A8
:102EC0000098F8BD80000020580000204800002035
:102ED0004C0000206C000020740000205C000020EA
:102EE00084090020440000206800002064000020C5
:102EF00070B505462C460026002D4BD026480068AC
:102F0000844201D1012000E00020002802D172B6E5
:102F100000BFFEE7A06F002802D172B600BFFEE737
:102F2000A06F401EA067616FE06A884232D0A06F38
:102F300000282FD1201DFFF7D9F9606FE06205212D
:102F4000E06A081AA0611549E06A0968884202D956
:102F50001249E06A08601422E16A5143104A891854
:102F60004868A0608268E260211D826851608160CB
:102F70001422E16A51430A4A8A1862611422E16A02
:102F80005143074A5158491C1423E26A5A43044BDF
:102F900099500126304670BD440000205C0000209E
:102FA0008409002070B50346D868C168002902D1A1
:102FB00072B600BFFEE7886A0D6ACC69A560CD696C
:102FC0000C6A65600C4618344568A54201D10C6A4C
:102FD000446000258D620468641E04602D4800680A
:102FE000002838D14869CD688C68A5608D68CC68A8
:102FF00065600C1D4568A54201D1CC684460002580
:103000004D610468641E0460234CC86A2468A042B1
:1030100002D9214CC86A20601425CC6A6C431F4D2C
:103020006419606888608568CD600C1D85686C6077
:1030300084601425CC6A6C43184D65194D611425C4
:10304000CC6A6C43154D2C59641C1426CD6A75430B
:10305000124E745110E0124C6068C86185680D62B0
:103060000C46183485686C6084600D4D8D622C466A
:103070002468641C2C6000BF0A4CC86A2468E46A97
:10308000A04204D901220120074C206000E0002268
:10309000104670BD800000205C00002084090020E4
:1030A000100A0020440000206800002070B50024B1
:1030B00000254D480068002802D172B600BFFEE727
:1030C000FFF75AF948480068401E4749086008461B
:1030D000006800287ED14548006800287FD056E06F
:1030E0004348C068C468A06A226AE1698A60E269EC
:1030F000216A4A602146183142688A4201D1216A18
:1031000041600022A2620168491E01606069E268B4
:10311000A1688A60A268E1684A60211D42688A420B
:1031200001D1E1684160002262610168491E0160CD
:103130003049E06A0968884202D92E49E06A08608D
:103140001422E16A51432C4A89184868A0608268B9
:10315000E260211D8268516081601422E16A51435E
:10316000254A8A1862611422E16A5143224A515861
:10317000491C1423E26A5A431F4B99501F49E06AC5
:103180000968C96A884202D301201D4908601848AD
:103190000068002801D1012000E0002000289FD015
:1031A000002C01D0FEF73EFF16480668002E0DD019
:1031B00000BFFFF7C9FD002802D0012010490860B8
:1031C000761E002EF5D100200E4908600C480068DC
:1031D000002800E003E002D00125FFF741F9FFF7E6
:1031E000D9F8284670BD000080000020540000205F
:1031F000100A00205C000020840900204400002008
:103200006800002064000020FFB583B005460E462C
:103210000C9F2820FEF7CAFF0446002C0AD000218C
:10322000242001550097019431462846069B059AB3
:10323000FEF7E0FC204607B0F0BD00001CB50024FE
:10324000FEF75CFB0A48006800280AD00948042100
:10325000002340220091019007A10948FFF72AFDB1
:103260000446002C02D172B600BFFEE720461CBD0A
:103270008C00002090000020546D72205376630073
:10328000ED200000F0B585B004460D4616461F46F9
:1032900000200390002C02D172B600BFFEE7154853
:1032A0000068002822D0009501960294062D15DAB8
:1032B000FFF732FD022808D1002369460D480A9A1B
:1032C0000068FFF7E1FA039010E000231A46694610
:1032D00008480068FFF7D8FA039007E000233A4651
:1032E000694604480068FFF78EFB0390039805B019
:1032F000F0BD00008C0000200000000000005454CD
:103300005220524547474553000000002C3300002F
:10331000000000209C000000CC120000C833000018
:103320009C000020140E0000DC12000000000000D1
:10333000000000000000000000000000000000008D
:1033400000D8B805000000000000000000000000E8
:10335000000000000000000000000000000000006D
:10336000000000000000000000000000AAAAAAAAB5
:10337000000000000000000000000000000000004D
:10338000000000000000000000000000000000003D
:10339000000000000000000000000000000000002D
:1033A0000000000000000000040000000000000019
:1033B000000000000000000000000000000000000D
:0833C000000000000000000005
:04000005000000C136
:00000001FF
