:020000040000FA
:10000000B00D002051010000830B0000C10800006A
:1000100000000000000000000000000000000000E0
:10002000000000000000000000000000830C000041
:1000300000000000000000000F010000CD0C0000D7
:10004000850F0000B10F0000B30F0000B50F0000D6
:100050001704000019040000910900001B040000AF
:10006000890E0000AB050000810C0000FF020000BB
:1000700069010000810B00009D0E00006F0300006D
:100080006901000069010000B5030000690100007A
:1000900069010000000000000000000000000000F6
:1000A0000000000000000000000000000000000050
:1000B0000000000000000000000000000000000040
:1000C0000448854600F0E8F8004800473512000073
:1000D000C046C046B00D0020084B196808682030A3
:1000E00080F30988022080F31488BFF36F8F3FBC30
:1000F000AE4608BC04BC62B6184700003C000020B5
:10010000EFF3108072B6704780F310887047EFF3FA
:1001100009800E4B1A6820381060F0C044464D46E6
:1001200056465F46F0C008B572B601F09BFD62B658
:100130000CBC116808681030F0C8A046A946B24649
:10014000BB4680F309882038F0C818473C000020DF
:10015000064880F308880648804706480047FEE7BF
:10016000FEE7FEE7FEE7FEE7FEE70000B00D002039
:10017000DD0C0000C100000030B50B460146002038
:100180002022012409E00D46D5409D4205D31D469D
:100190009540491B2546954040191546521E002D95
:1001A000F1DC30BDF8B500242546002904DA0E46FE
:1001B000012400214042B141002B04DA1E460023F5
:1001C00052420125B34100F037F88C4617461E46CF
:1001D000AC4203D0002540428D41AC46002C02D0F9
:1001E000002657429E4161463A46334601B0F0BD73
:1001F00003460B439B0703D009E008C9121F08C040
:10020000042AFAD203E00B780370401C491C521EEA
:10021000F9D27047D2B201E00270401C491EFBD2F5
:1002200070470022F6E710B513460A460446194601
:10023000FFF7F0FF204610BDF0B51FB406460020C2
:1002400082B005464024019100901BE001992246AE
:100250000F46304600F042F8049A059B801A9941F7
:1002600010D310461946224600F028F8361A8F415E
:100270000197224601200021009F00F01FF8381846
:100280004D4100902046641E0028DFDC019B009851
:100290002946324607B0F0BD064C0125064E05E062
:1002A000E36807CC2B430C3C98471034B442F7D397
:1002B000FFF70AFFE02500000026000010B5202A05
:1002C00004DB0146203A9140002010BD91402023DC
:1002D0009C1A0346E3401943904010BD10B5202AF4
:1002E00004DB0846203AD040002110BD0B46D34025
:1002F000D0402024A21A91400843194610BD7047EF
:100300000A2001F01FFCFBE70148C06870470000AD
:100310000034014070B50D4604460121802000F0F4
:10032000B1FC0C480168012211430160696820207A
:100330000029616801D0014300E081436160A86841
:100340006063E868A0612869E061286820606869E6
:10035000206170BD0034014000214160782282603C
:1003600001600522C2601C22026141617047704732
:1003700000B5094A07481063D005416BC313194300
:100380004163FF20F53000F08FFC0448106000202E
:10039000106300BD837A000080000040FF01000070
:1003A0000029016802D00122114301E049084900F7
:1003B0000160704770470000002202608B7A0A8952
:1003C0001B041A434260CA6882600A69C2600A78E4
:1003D0004B7852001B011A438B785B011A43CB7890
:1003E0009B011A430B79DB011A434B791B021A4319
:1003F0008B79C9799B021A4309030A4302600249B7
:1004000001200860704700004030014010B5142101
:10041000FFF707FF10BD70477047704770B50024A5
:1004200001252A460B68A240134093422DD10B7937
:10043000002B04D0012B06D0022B0CD011E0066853
:100440001346334309E00368934303604368164649
:100450001E43466005E0036893430360436893438B
:1004600043604B79012B02D0002B05D007E00369D4
:1004700016461E43066102E00369934303618369E4
:100480008E68012E05D093438361641C102CC8D361
:1004900070BD1343F8E70000F0B5324F16011502A6
:1004A00014030B0000F0CAFD10090D13181E2228BA
:1004B0002D33373D42484C52571D016A3940891847
:1004C0000EE0016A274AE13A1140711808E0016A1A
:1004D000254A1140691803E0016A0905090D6118F0
:1004E0000162F0BD416A394089180EE0416A1D4A37
:1004F000E13A1140711808E0416A1B4A114069183D
:1005000003E0416A0905090D61184162F0BD816A85
:10051000394089180EE0816A124AE13A1140711897
:1005200008E0816A104A1140691803E0816A0905F0
:10053000090D61188162F0BDC16A394089180EE069
:10054000C16A084AE13A1140711808E0C16A064AD6
:100550001140691803E0C16A0905090D6118C162FB
:10056000F0BD0000F0FF0000FFF000000246D2687E
:1005700000200A4200D00120704700B5002200F0A0
:100580000CF800BD00B5012200F007F800BD002105
:1005900001600171417181607047002AC26801D019
:1005A0000A4300E08A43C26070477047FEB5684660
:1005B000FFF7EDFF0024694601200C71C003009095
:1005C000134E4C713046FFF729FF6846FFF7DFFFF7
:1005D000012569460E4F0D71009540374C71384624
:1005E000FFF71CFF04220F213046FFF755FF0422BE
:1005F00000213846FFF750FF6846FFF7C8FF6946FD
:100600000D71E80200904C713046FFF707FFFEBD08
:100610000020014010B5FFF7C9FF00F011F800F00D
:10062000D5F80121C9020448FFF7A7FF03480021BC
:100630000160416010BD0000002001404C0100201D
:100640001FB5684600F08EFCE120400200900020BB
:100650000190032069460873014800F021FC1FBD8A
:1006600000280140F0B585B007461D4614460E46E9
:100670006846FFF7CBFE002F01D0641D00E0E41CAC
:1006800001216B461970002058709870D97019714B
:10069000587198710220E2B2D8711A819E7208488E
:1006A000084C0390694604952046FFF785FEFFF746
:1006B0002BFE01212046FFF773FE05B0F0BD0000C0
:1006C0004034014030300140FEB56846FFF75FFF1F
:1006D000012569460D71C8200090124E00244C710E
:1006E0003046FFF79BFE6846FFF751FF69460D71E4
:1006F000802000903046FFF791FE6846FFF747FFE5
:1007000069460C71402000903046FFF787FE0A22B0
:1007100006213046FFF7C0FE0A2207213046FFF7C8
:10072000BBFEFEBD0020014000B58BB004A8FFF762
:1007300013FE052007901C2008900120059004203E
:100740000490322006900720099004A90C48FFF776
:10075000E1FD0021232081220092029001910B46AD
:1007600003910A46084600F05BFAFFF7ADFF054B20
:10077000082202210020FFF775FF0BB000BD00002A
:1007800000340140940000200E4910B5401E8842FC
:1007900001D9012010BD0C4C60610F21601700F0E1
:1007A00067FC0020A0612069042188432061206942
:1007B00002210843206120690121084320610020B3
:1007C00010BD0000FFFFFF0000E000E010B58EB09C
:1007D000684600F047FB0848069003200B90012074
:1007E000064C0C906946204600F0BCFA01212046D8
:1007F00000F078FA0EB010BDC05D00000018014096
:1008000010B586B06846FFF701FE01216A461170F7
:10081000002050709070D070117150719071D17132
:1008200011810A209072074803900748074C0490F2
:1008300011462046FFF7C0FD01212046FFF7B0FD1D
:1008400006B010BD0C2C0140CB0000203030014020
:100850003EB5002469460C71802000900C4D4C710F
:100860002846FFF7DBFD0120694608714020009013
:100870004C712846FFF7D2FD042207212846FFF7D6
:100880000BFE042206212846FFF706FE3EBD0000AF
:10089000002001401FB5FFF7DBFF684600F062FB58
:1008A000E120400200900020019041206946087339
:1008B000024800F0F5FAFFF7A3FF1FBD002C01402E
:1008C000044C054D204600F0EFF90121284600F0C8
:1008D00060F8F7E700A86100002001403EB572B65D
:1008E0001A481B4C20631B480168C2121143016067
:1008F0006846FFF74CFE012069460871009000250C
:100900004D711548FFF78AFDFFF7C4FFFFF70CFF95
:10091000FFF780FE7D20C00000F0C6F9122000F035
:100920009BFB0121122000F0A3FB256362B60B485C
:10093000FFF72AFF002806D009A000F06FFB642013
:1009400000F0B2F93EBD0CA0F7E70000837A00008A
:10095000800000400004004000200140E02E000024
:100960005379735469636B20436F6E6669672045E2
:100970007272210D0A0000005379735469636B2071
:10098000436F6E666967204F6B210D0A00000000FF
:10099000704770B50C460546FFF7E8FD0028214674
:1009A000284603D0FFF7E9FD002070BDFFF7EAFD00
:1009B000012070BD7CB529487D21009000230122D3
:1009C000C90027A001F088FD284C0028A0603CD079
:1009D00027A000F023FB01F0C9FBFF21F5310091B6
:1009E000024600230121A06801F0C2FDE06000285A
:1009F0002DD027A000F012FB01F024F81B4801269F
:100A00000625760201900023324629A100952C4844
:100A100001F072FB206101281BD02AA000F0FEFA31
:100A20000020206111480023001D019032462CA1B6
:100A300000952E4801F060FB206101280BD02CA00E
:100A400000F0ECFA01F00AF87CBD30A0D2E737A044
:100A5000D0E73DA0E2E743A0F2E70000BD0C0000B4
:100A60005379734C454454696D6572000000002051
:100A70007379734C454454696D65722043726561A6
:100A800074652053756363656564210D0A00000079
:100A90007379734C454454696D6572205374617267
:100AA000742053756363656564210D0A00000000BE
:100AB00052533438355461736B46756E63000000D1
:100AC000850B000052533438355461736B204372E8
:100AD00065617465204661696C6564210D0A0000DA
:100AE00043414E5461736B46756E63000103000011
:100AF00043414E5461736B204372656174652046B7
:100B000061696C6564210D0A000000007379734C03
:100B1000454454696D657220437265617465204671
:100B200061696C6564210D0A000000007379734CE3
:100B3000454454696D657220537461727420466136
:100B4000696C6564210D0A00525334383554617361
:100B50006B204372656174652053756363656564DA
:100B6000210D0A0043414E5461736B20437265614D
:100B700074652053756363656564210D0A00000088
:100B80007047FEE7064C7D252D01A06801F018FD99
:100B9000014604A000F042FA284600F0D3FFF4E733
:100BA000000000207854696D6572506572696F6449
:100BB000203D2025640D0A0010B500F0FDF910BDA0
:100BC00070B5054615480C460078002801D100F0A4
:100BD000F3F9EFF31081012080F3108818204543CA
:100BE0000E482818426A056A13461830521C95426E
:100BF00000D100224569022D02D105699542FCD041
:100C00000569954205D04568EB181C70C26001204B
:100C100000E00020C9B281F3108870BD740A002082
:100C2000F0B5164C079F25680126354325602568D9
:100C3000082635432560D5074205160EDB070F4A07
:100C4000DB0F403216604007000EED0E2843506067
:100C500005989060D7604805000E10614807000EA7
:100C6000190108430F305061069890610898D061CF
:100C70002068400840002060F0BD000000340140C2
:100C800070477047074A064B13630029D16901D0AA
:100C9000014300E08143D1610020106370470000F0
:100CA000837A00008000004008B500210091814255
:100CB00002D200BF491CF9E708BD000010B50121B0
:100CC0000148FFF766FE10BD0020014010B501F09D
:100CD0003DFA012801D001F009F810BD00B5FFF779
:100CE00047FB00BDF0B51E4D1D4E1D4F1C4A102385
:100CF000A03D2024803EC03F002917D0B84202D139
:100D0000106B184303E0A84203D1106B204310631B
:100D1000F0BDB04202D1106B402105E010496039AE
:100D20008842F5D1106B80210843F0E7B84202D128
:100D3000106B9843EBE7A84202D1106BA043E6E7A3
:100D4000B04204D1116B402081431163F0BD0449CE
:100D500060398842FAD1106B80218843D7E70000C0
:100D6000C0180140F8B50C46054601210420FFF7E4
:100D700089FF2168606889000843A1682269C90069
:100D8000120111430843E168890108436169C901FF
:100D90000843E16A090208432860A0696860E069C5
:100DA000E860206A28612E49086B4A6BA18C2C4BA5
:100DB0000F07218D3F0F0E072949360FC03B4039E1
:100DC0009D420CD110231843D308226BDB001A4339
:100DD0000B6AFF24240223403B43340110E0204BE4
:100DE000A03B9D420FD1202318431346226B382588
:100DF000AB43D2001A430B6ADCB23B0223433403F9
:100E00001C430C6227E0164B803B9D420FD14023D0
:100E10001843FF251346C135226BAB4392011A4399
:100E20004B6AFF24240223403B43340111E00C4B66
:100E3000603B9D420FD180231843072513466D0266
:100E4000226BAB4352021A434B6ADCB23B02234390
:100E500034031C434C62024908634A63F8BD000036
:100E6000C0180140002141600160816001617D2264
:100E7000C160D200826141615210C26141628162EF
:100E8000C1620262016370470348C169890701D5E5
:100E90000221C16170470000002801407047000036
:100EA000FEB505462A480C46854202D10121102094
:100EB00004E02848854203D101212020FFF7E2FE0B
:100EC00000263346244831462268FFF76BF9012299
:100ED000002301910090FFF765F9204F06E0B21C56
:100EE0000023761C01990098FFF75CF9B842F6D808
:100EF0001B498E61401EC1B2A9600004000E6860EB
:100F0000E07901281FD002281FD000210022637938
:100F100020795B001843A379D2009B001343184348
:100F200009010843217A49010843617A890108438C
:100F30002860607BA17B40000843286260892861AB
:100F4000207BA861FEBD0121E0E701210A46DEE722
:100F500000280140002C014000D8B805FFFF000028
:100F6000800000404B21C9010160002101714171E5
:100F70008171C17101724172418101734173817349
:100F8000704700000848816BC9070CD001218163BC
:100F90000648FF220188F532491C89B2018091423E
:100FA00001D3002101807047C018014014000020C7
:100FB000704770477047000010B5124CA8212046BA
:100FC000FFF72FF90320206160610FA0A061204688
:100FD000A830E061802020620020A0626062E062B0
:100FE00009A121660B4961661021A1662067E066B0
:100FF000606709490F22131ACB5C2354401C102848
:10100000F9D310BD740A00205465726D696E616C6D
:10101000000000009C0B0020CC2500000FB410B590
:1010200003A9044B044A029800F054F810BC08BC11
:1010300004B01847251200009000002030B4744618
:10104000641E2578641CAB4200D21D46635D5B00C4
:10105000E31830BC18470000002805DBC106C90EA4
:1010600001208840014908607047000000E100E06D
:101070008307FF22DB0E9A400907090E99400028DA
:1010800008DB830809489B001B1818689043084335
:10109000186070470007000F0838830804489B0059
:1010A0001B18D86990430843D861704700E400E0FA
:1010B00000ED00E002E008C8121F08C1002AFAD1C2
:1010C00070477047002001E001C1121F002AFBD1C8
:1010D00070470000FFB58DB00446002506E02528C6
:1010E0000AD0109A0F999047641C6D1C2078002834
:1010F000F5D1284611B0F0BD00270121484A0097DC
:1011000000E00743641C23780846203B98401042C7
:10111000F7D120782E2817D1042007436078641C6B
:101120002A280CD10E98641C02C800910E900BE086
:1011300000990A22514330394018641C00902078ED
:10114000014630390929F3D920780028D1D0642804
:1011500008D0692806D075281ED0109A0F9990479C
:101160006D1C5BE00A200E99019001C90E910028C8
:1011700002DA40422D2102E0390504D52B216A46CE
:101180001172012103E0F90704D02021F7E70BAE2B
:101190000B910DE00021FAE70A200E99019001C998
:1011A0000E91F7E70199FEF7E7FF3031761E3170B7
:1011B0000028F7D103A8801B20300190780701D5C3
:1011C000009801E0012000900199884201DD401A59
:1011D00000E000200027009006E002A8109AC05D01
:1011E0000F9990476D1C7F1C0B988742F5DB04E03C
:1011F000109A30200F9990476D1C0099481E00905E
:101200000029F5DC05E03078109A761C0F9990479C
:101210006D1C0199481E01900029F4DC641C65E7EF
:101220000928010010B50446C1B20020FFF7C8FC30
:10123000204610BDFFF7C0FCFFF750FBFFF7BAFBDD
:1012400000F0DCFC01A0FFF7E9FEFBE776546173D8
:101250006B53746172745363686564756C6572284E
:10126000293B3A204E6F7420656E6F756768205277
:10127000414D210D0A000000F8B51A4C0F46E668F2
:1012800005462068001D00F09DFB681C15D1002F4D
:1012900013D0154922684868906082682368DA6034
:1012A00022688368121D5A602268121D82602068BD
:1012B00041610868401C0860F8BD206875194560E8
:1012C0002168B54204D2E06B091D00F0A3FBF8BD14
:1012D000A06B091D00F09EFBA06A8542F7D2A562B3
:1012E000F8BD00003C000020380A0020F8B5054693
:1012F00000F0A8FB304CA068401CA06020682F4F75
:10130000002803D06069002827D02CE02560A06861
:10131000012828D1002614207043C01900F06CFB6E
:10132000761C072EF7D325488C3000F065FB234848
:10133000A03000F061FB2148B43000F05DFB1F4895
:10134000C83000F059FB1D48DC3000F055FB1B484D
:101350008C30A0631430E06305E02068E96AC06A5D
:10136000884200D82560606A401C6062E86A216992
:10137000884200D9206114214843C0194068A86000
:101380008168E9608268291D51608160E86A1421E2
:101390004843C11969613958491C395000F05EFB56
:1013A0006069002806D02068E96AC06A884201D2D4
:1013B00000F09AFBF8BD00003C0000205C09002012
:1013C00010B500F03FFB0C4C2068002810D10B48F2
:1013D00000F012FB0948143000F00EFB0748E060F3
:1013E0001430206100220C21052000F091FC2060C7
:1013F00000F034FB10BD00007C0000204C0A0020EF
:1014000010B5026C0C46002A0CD0C1688B18C36062
:1014100081688B4201D2194601E00168C160204613
:10142000FEF7E6FE10BDF8B5856B174604460026AC
:10143000026C002A11D0002F19D0E068FEF7D8FE08
:10144000E168206C091AE1602268914202D2A16829
:10145000081AE060022F17D019E02068002816D182
:10146000A06800F011FF06460020A0600FE0606851
:10147000FEF7BEFE216C606840186060A16888427B
:1014800005D32068606002E0002D00D06D1E6D1C49
:10149000A5633046F8BD10B50446006B00F0ECFAC9
:1014A000204600F0E9FA10BD01210D48C9024207AB
:1014B00005D0C01DC0080A4AC000821A891A094A0C
:1014C0000023411809C20839C908C9001C3A116033
:1014D0004B600B600B1A0AC09360536070470000AA
:1014E0005C010020300000200F4E104C3746C83FF2
:1014F00011E000F0A7FAF068C568281D00F062FA54
:10150000A068401EA0606068401E606000F0A6FAFF
:101510002846FFF7C0FF60680028EAD13868012834
:10152000F9D900F0E1FAF6E7240A00203C00002097
:10153000FFB581B00C9C9000236B001F1818C608E3
:101540000B9F0A9DF600700701D072B6FEE70029D6
:101550000DD0002023180A5C20331A750A5C002A7B
:1015600002D0401C4028F5D3002173200155072DDF
:1015700001D372B6FEE7E562201D656700F047FA09
:101580002046183000F043FA24610720401B6462B3
:10159000A0613046049A019900F004FA2060002FFF
:1015A00000D03C6005B0F0BD30B5114900E01146F7
:1015B0000A688242FBD34B685C18844203D14068BE
:1015C00018184860084643681C18944209D1084C12
:1015D000143C2468A24209D052689A1842600A68F2
:1015E00012680260814200D0086030BD0460F9E7F3
:1015F0003000002070B5002441600B4D0061914225
:1016000006D8D11A8269914206D2011D286907E0E5
:101610009A4203D2994201D3012403E0011DE868F4
:1016200000F0F8F9204670BD7C00002010B504469B
:1016300000F008FAA06B002804D0002400F00EFA95
:10164000204610BD0124F9E770B506460C480D464A
:10165000C068C068C468201D00F0B4F9214620317C
:101660000879420705D52A463146204600F0AAF8F7
:1016700002E0400840000871216A2046884770BD9A
:101680007C000020F0B585B00125354E5FE0019863
:1016900000285CDB039C6069002802D0201D00F05C
:1016A00091F904A800F0B2F8074601980300FFF78B
:1016B000C5FC0A4E06062A304206062A304E20464F
:1016C0002030009001793A46294301710298A169BE
:1016D000034641182046FFF78DFF002837D00098B9
:1016E0000079410707D50298A1693A46411820467A
:1016F00000F068F803E04108009849000171216A90
:101700002046884723E0203420794008400020719B
:101710001DE0214620310879284308710298A06114
:10172000002806D0C1193B461A462046FFF762FF43
:101730000DE072B6FEE7214620310879820703D416
:10174000204600F099F902E04008400008710022AC
:1017500001A9306800F01FFC002898D105B0F0BD49
:101760007C000020F8B50D46064600F073FA684686
:1017700000F04CF804460098002802D000F02CFE3F
:10178000F8BD0F48002D10D001690968002915D057
:101790000025311B2A46006800F0B2F900F01CFE5B
:1017A0000028EDD100F0A0F9F8BDA642F1D800F074
:1017B00013FE21463046FFF747FFF8BD0125E8E755
:1017C0007C00002070B516460C46054604E0A8696A
:1017D000296A041928468847A86923460119324610
:1017E0002846FFF707FF0028F1D170BD0648816B3E
:1017F0000968002904D0816BC96809688162704753
:101800000021C943FAE700003C000020F8B5064675
:1018100000F0ACFC0D4C0546A068854213D20027B1
:10182000FF4304E0C06839460068FFF70DFFE06839
:1018300001680029F6D12169E16020610120306052
:101840002846A560F8BD0020F9E700007C000020D4
:1018500003480068401C72B600D0FEE7FEE70000B7
:1018600038000020074CE0680168002907D0C068F4
:1018700000210068FFF776FFFFF704FFF3E701217F
:101880000020F7E77C000020F8B5044600F0DAF805
:10189000254640350526AE57274624370BE0606ABB
:1018A00000280AD0384600F033FD002801D000F0AF
:1018B00069F9761E76B2002EF1DC0027FF436F71C6
:1018C00000F0CCF800F0BEF80426AE5720461030E9
:1018D00000900BE0206900280AD0009800F018FD65
:1018E000002801D000F04EF9761E76B2002EF1DC11
:1018F0002F7100F0B3F8F8BD70B50446002600F073
:10190000A9F9274D2868002801D1FFF7CDFD002C4B
:101910003ED06007400F1021081AC1438C4237D8CF
:10192000211835D4002933D06868814230D81C484A
:1019300014300246146801E02046144662688A4268
:1019400002D22268002AF7D12A68944220D0066881
:101950002268026060680836421A102A08D96018A6
:10196000430701D072B6FEE742606160FFF71CFEDC
:1019700061686868401A6860AA68904200D2A860EE
:101980000120C0070143002003C4E868401CE86050
:1019900000F022FD700701D072B6FEE7304670BD40
:1019A0001C00002010B50124031F24061C601B1F0F
:1019B0001960191F024B0B60143940380A6010BDC2
:1019C000511800004368826801699A608368426820
:1019D0005A604A68824201D182684A6000220261EC
:1019E0000868401E08600868704700000148806869
:1019F000704700003C000020014608310022416091
:101A0000D243C16082600161002101607047002102
:101A10000161704730B50B685A1C02D0024608328B
:101A200002E0026904E02246546825689D42FAD922
:101A300053684B6099608A60516008610168491C75
:101A4000016030BD72B604480168491C0160BFF3F3
:101A50004F8FBFF36F8F704738000020054908682B
:101A6000002804D0401E086000D162B6704772B6EC
:101A7000FEE700003800002070B500281DD00446A5
:101A8000083C6068002801DB72B6FEE72168002987
:101A900001D072B6FEE740004008606000F0DAF85E
:101AA000064D60686968401868602046FFF77CFD55
:101AB0002869401C286100F08FFC70BD1C000020CC
:101AC00010B5074C00202061A06106487D21C900A7
:101AD0000068FEF751FB401E60610720206110BDC9
:101AE00000E000E0180000200120044900074860E1
:101AF000BFF34F8FBFF36F8F7047000000ED00E022
:101B000070B515460E460446FFF79CFF2046403050
:101B1000042282560021521C00D1017105228256F6
:101B2000521C00D14171FFF799FFA06B002805D12D
:101B300020462A463146243000F03CF82046FFF784
:101B4000A3FE70BD10B502000FD00948406B0028FD
:101B500001D072B6FEE700F07DF800211046FFF7D5
:101B60008BFB00F039FC002801D1FFF7BDFF10BD51
:101B70003C00002002490A6A0260C968416070475F
:101B80003C00002001490120C86170473C00002052
:101B900010B50C46002809D0054909681831FFF72F
:101BA00039FF01212046FFF767FB10BD72B6FEE743
:101BB0003C00002070B50C4600281BD00E4943683D
:101BC0000D68EB619D680E6835620D689E6818357A
:101BD00075600D6818359D60096888620168491C48
:101BE0000160002A01D00024E44311462046FFF79B
:101BF00043FB70BD72B6FEE73C0000207CB5114887
:101C0000002501902B4620220FA10095104800F0DE
:101C100073FA0C4C2C3C012803D100F089FC0128FC
:101C200002D0401C0BD008E072B60020C043A06276
:101C300001206061E56000F041F8206B7CBD72B668
:101C4000FEE700006800002049444C450000000009
:101C5000E91400000248416B491C416370470000D1
:101C60003C00002010B51348416B002902D001212F
:101C7000C16110BD0021C16101690F4A02E0002964
:101C800015D0491E14234B43D358002BF7D01423EF
:101C90004B439A18536814465B6808345360A34258
:101CA00001D15B685360DA680260016110BD72B6F1
:101CB000FEE700003C0000205C09002010B5094848
:101CC000016AFF22120411430162016A12021143E8
:101CD0000162FFF7F5FE044900200860FEF7FCF9F9
:101CE000002010BD00ED00E03800002010B5FEF728
:101CF00007FA044600F040FA002803D00120034907
:101D0000000748602046FEF7FFF910BD00ED00E037
:101D100070B50E4605001FD001460020C043FEF7F7
:101D20002BFAB04218D3284670434921C84213D831
:101D30004830FFF7E1FD04000AD021464831204633
:101D4000002E07D0016006640121C56300F006F88B
:101D5000204670BD0060F6E772B6FEE7F8B50126D2
:101D60000F46044600282ED0E16B002937D0B51E5F
:101D70002846FEF701FA0146206C81422FD3FFF777
:101D800061FE216CE06B484321684118A16000218D
:101D9000A16321686160E06B216C401E48432168AB
:101DA000411820464030E160057145713038002F00
:101DB0000BD0FFF721FE20462430FFF71DFEFFF772
:101DC0004DFE3046F8BD72B6FEE721690029F6D017
:101DD00000F09EFA0028F2D0FFF786FEEFE772B619
:101DE000FEE7FFB5002683B01D46040003D004982B
:101DF000002802D006E072B6FEE7206C002801D071
:101E000072B6FEE7022D04D1E06B012801D072B654
:101E1000FEE700F09BF90027002804D10598002870
:101E200001D072B6FEE7FFF70DFEA06BE16B8842B2
:101E300007D3022D05D00598002817D0002E18D002
:101E40001BE02A4620460499FFF7EDFA616A002953
:101E500003D02046243000F05BFA002801D0FFF7C1
:101E600043FEFFF7FBFD012007B0F0BDFFF7F6FDD5
:101E700022E06846FFF77EFE0126FFF7EFFDFFF741
:101E8000E9FEFFF7DFFD2046403004214156491CA2
:101E900000D1077105214156491C00D14771FFF758
:101EA000DDFD05A9684600F0F7F8002806D02046B9
:101EB000FFF7EAFC00F090FA0020D5E7FFF7C2FD3B
:101EC000A06BE16B884210D1FFF7C8FD20461030AF
:101ED0000599FFF75DFE2046FFF7D6FC00F07CFA7F
:101EE0000028A0D1FFF700FE9DE7FFF7B7FD2046D1
:101EF000FFF7CAFC00F070FA95E7FFB581B01F4606
:101F0000040003D00298002802D006E072B6FEE773
:101F1000206C002801D072B6FEE7022F04D1E06BDE
:101F2000012801D072B6FEE7FEF7EAF80090A06B38
:101F3000E16B884208D3022F06D000240098FEF7F8
:101F4000E3F8204605B0F0BD264640360525755716
:101F5000A06B3A4620460299FFF765FA681C09D043
:101F6000FFF744FD854203D27F2D12D06D1C7571A1
:101F70000124E3E7606A0028FAD02046243000F00C
:101F8000C7F90028F4D003980028F1D0012101609E
:101F9000EEE772B6FEE7F7B5002582B0040003D085
:101FA0000398002802D006E072B6FEE7206C0028F5
:101FB00001D072B6FEE700F0C9F80026002804D16F
:101FC0000498002801D072B6FEE7FFF73BFDA76B2F
:101FD000002F15D020460399FFF712FA7F1EA76342
:101FE0002069002807D02046103000F091F9002821
:101FF00001D0FFF779FDFFF731FD012005B0F0BDFD
:102000000498002802D0002D03D006E0FFF726FD3B
:1020100027E06846FFF7AEFD0125FFF71FFDFFF73C
:1020200019FEFFF70FFD2046403004214156491CA0
:1020300000D1067105214156491C00D14671FFF7B8
:102040000DFD04A9684600F027F8002820460AD0B4
:10205000FFF71AFC00F0C0F92046FFF7E7FA002866
:10206000B3D00020CAE7FFF7E1FA00280ED02046DF
:1020700024300499FFF78CFD2046FFF705FC00F0A3
:10208000ABF90028A1D1FFF72FFD9EE72046FFF70F
:10209000FBFB00F0A1F998E7F8B50C46050014D059
:1020A000002C14D0FFF7CEFC124BDA686E68206863
:1020B000911B471C0DD02F681B6A9F420BD0964284
:1020C00009D801250020206010E072B6FEE772B644
:1020D000FEE700250AE0884205D9401A206028461C
:1020E000FFF748FDF5E7002001252060FFF7B6FC6B
:1020F0002846F8BD3C000020FFB585B0164690008C
:102100000F9FFFF7F9FB05001DD08420FFF7F4FBBC
:10211000040015D08421FEF784F8256300210E9871
:1021200003910197009002943246089B0699059806
:10213000FFF7FEF92046FFF7D9F8012009B0F0BDFE
:102140002846FFF799FC0020C043F7E7064841699D
:10215000002904D0406B002803D0002070470120E4
:1021600070470220704700003C0000200148C06812
:10217000704700003C000020F8B5414C0026606B21
:10218000002804D0A069401CA0613046F8BDE56875
:102190006D1CE5600ED1A06B0068002801D072B6FE
:1021A000FEE7A06BE16BA163E063206A401C206244
:1021B000FFF71CFBA06A334F85420AD3A06B00686F
:1021C000002813D0A06BC068C1684868854210D24F
:1021D000A06220681421C06A48433858012800D9F9
:1021E0000126E0690028D0D00126CEE70020C043B8
:1021F000EEE78B684A69C8689860CB688868586061
:10220000081D53688446634501D1CB6853600023A1
:102210004B6113685B1E13608A6A002A11D0C8697B
:102220000B6A83600B6AC86958600B4650681833A4
:10223000984201D10B6A536000238B6213685B1EC6
:102240001360CA6A23699A4200D9226114235A434F
:10225000D01942688A609368CB6093686046586082
:102260009060C86A14225043C2194A613A58521CFD
:102270003A50C86A2168C96A88429FD901269DE7F9
:102280003C0000205C09002070B5002104460028B5
:1022900037D01D4D2868844201D072B6FEE7A06F8A
:1022A000002808D0401EA067636FE26A9A4228D0D7
:1022B000002802D025E072B6FEE7201DFFF782FB62
:1022C000606F0721E062081AA061E06A296988420C
:1022D00000D92861142148430C4940184068A06087
:1022E0008268E2608368221D5A608260E06A14227C
:1022F000504340186061E06A50430A58521C0A502B
:102300000121084670BD00003C0000205C0900204F
:1023100030B5C068C06800282AD0C369026A816AE3
:102320009A60036AC2695A6002464B681832934247
:1023300001D1036A4B60002484620B685B1E0B6052
:1023400023494B6B002B15D0224C6368C3619D68F9
:1023500005629D686A609A6084622268521C2260ED
:10236000C06A0A68D26A90422FD90120C86130BD84
:1023700072B6FEE78568C3684269AB60C56883686A
:102380006B605568031D9D4201D1C568556044616D
:102390001468641E1460C26A0C69A24200D90A6102
:1023A000142462430B4CB43C121952688260956845
:1023B000C56095686B609360C26A14235A43131911
:1023C0004361A3585B1CA350CAE7002030BD000046
:1023D0003C000020100A0020F8B53D4D0024686B39
:1023E0002646002808D0FFF72DFB686B401E686367
:1023F000686B002802D066E072B6FEE7A868354B2D
:10240000002846D15FE0D868C468E269216AA06A02
:102410009160226AE16951602146426818318A421E
:1024200001D1216A41600022A2620168491E016057
:10243000A7686169E068B860E768A06878604F687D
:10244000201D874201D1E7684F6062610A68521E11
:102450000A60E16A2A69914200D929611422514334
:102460001C4AB43A89184968A1608F68E7608F6890
:1024700078608860E06A14214843811861611158CE
:10248000491C1150E06A2968C96A884201D30120B9
:10249000E86118680028B6D1002C01D0FFF7A6F932
:1024A000AC69002C09D00127FFF766FE002800D098
:1024B000EF61641EF8D10020A861E869002802D00D
:1024C0000126FFF711FBFFF7C9FA3046F8BD0000FF
:1024D0003C000020100A0020FFB5074683B00E46DE
:1024E0002820FFF709FA04001DD0254600202035DA
:1024F0002871059802970190069F0C980090002E75
:1025000014D0FEF75DFF0298E761A6612060009895
:102510002062201DFFF77BFA0198002803D028795C
:10252000042108432871204607B0F0BD72B6FEE7CB
:102530001CB5FEF745FF0A48006800280CD0084982
:102540000020091D034601910090402205A1074883
:10255000FFF7D2FD002801D172B6FEE71CBD0000D6
:102560007C000020546D72205376630065180000D3
:10257000FEB51D4603460020089E002B12D00F4CCE
:102580002768002F0DD068460EC006290FDAFFF726
:10259000DDFD022808D000231A4669462068FFF7AF
:1025A00020FCFEBD72B6FEE700233246F5E70023AD
:1025B0002A4669463846FFF7A0FCFEBD7C00002095
:1025C000002801D08069704772B6FEE70000000065
:1025D0000000545452205245474745530000000024
:1025E000002600000000002094000000B41000004D
:1025F00094260000940000201C0D0000C410000070
:1026000000000000000000000000000000000000CA
:10261000000000000000000000D8B8050000000025
:1026200000000000000000000000000000000000AA
:102630000000000000000000AAAAAAAA00000000F2
:10264000000000000000000000000000000000008A
:10265000000000000000000000000000000000007A
:102660000000000000000000000000000600000064
:10267000000000000000000000000000000000005A
:10268000000000000000000000000000000000004A
:042690000000000046
:04000005000000C136
:00000001FF
