:020000040000FA
:10000000B011002051010000AB0B0000E908000016
:1000100000000000000000000000000000000000E0
:10002000000000000000000000000000AB0C000019
:1000300000000000000000000F010000F50C0000AF
:100040001510000041100000431000004510000092
:100050001704000019040000BD0900001B04000083
:10006000B10E0000AB050000A90C0000FF0200006B
:1000700069010000A90B00002D0F00006F030000B4
:100080006901000069010000B5030000690100007A
:1000900069010000000000000000000000000000F6
:1000A0000000000000000000000000000000000050
:1000B0000000000000000000000000000000000040
:1000C0000448854600F0E8F800480047E9150000BC
:1000D000C046C046B0110020084B1968086820309F
:1000E00080F30988022080F31488BFF36F8F3FBC30
:1000F000AE4608BC04BC62B61847000020000020D1
:10010000EFF3108072B6704780F310887047EFF3FA
:1001100009800E4B1A6820381060F0C044464D46E6
:1001200056465F46F0C008B572B601F07BFF62B676
:100130000CBC116808681030F0C8A046A946B24649
:10014000BB4680F309882038F0C8184720000020FB
:10015000064880F308880648804706480047FEE7BF
:10016000FEE7FEE7FEE7FEE7FEE70000B011002035
:10017000050D0000C100000030B50B46014600200F
:100180002022012409E00D46D5409D4205D31D469D
:100190009540491B2546954040191546521E002D95
:1001A000F1DC30BDF8B500242546002904DA0E46FE
:1001B000012400214042B141002B04DA1E460023F5
:1001C00052420125B34100F037F88C4617461E46CF
:1001D000AC4203D0002540428D41AC46002C02D0F9
:1001E000002657429E4161463A46334601B0F0BD73
:1001F00003460B439B0703D009E008C9121F08C040
:10020000042AFAD203E00B780370401C491C521EEA
:10021000F9D27047D2B201E00270401C491EFBD2F5
:1002200070470022F6E710B513460A460446194601
:10023000FFF7F0FF204610BDF0B51FB406460020C2
:1002400082B005464024019100901BE001992246AE
:100250000F46304600F042F8049A059B801A9941F7
:1002600010D310461946224600F028F8361A8F415E
:100270000197224601200021009F00F01FF8381846
:100280004D4100902046641E0028DFDC019B009851
:100290002946324607B0F0BD064C0125064E05E062
:1002A000E36807CC2B430C3C98471034B442F7D397
:1002B000FFF70AFFA0290000C029000010B5202A7E
:1002C00004DB0146203A9140002010BD91402023DC
:1002D0009C1A0346E3401943904010BD10B5202AF4
:1002E00004DB0846203AD040002110BD0B46D34025
:1002F000D0402024A21A91400843194610BD7047EF
:100300000A2001F0FFFDFBE70148C06870470000CC
:100310000034014070B50D4604460121802000F0F4
:10032000C5FC0C4801680122114301606968202066
:100330000029616801D0014300E081436160A86841
:100340006063E868A0612869E061286820606869E6
:10035000206170BD0034014000214160782282603C
:1003600001600522C2601C22026141617047704732
:1003700000B5094A07481063D005416BC313194300
:100380004163FF20F53000F0A3FC0448106000201A
:10039000106300BD837A000080000040FF01000070
:1003A0000029016802D00122114301E049084900F7
:1003B0000160704770470000002202608B7A0A8952
:1003C0001B041A434260CA6882600A69C2600A78E4
:1003D0004B7852001B011A438B785B011A43CB7890
:1003E0009B011A430B79DB011A434B791B021A4319
:1003F0008B79C9799B021A4309030A4302600249B7
:1004000001200860704700004030014010B5142101
:10041000FFF707FF10BD70477047704770B50024A5
:1004200001252A460B68A240134093422DD10B7937
:10043000002B04D0012B06D0022B0CD011E0066853
:100440001346334309E00368934303604368164649
:100450001E43466005E0036893430360436893438B
:1004600043604B79012B02D0002B05D007E00369D4
:1004700016461E43066102E00369934303618369E4
:100480008E68012E05D093438361641C102CC8D361
:1004900070BD1343F8E70000F0B5324F16011502A6
:1004A00014030B0000F012FE10090D13181E222871
:1004B0002D33373D42484C52571D016A3940891847
:1004C0000EE0016A274AE13A1140711808E0016A1A
:1004D000254A1140691803E0016A0905090D6118F0
:1004E0000162F0BD416A394089180EE0416A1D4A37
:1004F000E13A1140711808E0416A1B4A114069183D
:1005000003E0416A0905090D61184162F0BD816A85
:10051000394089180EE0816A124AE13A1140711897
:1005200008E0816A104A1140691803E0816A0905F0
:10053000090D61188162F0BDC16A394089180EE069
:10054000C16A084AE13A1140711808E0C16A064AD6
:100550001140691803E0C16A0905090D6118C162FB
:10056000F0BD0000F0FF0000FFF000000246D2687E
:1005700000200A4200D00120704700B5002200F0A0
:100580000CF800BD00B5012200F007F800BD002105
:1005900001600171417181607047002AC26801D019
:1005A0000A4300E08A43C26070477047FEB5684660
:1005B000FFF7EDFF0025694601200D71C003009093
:1005C000134E01244C713046FFF728FF6846FFF7B1
:1005D000DEFF69460E4F0C71009440374D7138466E
:1005E000FFF71CFF04220F213046FFF755FF0422BE
:1005F00000213846FFF750FF6846FFF7C8FF6946FD
:100600000C71E00200904D713046FFF707FFFEBD10
:100610000020014010B5FFF7C9FF00F011F800F00D
:10062000E9F80121C9020448FFF7A7FF03480021A8
:100630000160416010BD00000020014094000020D6
:100640001FB5684600F0D6FCE120000200900020B3
:1006500001901B2069460873014800F069FC1FBD2A
:1006600000280140F0B585B007461D4614460E46E9
:100670006846FFF7CBFE002F01D0641D00E0E41CAC
:1006800001216B461970002058709870D97019714B
:10069000587198710220E2B2D8711A819E7208488E
:1006A000084C0390694604952046FFF785FEFFF746
:1006B0002BFE01212046FFF773FE05B0F0BD0000C0
:1006C0004034014030300140FEB56846FFF75FFF1F
:1006D000012569460D71C8200090124E00244C710E
:1006E0003046FFF79BFE6846FFF751FF69460D71E4
:1006F000802000903046FFF791FE6846FFF747FFE5
:1007000069460C71402000903046FFF787FE0A22B0
:1007100006213046FFF7C0FE0A2207213046FFF7C8
:10072000BBFEFEBD0020014000B58BB004A8FFF762
:1007300013FE052007901C2008900120059004203E
:100740000490322006900720099004A90C48FFF776
:10075000E1FD0021232081220092029001910B46AD
:1007600003910A46084600F06FFAFFF7ADFF054B0C
:10077000082202210020FFF775FF0BB000BD00002A
:1007800000340140A400002010B507490220C861D0
:100790000649C0010860082000F0A6FC0E210820D0
:1007A00000F0AEFC10BD00000028014080E200E037
:1007B0000E4910B5401E884201D9012010BD0C4CD5
:1007C00060610F21601700F09BFC0020A061206990
:1007D00004218843206120690221084320612069A7
:1007E000012108432061002010BD0000FFFFFF0031
:1007F00000E000E010B58EB0684600F047FB084806
:10080000069003200B900120064C0C906946204670
:1008100000F0BCFA0121204600F078FA0EB010BDBD
:10082000C05D00000018014010B586B06846FFF7B3
:10083000EDFD01216A461170002050709070D0705B
:10084000117150719071D17111810A209072074815
:1008500003900748074C049011462046FFF7ACFD73
:1008600001212046FFF79CFD06B010BD0C2C014075
:10087000DB000020303001403EB5002469460C7199
:10088000802000900C4D4C712846FFF7C7FD0120D9
:1008900069460871402000904C712846FFF7BEFD64
:1008A000042207212846FFF7F7FD042206212846E7
:1008B000FFF7F2FD3EBD0000002001401FB5FFF72D
:1008C000DBFF684600F096FBE1204002009000202C
:1008D0000190412069460873024800F029FBFFF7A8
:1008E000A3FF1FBD002C0140044C054D204600F025
:1008F000EFF90121284600F062F8F7E700A861004F
:10090000002001403EB572B61B481C4C20631C48B9
:100910000168C212114301606846FFF738FE0120EA
:1009200069460871009000254D711648FFF776FD65
:10093000FFF7C4FFFFF7F8FEFFF76CFE7D20C00055
:1009400000F0C6F9122000F0CFFB0121122000F0C8
:10095000D7FB256362B60C48FFF72AFF002808D0B2
:100960000AA000F0A3FB642000F0B2F9FFF70CFF2F
:100970003EBD0CA0F5E70000837A00008000004037
:100980000004004000200140E02E00005379735421
:1009900069636B20436F6E66696720457272210D33
:1009A0000A0000005379735469636B20436F6E66CD
:1009B0006967204F6B210D0A00000000704770B579
:1009C0000C460546FFF7D2FD00282146284603D0F5
:1009D000FFF7D3FD002070BDFFF7D4FD012070BDEF
:1009E0007CB528487D21009000230122C90026A063
:1009F00001F052FF274C0028A0603AD026A000F05A
:100A000055FB01F093FDFF21F531009102460023D3
:100A10000121A06801F08CFFE06000282BD026A007
:100A200000F044FB01F0EEF91A480625019000237E
:100A3000802229A100952C4801F03EFD206101286B
:100A40001BD02AA000F032FB0020206111480023B7
:100A5000001D019080222CA100952E4801F02CFD54
:100A6000206101280BD02CA000F020FB01F0D6F96A
:100A70007CBD30A0D4E737A0D2E73DA0E2E743A099
:100A8000F2E70000E50C00005379734C45445469CB
:100A90006D657200740000207379734C454454698D
:100AA0006D6572204372656174652053756363657B
:100AB0006564210D0A0000007379734C4544546944
:100AC0006D6572205374617274205375636365653C
:100AD00064210D0A0000000052533438355461730C
:100AE0006B46756E63000000AD0B00005253343846
:100AF000355461736B20437265617465204661698A
:100B00006C6564210D0A000043414E5461736B46CD
:100B1000756E63000103000043414E5461736B2006
:100B2000437265617465204661696C6564210D0AD4
:100B3000000000007379734C454454696D65722060
:100B4000437265617465204661696C6564210D0AB4
:100B5000000000007379734C454454696D65722040
:100B60005374617274204661696C6564210D0A00DA
:100B700052533438355461736B2043726561746528
:100B80002053756363656564210D0A0043414E542B
:100B900061736B204372656174652053756363658F
:100BA0006564210D0A0000007047FEE7064C7D25B4
:100BB0002D01A06801F0E4FE014604A000F076FAE1
:100BC000284601F09FF9F4E7740000207854696D1D
:100BD0006572506572696F64203D2025640D0A00BE
:100BE00010B500F031FA10BD70B5054615480C4639
:100BF0000078002801D100F027FAEFF310810120DE
:100C000080F31088182045430E482818426A056A68
:100C100013461830521C954200D100224569022D1E
:100C200002D105699542FCD00569954205D0456819
:100C3000EB181C70C260012000E00020C9B281F3F3
:100C4000108870BD740E0020F0B5164C079F256803
:100C50000126354325602568082635432560D507DC
:100C60004205160EDB070F4ADB0F403216604007C5
:100C7000000EED0E2843506005989060D76048053F
:100C8000000E10614807000E190108430F30506133
:100C9000069890610898D061206840084000206064
:100CA000F0BD00000034014070477047074A064B12
:100CB00013630029D16901D0014300E08143D16170
:100CC0000020106370470000837A0000800000401D
:100CD00008B500210091814202D200BF491CF9E70A
:100CE00008BD000010B501210148FFF768FE10BDE6
:100CF0000020014010B501F009FC012801D001F0ED
:100D0000D5F910BD00B5FFF733FB00BDF0B51E4DA2
:100D10001D4E1D4F1C4A1023A03D2024803EC03F85
:100D2000002917D0B84202D1106B184303E0A84243
:100D300003D1106B20431063F0BDB04202D1106BA1
:100D4000402105E0104960398842F5D1106B8021BF
:100D50000843F0E7B84202D1106B9843EBE7A84292
:100D600002D1106BA043E6E7B04204D1116B4020E2
:100D700081431163F0BD044960398842FAD1106B98
:100D800080218843D7E70000C0180140F8B50C4621
:100D9000054601210420FFF789FF2168606889006A
:100DA0000843A1682269C900120111430843E168A0
:100DB000890108436169C9010843E16A09020843DE
:100DC0002860A0696860E069E860206A28612E49AF
:100DD000086B4A6BA18C2C4B0F07218D3F0F0E0720
:100DE0002949360FC03B40399D420CD1102318438E
:100DF000D308226BDB001A430B6AFF242402234032
:100E00003B43340110E0204BA03B9D420FD12023F7
:100E100018431346226B3825AB43D2001A430B6AA2
:100E2000DCB23B02234334031C430C6227E0164B25
:100E3000803B9D420FD140231843FF251346C13507
:100E4000226BAB4392011A434B6AFF2424022340D6
:100E50003B43340111E00C4B603B9D420FD180239A
:100E60001843072513466D02226BAB4352021A4307
:100E70004B6ADCB23B02234334031C434C620249FD
:100E800008634A63F8BD0000C018014000214160BA
:100E90000160816001617D22C160D2008261416197
:100EA0005210C26141628162C16202620163704795
:100EB00010B50E4CE069000704D50820E0610CA0D5
:100EC00000F0F4F8E069C00604D51020E0610EA03F
:100ED00000F0ECF8E069800706D50220E061E068E8
:100EE000C1B210A000F0E2F810BD000000280140DF
:100EF000554152545F49465F53746F704572726F2B
:100F0000720D0A2000000000554152545F495251B1
:100F1000456E615F436865636B4572726F720D0A5F
:100F200020000000253032582000000070470000EB
:100F3000FEB505462A480C46854202D10121102003
:100F400004E02848854203D101212020FFF7AEFEAE
:100F500000263346244831462268FFF723F9012250
:100F6000002301910090FFF71DF9204F06E0B21C0D
:100F70000023761C01990098FFF714F9B842F6D8BF
:100F80001B498E61401EC1B2A9600004000E68605A
:100F9000E07901281FD002281FD0002100226379A8
:100FA00020795B001843A379D2009B0013431843B8
:100FB00009010843217A49010843617A89010843FC
:100FC0002860607BA17B400008432862608928611B
:100FD000207BA861FEBD0121E0E701210A46DEE792
:100FE00000280140002C014000D8B805FFFF000098
:100FF000800000404B21C901016000210171417155
:101000008171C171017241724181017341738173B8
:10101000704700000848816BC9070CD0012181632B
:101020000648FF220188F532491C89B201809142AD
:1010300001D3002101807047C01801408C000020BE
:10104000704770477047000010B5124CA821204629
:10105000FFF7E7F80320206160610FA0A061204640
:10106000A830E061802020620020A0626062E0621F
:1010700009A121660B4961661021A1662067E0661F
:10108000606709490F22131ACB5C2354401C1028B7
:10109000F9D310BD740E00205465726D696E616CD9
:1010A000000000009C0F00208C2900000FB410B538
:1010B00003A9044B044A029800F054F810BC08BC81
:1010C00004B01847D91500009000002030B47446D1
:1010D000641E2578641CAB4200D21D46635D5B0034
:1010E000E31830BC18470000002805DBC106C90E14
:1010F00001208840014908607047000000E100E0DD
:101100008307FF22DB0E9A400907090E9940002849
:1011100008DB830809489B001B18186890430843A4
:10112000186070470007000F0838830804489B00C8
:101130001B18D86990430843D861704700E400E069
:1011400000ED00E002E008C8121F08C1002AFAD131
:1011500070477047002001E001C1121F002AFBD137
:1011600070470000FFB591B00F460546002606E027
:1011700025280AD0149A139990476D1C761C28785C
:101180000028F5D1304615B0F0BD002400940121AF
:10119000F34A029400E004436D1C2B780846203B80
:1011A00098401042F7D128782A280ED002222878B9
:1011B00001463039092915D800990A235943303995
:1011C000401814436D1C0090F1E701CF00900028F7
:1011D00005DA0120400304430098404200900220B9
:1011E00004436D1C28782E2815D104200443687808
:1011F0006D1C2A280AD101CF6D1C02900BE00299C8
:101200000A225143303940186D1C0290287801465B
:1012100030390929F3D928786C2810D006DC4C28FD
:101220001AD068280ED06A2817D104E0742813D089
:101230007A2812D110E00120400504430CE001217E
:10124000090501E0032109050C436978814203D1B6
:101250000120000524186D1C6D1C28786E281ED0F6
:101260000CDC632831D004DC00288BD0582811D145
:10127000B2E064287BD069280CD178E073282DD0A7
:1012800004DC6F2870D0702804D1A7E075286CD0DA
:1012900078286BD0149A13999047761C62E060020C
:1012A000400F022807D003280AD0042838680AD043
:1012B00006603F1D56E03868F11706604160F8E7A8
:1012C00038680680F5E70670F3E7387869460874F1
:1012D0000020487404A80390012003E038680390BC
:1012E0000020C0433F1D61070FD5002101E0019997
:1012F000491C029A0191914213DA8142F7DB019A6B
:101300000399895C0029F2D10BE0002101E00199E9
:10131000491C01918142FADB019A0399895C0029F9
:10132000F5D101990098139A401A00902146149B18
:1013300000F03CF901998019461807E003980399D9
:101340000078491C0391149A139990470198401E04
:101350000190401CF2D12146149B139A009800F092
:1013600015F986196D1C0AE741E033E034E00A20E4
:101370000021049005916002410F022905D001CFA0
:10138000C2179446032905D007E0FF1DFF08FF00A0
:1013900003CF06E000B2C2179446042902D140B23E
:1013A000C1178C4600226146944506DA0A460021A0
:1013B000404291418C462D2102E0210504D52B218C
:1013C0006A461176012103E0E10701D02021F7E709
:1013D000019155E00A200BE0102009E01020049054
:1013E00000210420044308200591029003E0082016
:1013F0000021059104906002410F022905D001CF20
:1014000000229446032906D006E0FF1DFF08FF00D6
:1014100003CF8C4603E080B2042900D1C0B2002182
:10142000019121072CD529780391702906D0049ABF
:101430001021059B4A401A4305D00EE040216A4620
:101440001176012108E06146014306D030216A4649
:1014500011760399517602210191049A0821059B86
:101460004A401A430CD16146014301D1610707D5B7
:1014700030216A461176012101910299491E02919B
:101480002978582904D037A103910FA90F910DE0B5
:1014900039A1F9E76146059B049AFEF7CDFE039B4F
:1014A0008C469B5C0F9A521E0F921370614601434B
:1014B000F0D10F9807A9081A20300390600704D5CF
:1014C000012000048443029801E001200290039966
:1014D000884201DD401A00E0002041180290019886
:1014E00009180098401A0090E00306D42146149B86
:1014F000139A009800F05AF886190020049008E02A
:1015000006A9085C149A139990470498401C761C0D
:10151000049001998842F3DBE0030CD52146149B2B
:10152000139A009800F042F8861904E0149A3020CB
:1015300013999047761C0299481E02900029F5DC09
:1015400008E00F980F990078491C0F91149A13998D
:101550009047761C0399481E03900029F1DCFAE6B7
:101560000928010030313233343536373839616279
:10157000636465660000000030313233343536373D
:10158000383941424344454600000000F8B504465E
:1015900000251E461746880404D405E0394620205D
:1015A000B0476D1C641EF9D52846F8BDFFB504464A
:1015B000002581B01E46C80301D5302700E0202752
:1015C000880404D505E038460399B0476D1C641EB5
:1015D000F9D5284605B0F0BD10B50446C1B20020CB
:1015E000FFF702FB204610BDFFF7FAFAFFF78AF972
:1015F000FFF7F6F900F0E2FC034C04A0FFF756FDFC
:101600002046FFF765FBF8E700A861007654617398
:101610006B53746172745363686564756C6572288A
:10162000293B3A204E6F7420656E6F7567682052B3
:10163000414D210D0A000000F8B51A4C0F46E6682E
:1016400005462068001D00F09DFB681C15D1002F89
:1016500013D0154922684868906082682368DA6070
:1016600022688368121D5A602268121D82602068F9
:1016700041610868401C0860F8BD20687519456024
:101680002168B54204D2E06B091D00F0A3FBF8BD50
:10169000A06B091D00F09EFBA06A8542F7D2A562EF
:1016A000F8BD000020000020380E0020F8B50546E7
:1016B00000F0A8FB304CA068401CA06020682F4FB1
:1016C000002803D06069002827D02CE02560A0689E
:1016D000012828D1002614207043C01900F06CFBAB
:1016E000761C072EF7D325488C3000F065FB234885
:1016F000A03000F061FB2148B43000F05DFB1F48D2
:10170000C83000F059FB1D48DC3000F055FB1B4889
:101710008C30A0631430E06305E02068E96AC06A99
:10172000884200D82560606A401C6062E86A2169CE
:10173000884200D9206114214843C0194068A8603C
:101740008168E9608268291D51608160E86A14211E
:101750004843C11969613958491C395000F05EFB92
:101760006069002806D02068E96AC06A884201D210
:1017700000F09AFBF8BD0000200000205C0D002066
:1017800010B500F03FFB0C4C2068002810D10B482E
:1017900000F012FB0948143000F00EFB0748E0602F
:1017A0001430206100220C21052000F091FC206003
:1017B00000F034FB10BD0000600000204C0E002043
:1017C00010B5026C0C46002A0CD0C1688B18C3609F
:1017D00081688B4201D2194601E00168C160204650
:1017E000FEF706FD10BDF8B5856B174604460026CA
:1017F000026C002A11D0002F19D0E068FEF7F8FC27
:10180000E168206C091AE1602268914202D2A16865
:10181000081AE060022F17D019E02068002816D1BE
:10182000A06800F011FF06460020A0600FE060688D
:10183000FEF7DEFC216C606840186060A168884299
:1018400005D32068606002E0002D00D06D1E6D1C85
:10185000A5633046F8BD10B50446006B00F0ECFA05
:10186000204600F0E9FA10BD03210D488902420725
:1018700005D0C01DC0080A4AC000821A891A094A48
:101880000023411809C20839C908C9001C3A11606F
:101890004B600B600B1A0AC09360536070470000E6
:1018A0005B010020140000200F4E104C3746C83F4B
:1018B00011E000F0A7FAF068C568281D00F062FA90
:1018C000A068401EA0606068401E606000F0A6FA3C
:1018D0002846FFF7C0FF60680028EAD13868012871
:1018E000F9D900F0E1FAF6E7240E002020000020EC
:1018F000FFB581B00C9C9000236B001F1818C60820
:101900000B9F0A9DF600700701D072B6FEE7002912
:101910000DD0002023180A5C20331A750A5C002AB7
:1019200002D0401C4028F5D3002173200155072D1B
:1019300001D372B6FEE7E562201D656700F047FA45
:101940002046183000F043FA24610720401B6462EF
:10195000A0613046049A019900F004FA2060002F3B
:1019600000D03C6005B0F0BD30B5114900E0114633
:101970000A688242FBD34B685C18844203D14068FA
:1019800018184860084643681C18944209D1084C4E
:10199000143C2468A24209D052689A1842600A682E
:1019A00012680260814200D0086030BD0460F9E72F
:1019B0001400002070B5002441600B4D006191427D
:1019C00006D8D11A8269914206D2011D286907E022
:1019D0009A4203D2994201D3012403E0011DE86831
:1019E00000F0F8F9204670BD6000002010B50446F4
:1019F00000F008FAA06B002804D0002400F00EFAD2
:101A0000204610BD0124F9E770B506460C480D4686
:101A1000C068C068C468201D00F0B4F921462031B8
:101A20000879420705D52A463146204600F0AAF833
:101A300002E0400840000871216A2046884770BDD6
:101A400060000020F0B585B00125354E5FE00198BB
:101A500000285CDB039C6069002802D0201D00F098
:101A600091F904A800F0B2F8074601980300FFF7C7
:101A70002DFB0A4E06062A304206062A304E204624
:101A80002030009001793A46294301710298A169FA
:101A9000034641182046FFF78DFF002837D00098F5
:101AA0000079410707D50298A1693A4641182046B6
:101AB00000F068F803E04108009849000171216ACC
:101AC0002046884723E020342079400840002071D8
:101AD0001DE0214620310879284308710298A06151
:101AE000002806D0C1193B461A462046FFF762FF80
:101AF0000DE072B6FEE7214620310879820703D453
:101B0000204600F099F902E04008400008710022E8
:101B100001A9306800F01FFC002898D105B0F0BD85
:101B200060000020F8B50D46064600F073FA6846DE
:101B300000F04CF804460098002802D000F02CFE7B
:101B4000F8BD0F48002D10D001690968002915D093
:101B50000025311B2A46006800F0B2F900F01CFE97
:101B60000028EDD100F0A0F9F8BDA642F1D800F0B0
:101B700013FE21463046FFF747FFF8BD0125E8E791
:101B80006000002070B516460C46054604E0A869C2
:101B9000296A041928468847A8692346011932464C
:101BA0002846FFF707FF0028F1D170BD0648816B7A
:101BB0000968002904D0816BC9680968816270478F
:101BC0000021C943FAE7000020000020F8B50646CE
:101BD00000F0ACFC0D4C0546A068854213D20027EE
:101BE000FF4304E0C06839460068FFF70DFFE06876
:101BF00001680029F6D12169E1602061012030608F
:101C00002846A560F8BD0020F9E70000600000202C
:101C100003480068401C72B600D0FEE7FEE70000F3
:101C20001C000020074CE0680168002907D0C0684C
:101C300000210068FFF776FFFFF704FFF3E70121BB
:101C40000020F7E760000020F8B5044600F0DAF85D
:101C5000254640350526AE57274624370BE0606AF7
:101C600000280AD0384600F033FD002801D000F0EB
:101C700069F9761E76B2002EF1DC0027FF436F7102
:101C800000F0CCF800F0BEF80426AE572046103025
:101C900000900BE0206900280AD0009800F018FDA1
:101CA000002801D000F04EF9761E76B2002EF1DC4D
:101CB0002F7100F0B3F8F8BD70B50446002600F0AF
:101CC000A9F9274D2868002801D1FFF7CDFD002C88
:101CD0003ED06007400F1021081AC1438C4237D80C
:101CE000211835D4002933D06868814230D81C4887
:101CF00014300246146801E02046144662688A42A5
:101D000002D22268002AF7D12A68944220D00668BD
:101D10002268026060680836421A102A08D96018E2
:101D2000430701D072B6FEE742606160FFF71CFE18
:101D300061686868401A6860AA68904200D2A8602A
:101D40000120C0070143002003C4E868401CE8608C
:101D500000F022FD700701D072B6FEE7304670BD7C
:101D60000000002010B50124031F24061C601B1F67
:101D70001960191F024B0B60143940380A6010BDFE
:101D8000111C00004368826801699A608368426898
:101D90005A604A68824201D182684A600022026128
:101DA0000868401E086008687047000001488068A5
:101DB00070470000200000200146083100224160E9
:101DC000D243C1608260016100210160704700213F
:101DD0000161704730B50B685A1C02D002460832C8
:101DE00002E0026904E02246546825689D42FAD95F
:101DF00053684B6099608A60516008610168491CB2
:101E0000016030BD72B604480168491C0160BFF32F
:101E10004F8FBFF36F8F70471C0000200549086883
:101E2000002804D0401E086000D162B6704772B628
:101E3000FEE700001C00002070B500281DD00446FD
:101E4000083C6068002801DB72B6FEE721680029C3
:101E500001D072B6FEE740004008606000F0DAF89A
:101E6000064D60686968401868602046FFF77CFD91
:101E70002869401C286100F08FFC70BD0000002024
:101E800010B5074C00202061A06106487D21C900E3
:101E90000068FEF771F9401E60610720206110BDE7
:101EA00000E000E0880000200120044900074860AD
:101EB000BFF34F8FBFF36F8F7047000000ED00E05E
:101EC00070B515460E460446FFF79CFF204640308D
:101ED000042282560021521C00D101710522825633
:101EE000521C00D14171FFF799FFA06B002805D16A
:101EF00020462A463146243000F03CF82046FFF7C1
:101F0000A3FE70BD10B502000FD00948406B002839
:101F100001D072B6FEE700F07DF800211046FFF711
:101F20008BFB00F039FC002801D1FFF7BDFF10BD8D
:101F30002000002002490A6A0260C96841607047B7
:101F40002000002001490120C861704720000020C6
:101F500010B50C46002809D0054909681831FFF76B
:101F600039FF01212046FFF767FB10BD72B6FEE77F
:101F70002000002070B50C4600281BD00E49436895
:101F80000D68EB619D680E6835620D689E681835B6
:101F900075600D6818359D60096888620168491C84
:101FA0000160002A01D00024E44311462046FFF7D7
:101FB00043FB70BD72B6FEE7200000207CB51148DF
:101FC000002501902B4620220FA10095104800F01B
:101FD00073FA0C4C2C3C012803D100F089FC012839
:101FE00002D0401C0BD008E072B60020C043A062B3
:101FF00001206061E56000F041F8206B7CBD72B6A5
:10200000FEE700004C00002049444C450000000061
:10201000A91800000248416B491C41637047000049
:102020002000002010B51348416B002902D0012187
:10203000C16110BD0021C16101690F4A02E00029A0
:1020400015D0491E14234B43D358002BF7D014232B
:102050004B439A18536814465B6808345360A34294
:1020600001D15B685360DA680260016110BD72B62D
:10207000FEE70000200000205C0D002010B509489C
:10208000016AFF22120411430162016A1202114324
:102090000162FFF7F5FE044900200860FEF71CF816
:1020A000002010BD00ED00E01C00002010B5FEF780
:1020B00027F8044600F040FA002803D00120034925
:1020C000000748602046FEF71FF810BD00ED00E055
:1020D00070B50E4605001FD001460020C043FEF734
:1020E0004BF8B04218D3284670434921C84213D850
:1020F0004830FFF7E1FD04000AD021464831204670
:10210000002E07D0016006640121C56300F006F8C7
:10211000204670BD0060F6E772B6FEE7F8B501260E
:102120000F46044600282ED0E16B002937D0B51E9B
:102130002846FEF721F80146206C81422FD3FFF795
:1021400061FE216CE06B484321684118A1600021C9
:10215000A16321686160E06B216C401E48432168E7
:10216000411820464030E160057145713038002F3C
:102170000BD0FFF721FE20462430FFF71DFEFFF7AE
:102180004DFE3046F8BD72B6FEE721690029F6D053
:1021900000F09EFA0028F2D0FFF786FEEFE772B655
:1021A000FEE7FFB5002683B01D46040003D0049867
:1021B000002802D006E072B6FEE7206C002801D0AD
:1021C00072B6FEE7022D04D1E06B012801D072B691
:1021D000FEE700F09BF90027002804D105980028AD
:1021E00001D072B6FEE7FFF70DFEA06BE16B8842EF
:1021F00007D3022D05D00598002817D0002E18D03F
:102200001BE02A4620460499FFF7EDFA616A00298F
:1022100003D02046243000F05BFA002801D0FFF7FD
:1022200043FEFFF7FBFD012007B0F0BDFFF7F6FD11
:1022300022E06846FFF77EFE0126FFF7EFFDFFF77D
:10224000E9FEFFF7DFFD2046403004214156491CDE
:1022500000D1077105214156491C00D14771FFF794
:10226000DDFD05A9684600F0F7F8002806D02046F5
:10227000FFF7EAFC00F090FA0020D5E7FFF7C2FD77
:10228000A06BE16B884210D1FFF7C8FD20461030EB
:102290000599FFF75DFE2046FFF7D6FC00F07CFABB
:1022A0000028A0D1FFF700FE9DE7FFF7B7FD20460D
:1022B000FFF7CAFC00F070FA95E7FFB581B01F4642
:1022C000040003D00298002802D006E072B6FEE7B0
:1022D000206C002801D072B6FEE7022F04D1E06B1B
:1022E000012801D072B6FEE7FDF70AFF0090A06B4F
:1022F000E16B884208D3022F06D000240098FDF736
:1023000003FF204605B0F0BD26464036052575572B
:10231000A06B3A4620460299FFF765FA681C09D07F
:10232000FFF744FD854203D27F2D12D06D1C7571DD
:102330000124E3E7606A0028FAD02046243000F048
:10234000C7F90028F4D003980028F1D001210160DA
:10235000EEE772B6FEE7F7B5002582B0040003D0C1
:102360000398002802D006E072B6FEE7206C002831
:1023700001D072B6FEE700F0C9F80026002804D1AB
:102380000498002801D072B6FEE7FFF73BFDA76B6B
:10239000002F15D020460399FFF712FA7F1EA7637E
:1023A0002069002807D02046103000F091F900285D
:1023B00001D0FFF779FDFFF731FD012005B0F0BD39
:1023C0000498002802D0002D03D006E0FFF726FD78
:1023D00027E06846FFF7AEFD0125FFF71FFDFFF779
:1023E00019FEFFF70FFD2046403004214156491CDD
:1023F00000D1067105214156491C00D14671FFF7F5
:102400000DFD04A9684600F027F8002820460AD0F0
:10241000FFF71AFC00F0C0F92046FFF7E7FA0028A2
:10242000B3D00020CAE7FFF7E1FA00280ED020461B
:1024300024300499FFF78CFD2046FFF705FC00F0DF
:10244000ABF90028A1D1FFF72FFD9EE72046FFF74B
:10245000FBFB00F0A1F998E7F8B50C46050014D095
:10246000002C14D0FFF7CEFC124BDA686E6820689F
:10247000911B471C0DD02F681B6A9F420BD09642C0
:1024800009D801250020206010E072B6FEE772B680
:10249000FEE700250AE0884205D9401A2060284658
:1024A000FFF748FDF5E7002001252060FFF7B6FCA7
:1024B0002846F8BD20000020FFB585B016469000E4
:1024C0000F9FFFF7F9FB05001DD08420FFF7F4FBF9
:1024D000040015D08421FDF7A4FE256300210E9889
:1024E00003910197009002943246089B0699059843
:1024F000FFF7FEF92046FFF7D9F8012009B0F0BD3B
:102500002846FFF799FC0020C043F7E706484169D9
:10251000002904D0406B002803D000207047012020
:102520007047022070470000200000200148C0686A
:102530007047000020000020F8B5414C0026606B79
:10254000002804D0A069401CA0613046F8BDE568B1
:102550006D1CE5600ED1A06B0068002801D072B63A
:10256000FEE7A06BE16BA163E063206A401C206280
:10257000FFF71CFBA06A334F85420AD3A06B0068AB
:10258000002813D0A06BC068C1684868854210D28B
:10259000A06220681421C06A48433858012800D935
:1025A0000126E0690028D0D00126CEE70020C043F4
:1025B000EEE78B684A69C8689860CB68886858609D
:1025C000081D53688446634501D1CB6853600023DE
:1025D0004B6113685B1E13608A6A002A11D0C869B8
:1025E0000B6A83600B6AC86958600B4650681833E1
:1025F000984201D10B6A536000238B6213685B1E03
:102600001360CA6A23699A4200D9226114235A438B
:10261000D01942688A609368CB60936860465860BE
:102620009060C86A14225043C2194A613A58521C39
:102630003A50C86A2168C96A88429FD901269DE735
:10264000200000205C0D002070B500210446002809
:1026500037D01D4D2868844201D072B6FEE7A06FC6
:10266000002808D0401EA067636FE26A9A4228D013
:10267000002802D025E072B6FEE7201DFFF782FB9E
:10268000606F0721E062081AA061E06A2969884248
:1026900000D92861142148430C4940184068A060C3
:1026A0008268E2608368221D5A608260E06A1422B8
:1026B000504340186061E06A50430A58521C0A5067
:1026C0000121084670BD0000200000205C0D0020A4
:1026D00030B5C068C06800282AD0C369026A816A20
:1026E0009A60036AC2695A6002464B681832934284
:1026F00001D1036A4B60002484620B685B1E0B608F
:1027000023494B6B002B15D0224C6368C3619D6835
:1027100005629D686A609A6084622268521C226029
:10272000C06A0A68D26A90422FD90120C86130BDC0
:1027300072B6FEE78568C3684269AB60C5688368A6
:102740006B605568031D9D4201D1C56855604461A9
:102750001468641E1460C26A0C69A24200D90A613E
:10276000142462430B4CB43C121952688260956881
:10277000C56095686B609360C26A14235A4313194D
:102780004361A3585B1CA350CAE7002030BD000082
:1027900020000020100E0020F8B53D4D0024686B8D
:1027A0002646002808D0FFF72DFB686B401E6863A3
:1027B000686B002802D066E072B6FEE7A868354B69
:1027C000002846D15FE0D868C468E269216AA06A3F
:1027D0009160226AE16951602146426818318A425B
:1027E00001D1216A41600022A2620168491E016094
:1027F000A7686169E068B860E768A06878604F68BA
:10280000201D874201D1E7684F6062610A68521E4D
:102810000A60E16A2A69914200D929611422514370
:102820001C4AB43A89184968A1608F68E7608F68CC
:1028300078608860E06A142148438118616111580A
:10284000491C1150E06A2968C96A884201D30120F5
:10285000E86118680028B6D1002C01D0FFF7A6F96E
:10286000AC69002C09D00127FFF766FE002800D0D4
:10287000EF61641EF8D10020A861E869002802D049
:102880000126FFF711FBFFF7C9FA3046F8BD00003B
:1028900020000020100E0020FFB5074683B00E4632
:1028A0002820FFF709FA04001DD025460020203516
:1028B0002871059802970190069F0C980090002EB1
:1028C00014D0FEF75DFF0298E761A66120600098D2
:1028D0002062201DFFF77BFA0198002803D0287999
:1028E000042108432871204607B0F0BD72B6FEE708
:1028F0001CB5FEF745FF0A48006800280CD00849BF
:102900000020091D034601910090402205A10748BF
:10291000FFF7D2FD002801D172B6FEE71CBD000012
:1029200060000020546D722053766300251C000067
:10293000FEB51D4603460020089E002B12D00F4C0A
:102940002768002F0DD068460EC006290FDAFFF762
:10295000DDFD022808D000231A4669462068FFF7EB
:1029600020FCFEBD72B6FEE700233246F5E70023E9
:102970002A4669463846FFF7A0FCFEBD60000020ED
:10298000002801D08069704772B6FEE700000000A1
:102990000000545452205245474745530000000060
:1029A000C029000000000020940000004411000035
:1029B000542A0000940000201C1100005411000053
:1029C0000000000000000000000000000000000007
:1029D000000000000000000000000000AAAAAAAA4F
:1029E00000000000000000000000000000000000E7
:1029F00000000000000000000000000000000000D7
:102A000000000000000000000000000000000000C6
:102A100006000000000000000000000000000000B0
:102A200000000000000000000000000000000000A6
:102A30000000000000000000000000000000000096
:102A4000000000000000000000D8B80500000000F1
:042A50000000000082
:04000005000000C136
:00000001FF
