S3150000000018120020510100009F100000A50D0000ED
S3150000001000000000000000000000000000000000DA
S31500000020000000000000000000000000C3110000F6
S3150000003000000000000000000F0100002112000077
S315000000408D160000C5160000C7160000C916000070
S315000000505F04000061040000690E000063040000F4
S31500000060A114000091060000C1110000FF0200006B
S31500000070690100009D1000005D1500007D03000071
S315000000806901000069010000F90300006901000030
S3150000009069010000000000000000000000000000F0
S315000000A0000000000000000000000000000000004A
S315000000B0000000000000000000000000000000003A
S315000000C00448854600F0E8F800480047B51E0000E1
S315000000D0C046C04618120020084B19680868203030
S315000000E080F30988022080F31488BFF36F8F3FBC2A
S315000000F0AE4608BC04BC62B61847000034000020B7
S31500000100EFF3108072B6704780F310887047EFF3F4
S3150000011009800E4B1A6820381060F0C044464D46E0
S3150000012056465F46F0C008B572B602F0E3FD62B609
S315000001300CBC116808681030F0C8A046A946B24643
S31500000140BB4680F309882038F0C8184734000020E1
S31500000150064880F308880648804706480047FEE7B9
S31500000160FEE7FEE7FEE7FEE7FEE7000018120020C6
S3150000017031120000C100000030B50B4601460020D8
S315000001802022012409E00D46D5409D4205D31D4697
S315000001909540491B2546954040191546521E002D8F
S315000001A0F1DC30BDF8B500242546002904DA0E46F8
S315000001B0012400214042B141002B04DA1E460023EF
S315000001C052420125B34100F037F88C4617461E46C9
S315000001D0AC4203D0002540428D41AC46002C02D0F3
S315000001E0002657429E4161463A46334601B0F0BD6D
S315000001F003460B439B0703D009E008C9121F08C03A
S31500000200042AFAD203E00B780370401C491C521EE4
S31500000210F9D27047D2B201E00270401C491EFBD2EF
S3150000022070470022F6E710B513460A4604461946FB
S31500000230FFF7F0FF204610BDF0B51FB406460020BC
S3150000024082B005464024019100901BE001992246A8
S315000002500F46304600F042F8049A059B801A9941F1
S3150000026010D310461946224600F028F8361A8F4158
S315000002700197224601200021009F00F01FF8381840
S315000002804D4100902046641E0028DFDC019B00984B
S315000002902946324607B0F0BD064C0125064E05E05C
S315000002A0E36807CC2B430C3C98471034B442F7D391
S315000002B0FFF70AFF383900005839000010B5202A28
S315000002C004DB0146203A9140002010BD91402023D6
S315000002D09C1A0346E3401943904010BD10B5202AEE
S315000002E004DB0846203AD040002110BD0B46D3401F
S315000002F0D0402024A21A91400843194610BD7047E9
S3150000030002E00A2002F038FCFBE700000148C06862
S31500000310704700000034014070B504460D460121C7
S31500000320802000F04FFF0E480068012108430C4969
S3150000033008606868002804D060682021084360606F
S3150000034003E06068202188436060A8686063E8680D
S31500000350A0612869E061286820606869206170BD35
S31500000360003401400021416001607821816005214F
S31500000370C1601C210161002141617047704710B5C1
S3150000038002460023002A01D1401E10BD002909DDC6
S31500000390002003E0145CE418E3B2401C8842F9DB59
S315000003A01846F2E70020C043EFE7000000B5094811
S315000003B009490863C805406BC9130843C903486364
S315000003C0FF20F53000F016FF0448034908600020BE
S315000003D0086300BD837A000080000040FF01000032
S315000003E0002904D0026801231A43026003E0026870
S315000003F052085200026070477047000000220260F7
S315000004000A898B7A1B041A434260CA6882600A69A9
S31500000410C2600A7852004B781B011A438B785B0145
S315000004201A43CB789B011A430B79DB011A434B79AC
S315000004301B021A438B799B021A43CB791B031A437F
S3150000044002600122014B1A607047000040300140F3
S3150000045010B5044614212046FFF7E3FE10BD704791
S3150000046070477047F0B50B46002200240025002196
S3150000047000BF57E00126964034461E6826403546A2
S31500000480A5424ED11E79002E0CD101680126964058
S31500000490314301604168012696400F46B74339460D
S315000004A041601FE01E79012E0BD1016896400F4670
S315000004B0B7433946016041680126964031434160A1
S315000004C010E01E79022E0DD10168012696400F46D6
S315000004D0B743394601604168012696400F46B74347
S315000004E0394641605E79012E04D101699640314357
S315000004F0016109E05E79002E06D101690126964068
S315000005000F46B7433946016181699E68012E02D1C3
S315000005109640314304E0012696400F46B7433946DC
S315000005208161521C102AA5D3F0BD000030B50C46DF
S31500000530230001F011F910090F171E252B333A413C
S31500000540474F565D636B7279016A394D29408B18A6
S3150000055003626AE0016A364DE13D294013015B18EA
S31500000560036262E0016A334D294013025B1803629D
S315000005705BE0036A1905090D13035B18036254E077
S31500000580416A2B4D29408B1843624EE0416A284D43
S31500000590E13D294013015B18436246E0416A254D5F
S315000005A0294013025B1843623FE0436A1905090DAF
S315000005B013035B18436238E0816A1D4D29408B188E
S315000005C0836232E0816A1A4DE13D294013015B18CE
S315000005D083622AE0816A174D294013025B18836201
S315000005E023E0836A1905090D13035B1883621CE077
S315000005F0C16A0F4D29408B18C36216E0C16A0C4DC3
S31500000600E13D294013015B18C3620EE0C16A094D42
S31500000610294013025B18C36207E0C36A1905090D76
S3150000062013035B18C36200E000BF00BF30BD0000CB
S31500000630F0FF0000FFF0000002460020D3680B40E8
S31500000640002B01D0012000E00020704730B50446A1
S315000006500D4600222946204600F010F830BD30B580
S3150000066004460D4601222946204600F007F830BD13
S31500000670002101600171417181607047002A03D039
S31500000680C3680B43C36002E0C3688B43C360704713
S315000006907047000008B50021C94300912248C06890
S315000006A00121C90208432049C860AA201F490870D1
S315000006B008204870122088700820C8700120087130
S315000006C00020487106211948FFF759FE0090694637
S315000006D00020085E401C002808D11348C06801218C
S315000006E0C90288431049C860032008BD68460088CF
S315000006F00E49887107220E4800F0BEFA401C0028F9
S3150000070009D10948C0680121C90288430649C86061
S315000007100020C043E9E70448C0680121C9028843B4
S315000007200149C8600020E0E70020014008000020E1
S31500000730002801400EB56846FFF79AFF002168467B
S3150000074001710120C003009001216846417169468C
S315000007501648FFF787FE6846FFF78AFF01216846BD
S3150000076001710120009000216846417169460F48D9
S315000007704030FFF777FE04220F210C48FFF7D6FE24
S315000007800422002109484030FFF7D0FE6846FFF7F3
S315000007906FFF012168460171C8020090002168467A
S315000007A0417169460148FFF75DFE0EBD002001401C
S315000007B010B51348C0680121C90208431049C86032
S315000007C0FFF7B8FF00F022F800F03CFA0C48C068CA
S315000007D00121C90288430A49C8600A210948FFF76E
S315000007E020FD00F021F900200649087248720648EB
S315000007F0C8600121034801740021417410BD000046
S3150000080000200140F8000020C91D00001FB5684601
S3150000081000F02CFFE12000020090002168460171E3
S3150000082041718171C1711B2101736946034800F052
S3150000083099FEFF200149C8611FBD00000028014044
S31500000840F0B587B005460E4614461F4600200690B2
S3150000085005906846FFF7FCFD002D03D0601DC0B271
S31500000860069002E0E01CC0B20690012168460170C5
S315000008700021417081700121C17001710021417117
S3150000088081710221C171069901818672094803901E
S31500000890049769460848FFF7B1FDFFF737FDC0B278
S315000008A005900598059001210348FFF799FD07B0CB
S315000008B0F0BD000040340140303001400EB56846BE
S315000008C0FFF7D6FE012168460171C0200090002185
S315000008D06846417169461348FFF7C4FD6846FFF74D
S315000008E0C7FE0121684601718020009069460D48C7
S315000008F0FFF7B8FD6846FFF7BBFE002168460171A9
S315000009004020009069460748FFF7ACFD0A22062101
S315000009100448FFF70BFE0A2207210248FFF706FEEE
S315000009200EBD00000020014000B58BB005A8FFF702
S3150000093019FD052008901C2009900120069004202E
S3150000094005903220079007200A9005A90C48FFF76A
S31500000950E3FC002023218123019000930291039060
S315000009600346024601462F2000F0ECFBFFF7A6FFE8
S31500000970044B082202210020FFF762FF0BB000BDE6
S31500000980003401400C01002010B509A000F0D4FE8F
S315000009900A210B48FFF745FC0020094908724872F6
S315000009A00848C8600121064801740021417410BD41
S315000009B048575F46736D43726173680D0A00000005
S315000009C0F8000020C91D000001B500F0DFF812494B
S315000009D008706846007800F07FF8104908700E48E5
S315000009E00078C0000E4942180E4806CA0261C1606E
S315000009F0407C0949097888420BD10A486946C26891
S31500000A0006489047044908700846007800F0D4F874
S31500000A1001E0FFF7B9FF08BD0F000020100000201D
S31500000A20A8000020F8000020204821490860002086
S31500000A3048712048886001211D4841731E481C49A1
S31500000A40086102211A4841751C4819498861032129
S31500000A50174841771A48164908620421144820307D
S31500000A6041711848124988620521114828304171A0
S31500000A7015480F49086306210D4830304171134867
S31500000A800B49886307210A483830417110480849E4
S31500000A90086408210648403041710E4804498864BC
S31500000AA0092103484830417170470000C91D000004
S31500000AB0A8000020851D00004D1E0000211D00001D
S31500000AC0811E0000F91D0000B51C0000D91C0000A5
S31500000AD01D1E0000551D000070B505462A48007A07
S31500000AE0030000F039FE0A060C161C22282A2C3CAC
S31500000AF04248AA2D01D1012400E0002441E0AA2D9C
S31500000B0001D1012404E0122D01D1022400E00924C0
S31500000B1037E0082D01D1032400E0092431E0102D2F
S31500000B2001D1042400E009242BE0022D01D1052483
S31500000B3000E0092425E0062423E0072421E007211C
S31500000B401148FFF71CFC0646701C002800D170BD3A
S31500000B50F0B2A84201D1082400E0092411E0AA2D30
S31500000B6001D1012400E000240BE0AA2D01D10124CB
S31500000B7000E0002405E0AA2D01D1012400E00024B4
S31500000B8000BF00BF2046E2E7F80000200148007AD7
S31500000B9070470000F800002010B50221054800F05B
S31500000BA0DEFC082000F0E6FD0E21082000F0F2FD34
S31500000BB010BD0000002801400149087248747047C2
S31500000BC0F80000200EB56846FFF752FD0121684681
S31500000BD00171012000900021684641716946024872
S31500000BE0FFF740FC0EBD00000020014010B5044692
S31500000BF0601E1249884201D9012010BD601E1049AD
S31500000C0048610F210020C04300F0C4FD00200C49BC
S31500000C108861084600690421884309490861084635
S31500000C200069022108430649086108460069012156
S31500000C300843034908610020DFE70000FFFFFF00CB
S31500000C4000E000E000B58DB0684600F015FC0848ED
S31500000C50069003200B9001200C906946054800F091
S31500000C6055FB0121034800F0E7FA0DB000BD000076
S31500000C70C05D000000180140F8B506460C46174650
S31500000C80002C01D1481EF8BD00BFF069C007C00F97
S31500000C900028FAD1002510E0615D304600F0E4FC42
S31500000CA000BF084800780028FBD0002005490870DE
S31500000CB0615D05A000F040FD6D1CBD42ECDB00202F
S31500000CC0E1E7000011000020253032582000000026
S31500000CD000B585B06846FFF7BBFB01216846017089
S31500000CE0002141708170C1700121017100214171A3
S31500000CF081710121C17101810A2181720648039027
S31500000D000648049069460648FFF778FB0121044827
S31500000D10FFF766FB05B000BD0C2C01404301002027
S31500000D20303001400EB500216846017180200090E8
S31500000D306846417169460D48FFF794FB01216846F4
S31500000D4001714020009000216846417169460748BC
S31500000D50FFF788FB042207210448FFF7E7FB04227C
S31500000D6006210248FFF7E2FB0EBD0000002001400D
S31500000D701FB5FFF7D7FF684600F078FCE120400278
S31500000D80009000216846017141718171C171412154
S31500000D9001736946024800F0E5FBFFF799FF1FBDA6
S31500000DA0002C014006E0044800F024FA0121034823
S31500000DB000F05BF8F7E7000000A8610000200140A2
S31500000DC010B572B618481949086319480068C9125F
S31500000DD0084317490860FFF7F5FEFFF7C9FFFFF75D
S31500000DE0A3FDFFF7E5FC7D20C00000F003FAFFF746
S31500000DF0D3FE122000F0BEFC0121122000F0CAFC36
S31500000E0000200A49086362B60A48FFF7EFFE002889
S31500000E1003D109A000F090FC02E00DA000F08CFCCC
S31500000E20642000F0E7F910BD837A000080000040DE
S31500000E3000040040E02E00005379735469636B2070
S31500000E40436F6E666967204F6B210D0A0000000034
S31500000E505379735469636B20436F6E6669672045E7
S31500000E607272210D0A000000704770B504460D46E7
S31500000E7029462046FFF7E0FB0646002E05D0294608
S31500000E802046FFF7E3FB002070BD29462046FFF70A
S31500000E90E6FB0120F8E700001CB5334800230122D9
S31500000EA07D21C900009031A002F0BCFC32490860E7
S31500000EB008460068002803D130A000F03DFC1CE085
S31500000EC036A000F039FC02F047FA0446FF20F53060
S31500000ED000232246012100902748006802F0E0FC2A
S31500000EE03649086008460068002803D134A000F09F
S31500000EF023FC02E039A000F01FFC01F097FD3F48FB
S31500000F0006210023FF220132009101903CA14048B6
S31500000F1002F0DEF93F49086008460068012803D15F
S31500000F203DA000F009FC02E042A000F005FC002014
S31500000F303849086046480621002380220091019026
S31500000F4044A1474802F0C4F93249086008460068DF
S31500000F50012803D143A000F0EFFB02E048A000F017
S31500000F60EBFB01F071FD1CBD0D1200005379734CB3
S31500000F70454454696D657200900000207379734C86
S31500000F80454454696D6572204372656174652046F7
S31500000F9061696C6564210D0A000000007379734C69
S31500000FA0454454696D6572204372656174652053CA
S31500000FB0756363656564210D0A00000094000020D6
S31500000FC07379734C454454696D657220537461722C
S31500000FD074204661696C6564210D0A007379734C4F
S31500000FE0454454696D65722053746172742053755B
S31500000FF06363656564210D0A000000008800002017
S3150000100052533438355461736B46756E6300000075
S31500001010A5100000980000205253343835546173EF
S315000010206B204372656174652053756363656564FF
S31500001030210D0A0052533438355461736B204372C4
S3150000104065617465204661696C6564210D0A00005E
S315000010508C00002043414E5461736B46756E6300ED
S315000010600103000043414E5461736B204372656176
S3150000107074652053756363656564210D0A0000007D
S3150000108043414E5461736B2043726561746520461B
S3150000109061696C6564210D0A00000000704700BF9D
S315000010A0FEE70000FFF7F6FA07E00448006802F0E2
S315000010B031FC7D20C00001F05FFDF6E790000020C6
S315000010C010B500F003FB10BDF3B583B007461C480E
S315000010D0019000BF01980078002801D100F0F6FACF
S315000010E000BFEFF31080012181F3108800BF00BF1D
S315000010F018217943124A18328C18E1684D1CA168F0
S31500001100A94200D100256169022903D100BF2169E6
S31500001110A942FCD02169A94209D0E2686168891810
S315000011200291049A02990A70E560012600E0002601
S31500001130C1B281F3108800BF00BF304605B0F0BDD4
S31500001140DC0E0020F0B5069D059C1C4E3668012776
S315000011503E431A4F3E603E46366808273E43174FC9
S315000011603E604005400D4905490DD207D20FDB0709
S31500001170DB0FC608114F40373E604607360E170193
S315000011803E430E4F40377E603E46B460079EFE608B
S31500001190CE083E614E07360E1F013E430F36074FFF
S315000011A040377E613E46B561089EFE61034E366855
S315000011B076087600014F3E60F0BD00000034014025
S315000011C070477047094A0A4B1A63002904D01A4629
S315000011D0D2690243DA6104E0054AD2698243044BCC
S315000011E0DA610022024B1A6370470000837A00001E
S315000011F08000004008B50021009103E000BF00997F
S31500001200491C009100998142F8D308BD10B50446E7
S3150000121001210248FFF729FE10BD00000020014011
S3150000122010B502F087F8012801D001F0BFFD10BD0E
S3150000123000B5FFF7BBF800BD002932D0324A904214
S3150000124008D1314AC032126B10231A432E4BC033D9
S315000012501A6358E02C4A2032904208D12A4AC032FA
S31500001260126B20231A43284BC0331A634BE0264ADD
S315000012704032904208D1244AC032126B40231A43AE
S31500001280214BC0331A633EE01F4A603290423AD186
S315000012901D4AC032126B80231A431B4BC0331A639C
S315000012A031E0194A904208D1174AC032126B102316
S315000012B09A43154BC0331A6325E0134A20329042F5
S315000012C008D1114AC032126B20239A430E4BC03309
S315000012D01A6318E00C4A4032904208D10A4AC032DA
S315000012E0126B40239A43084BC0331A630BE0064A3D
S315000012F06032904207D1044AC032126B80239A436F
S31500001300014BC0331A63704700180140F0B585B031
S3150000131006460C4601210420FFF754FF2168890088
S3150000132060680843A168C9000843216909010843A8
S31500001330E168890108436169C9010843E16A090254
S3150000134008433060A0697060E069F060206A30612F
S315000013504848006B03904748476BA08C0007000F76
S315000013600190208D0007000F00904248C038864249
S315000013701AD110210398084303900720029039469A
S31500001380029881430F46206B07433A484038056A66
S31500001390FF2000020540019805430098000105431F
S315000013A03448403805625EE03248A03886421AD199
S315000013B0202103980843039038200290394602986A
S315000013C081430F46206BC00007432A484038056A10
S315000013D0EDB2019800020543009800030543254835
S315000013E0403805623FE02348803886421CD14021C0
S315000013F0039808430390FF20C130029039460298B3
S3150000140081430F46206B800107431A484038456ADE
S31500001410FF2000020540019805430098000105439E
S315000014201448403845621EE01248603886421AD198
S315000014308021039808430390072040020290394612
S31500001440029881430F46206B400207430948403803
S31500001450456AEDB201980002054300980003054372
S3150000146004484038456203490398086308464763C1
S3150000147005B0F0BDC01801400021416001608160E7
S315000014800161C16041617D21C90081614910C1616D
S315000014900162002141628162C162016370470000FE
S315000014A008B51D48C06908210840002805D0082055
S315000014B01949C86119A000F03FF91748C069102101
S315000014C00840002805D010201349C86119A000F073
S315000014D033F91148C0690221084000280FD00220C4
S315000014E00D49C8610846C068C1B2009168460078D7
S315000014F0FFF76AFA6846017815A000F01DF906485C
S31500001500C069C007C00F002804D001200249C86185
S315000015101149087008BD0000002801405541525489
S315000015205F49465F53746F704572726F720D0A2081
S3150000153000000000554152545F495251456E615FAB
S31500001540436865636B4572726F720D0A2000000076
S315000015502530325820000000110000207047C1617C
S3150000156070470000F0B587B005460C4639488542FD
S3150000157004D101211020FFF725FE06E036488542FA
S3150000158003D101212020FFF71DFE00272068024617
S315000015900023019031481946FEF704FE039102909C
S315000015A0781C0246002301900298FEF7FBFD0646D2
S315000015B012E07F1C20680246002301902748194646
S315000015C0FEF7F0FD03910290781C0246002301907D
S315000015D00298FEF7E7FD064621488642E9D82148EB
S315000015E08761761EF0B2A860FF2000023040000A34
S315000015F06860E079012803D104900020059009E095
S31500001600E079022803D101200490059002E0002031
S31500001610049005902079617949000843A1798900F1
S3150000162008430599C9000843049909010843217A2A
S3150000163049010843617A890108432860607B4000BC
S31500001640A17B0843286260892861207BA86107B0D6
S31500001650F0BD000000280140002C014000D8B8056C
S31500001660FFFF000080000040C16070474B21C901A8
S3150000167001600021017141718171C1710172417274
S315000016804181017341738173704700000B48806B81
S31500001690C007C00F002810D00120084988630848F9
S315000016A00088401C0649088008460088FF21F5315D
S315000016B0884202DB0020024908807047C0180140BA
S315000016C0A0000020704770477047000070B5134CAB
S315000016D0A8212046FEF7A5FD03202061606110A029
S315000016E0A0611249E161802121620021A16261624B
S315000016F0E1620BA020660E4961661021A1660021F9
S315000017002167E1666167002505E00F20401B094956
S31500001710085C60556D1C102DF7D370BDDC0E0020E3
S315000017205465726D696E616C00000000840F0020C4
S3150000173004100020263900000FB410B503A9044B8D
S31500001740044A029800F072F810BC08BC04B01847AE
S31500001750A11C0000A400002030B47446641E257845
S31500001760641CAB4204D3635D5B00E31830BC1847CE
S315000017701D46F8E7002809DB00BF00BFC206D20EEF
S3150000178001219140024A116000BF00BF704700006E
S3150000179000E100E010B5002819DB1A4A03231B02FA
S315000017A0D21883089B00D2588307DC0EFF23A34080
S315000017B09A430B071B0E8407E40EA3401A43114BF2
S315000017C0032424021B198408A4001A5118E00E4AA7
S315000017D003071B0F083B9B089B00D2588307DC0EB0
S315000017E0FF23A3409A430B071B0E8407E40EA34076
S315000017F01A43054B0407240F083CA408A4001A51F9
S3150000180010BD000000E100E01CED00E002E008C8A9
S31500001810121F08C1002AFAD170477047002001E064
S3150000182001C1121F002AFBD170470000FFB591B01D
S315000018300F460546002606E025280AD0149A139975
S3150000184090476D1C761C28780028F5D1304615B0D7
S31500001850F0BD002400940121F34A029400E0044301
S315000018606D1C2B780846203B98401042F7D128780B
S315000018702A280ED00222287801463039092915D89F
S3150000188000990A2359433039401814436D1C0090BF
S31500001890F1E701CF0090002805DA01204003044358
S315000018A0009840420090022004436D1C28782E28A0
S315000018B015D10420044368786D1C2A280AD101CF6B
S315000018C06D1C02900BE002990A22514330394018F0
S315000018D06D1C02902878014630390929F3D92878F9
S315000018E06C2810D006DC4C281AD068280ED06A283E
S315000018F017D104E0742813D07A2812D110E0012001
S31500001900400504430CE00121090501E00321090516
S315000019100C436978814203D10120000524186D1C0F
S315000019206D1C28786E281ED00CDC632831D004DCB0
S3150000193000288BD0582811D1B2E064287BD06928C2
S315000019400CD178E073282DD004DC6F2870D0702875
S3150000195004D1A7E075286CD078286BD0149A139917
S315000019609047761C62E06002400F022807D00328E9
S315000019700AD0042838680AD006603F1D56E0386849
S31500001980F11706604160F8E738680680F5E70670EB
S31500001990F3E73878694608740020487404A8039071
S315000019A0012003E0386803900020C0433F1D610713
S315000019B00FD5002101E00199491C029A019191423B
S315000019C013DA8142F7DB019A0399895C0029F2D187
S315000019D00BE0002101E00199491C01918142FADBEB
S315000019E0019A0399895C0029F5D101990098139A07
S315000019F0401A00902146149B00F03CF90199801989
S31500001A00461807E0039803990078491C0391149A35
S31500001A10139990470198401E0190401CF2D121462F
S31500001A20149B139A009800F015F986196D1C0AE7A5
S31500001A3041E033E034E00A20002104900591600281
S31500001A40410F022905D001CFC2179446032905D0BC
S31500001A5007E0FF1DFF08FF0003CF06E000B2C21734
S31500001A609446042902D140B2C1178C460022614631
S31500001A70944506DA0A460021404291418C462D21C2
S31500001A8002E0210504D52B216A461176012103E0E7
S31500001A90E10701D02021F7E7019155E00A200BE08C
S31500001AA0102009E01020049000210420044308209F
S31500001AB00591029003E00820002105910490600240
S31500001AC0410F022905D001CF00229446032906D0F2
S31500001AD006E0FF1DFF08FF0003CF8C4603E080B23F
S31500001AE0042900D1C0B20021019121072CD5297803
S31500001AF00391702906D0049A1021059B4A401A4387
S31500001B0005D00EE040216A461176012108E06146C3
S31500001B10014306D030216A46117603995176022197
S31500001B200191049A0821059B4A401A430CD161464B
S31500001B30014301D1610707D530216A46117601219B
S31500001B4001910299491E02912978582904D037A19A
S31500001B5003910FA90F910DE039A1F9E76146059BA5
S31500001B60049AFEF769FB039B8C469B5C0F9A521EF8
S31500001B700F92137061460143F0D10F9807A9081A16
S31500001B8020300390600704D50120000484430298A6
S31500001B9001E0012002900399884201DD401A00E02D
S31500001BA0002041180290019809180098401A0090E8
S31500001BB0E00306D42146149B139A009800F05AF8C5
S31500001BC086190020049008E006A9085C149A139967
S31500001BD090470498401C761C049001998842F3DBD8
S31500001BE0E0030CD52146149B139A009800F042F8A6
S31500001BF0861904E0149A302013999047761C0299AE
S31500001C00481E02900029F5DC08E00F980F9900782D
S31500001C10491C0F91149A13999047761C0399481EF4
S31500001C2003900029F1DCFAE609280100303132334D
S31500001C303435363738396162636465660000000002
S31500001C4030313233343536373839414243444546EC
S31500001C5000000000F8B5044600251E461746880415
S31500001C6004D405E039462020B0476D1C641EF9D522
S31500001C702846F8BDFFB50446002581B01E46C803B8
S31500001C8001D5302700E02027880404D505E0384632
S31500001C900399B0476D1C641EF9D5284605B0F0BD02
S31500001CA070B504460D46E1B20020FFF70DFA204656
S31500001CB070BD000002461078072805D10B7805484C
S31500001CC083710723037400E000BF00BF0148007C56
S31500001CD070470000F800002070B504460D462078D5
S31500001CE0082802D009280ED109E028780849C871C9
S31500001CF008210748017407A0FFF71EFD04E009212B
S31500001D000348017400E000BF00BF0148007C70BDBD
S31500001D10F800002046534D20446F6E65210D0A00E1
S31500001D2002461078042802D009280BD106E01020BC
S31500001D30074BD87004230648037404E009230448BB
S31500001D40037400E000BF00BF0148007C704700003C
S31500001D50F800002002461078002808D001280AD191
S31500001D60AA20074B187001230548037404E00023DA
S31500001D700348037400E000BF00BF0148007C7047C1
S31500001D80F800002002461078012804D0022809D065
S31500001D90092812D10DE0AA200A4B18700123094820
S31500001DA003740BE01220074B587002230548037496
S31500001DB004E009230348037400E000BF00BF0148A4
S31500001DC0007C7047F800002002461078002808D0F2
S31500001DD001280AD1AA20074B18700123054803746D
S31500001DE004E000230348037400E000BF00BF01487D
S31500001DF0007C7047F800002002461078062806D1BD
S31500001E000878054B587106230348037400E000BFA9
S31500001E1000BF0148007C7047F80000200246107899
S31500001E20002808D001280AD1AA20074B18700123E0
S31500001E300548037404E000230348037400E000BF70
S31500001E4000BF0148007C7047F80000200246107869
S31500001E50032802D009280BD106E00820074B98700A
S31500001E6003230648037404E009230448037400E0CE
S31500001E7000BF00BF0148007C70470000F80000204A
S31500001E8002461078052802D009280BD106E0022068
S31500001E90074B187105230648037404E00923044818
S31500001EA0037400E000BF00BF0148007C70470000DB
S31500001EB0F8000020FFF704F9FEF782FFFEF7ECFFBB
S31500001EC000F0D0FE05E003A0FFF736FC0C48FFF754
S31500001ED091F9F8E7765461736B53746172745363C6
S31500001EE0686564756C657228293B3A204E6F7420CC
S31500001EF0656E6F7567682052414D210D0A0000001E
S31500001F0000A86100F8B505460E4621480768214835
S31500001F100068001D00F044FD681C00281CD1002E3E
S31500001F201AD01D4948681B490968886019498268A2
S31500001F300968CA6017490968091D82685160154910
S31500001F400968091D8160144A124909684A611146E7
S31500001F500968491C11601AE07C190E480068446043
S31500001F60BC4207D20B480168091D0C48006800F006
S31500001F7041FD0CE007480168091D0948006800F0AA
S31500001F8039FD08480068844201D206480460F8BD5D
S31500001F904800002034000020A00E00203C00002055
S31500001FA0380000206400002010B5044600F03EFD15
S31500001FB02B480068401C2A4908602A480068002807
S31500001FC008D1284804600846006801280ED100F0B0
S31500001FD0E7F90BE024480068002807D1214800688B
S31500001FE0C06AE16A884201D81E4804601F4800683A
S31500001FF0401C1E4908601E49E06A0968884202D9E9
S315000020001B49E06A08601422E16A5143194A89189B
S315000020104868A0608268E260211D82685160816024
S315000020201422E16A5143134A8A1862611422E16A52
S315000020305143104A5158491C1423E26A5A430D4B26
S31500002040995000F001FD08480068002807D00548AF
S315000020500068C06AE16A884201D200F05BFD10BDEB
S3150000206044000020340000205000002060000020C2
S315000020704C000020C40D002010B500F0D7FC0D4820
S315000020800068002812D10C4800F0A4FC0B4800F0B0
S31500002090A1FC09480A49086008480A490860002264
S315000020A00C21052000F094FE0249086000F0CCFCEB
S315000020B010BD00007C000020B40E0020C80E0020D9
S315000020C0740000207800002010B516E000F0AEFC89
S315000020D00C48C068C468201D00F062FC0A4800680D
S315000020E0401E0949086009480068401E0749086003
S315000020F000F0AAFC204600F061F8044800680028B9
S31500002100E4D110BD8C0E00204400002040000020C9
S3150000211070B504460D46206C00280ED0216CE06890
S315000021204118E160A168E068884201D32168E16056
S315000021302846226CE168FEF75BF870BDF8B50446E8
S315000021400F46154600200090A66B206C002809D18A
S31500002150206800282ED1A06801F0D8F90090002050
S31500002160A06027E0002D0FD13946226C6068FEF78B
S315000021703FF8216C606840186060A168606888421A
S3150000218018D32068606015E03946226CE068FEF7D7
S315000021902FF8216CE068411AE1602168E068884206
S315000021A003D2216CA068411AE160022D02D1002EF3
S315000021B000D0761E701CA0630098F8BD10B50446CA
S315000021C0206B00F055FC204600F052FC10BD0000CC
S315000021D00146094A12681268002A01D1012200E06C
S315000021E000220A600A68002A04D1034A1268D268EB
S315000021F0106800E0002070477400002030B503230B
S315000022009B0215484407640F002C05D0C01DC0086A
S31500002210C000114C041B1B1B0246104C22600024FC
S315000022200E4D6C60D0180838C008C0000C4C2060F9
S3150000223000240B4D2D686C60094D2D682C601146ED
S31500002240441A4C60064C24680C60064D4C682C60A1
S31500002250054D4C682C6030BDC301002014000020E1
S315000022601C000020240000202000002000BFFFF7F3
S315000022702BFF034800680128F9D900F04BFCF6E76C
S31500002280C40D0020F8B506460D461746069C002DDF
S3150000229001D1246000E02760E66325640121204621
S315000022A000F0C7FDF8BDFFB581B00F460A9E0C9C35
S315000022B0216B0398401E8000081800900098C00803
S315000022C0C000009000984007400F002801D101206F
S315000022D000E00020002802D172B600BFFEE7002F02
S315000022E010D0002508E0795D204634304155785DF0
S315000022F0002800D102E06D1C402DF4D300BF002160
S3150000230073200155072E01D2012000E0002000288D
S3150000231002D172B600BFFEE7072E00D30626E6629C
S315000023206667201D00F063FB2046183000F05FFB57
S3150000233024610720801BA0616462049A01990098B9
S3150000234000F01EFB20600B98002801D00B9804605B
S3150000235005B0F0BDFFB581B006460D4617460B9C8D
S31500002360002D01D0012000E00020002802D172B625
S3150000237000BFFEE7FFF780FE2660A5610498E061D6
S315000023800A982062201D00F032FB002F05D0242081
S31500002390005D042108432421085505B0F0BD000066
S315000023A010B5002406E0142161430E4A881800F097
S315000023B011FB641C072CF6D30B4800F00BFB0B48F3
S315000023C000F008FB0A4800F005FB0A4800F002FB93
S315000023D0094800F0FFFA044808490860034808491C
S315000023E0086010BDC40D0020500E0020640E0020B1
S315000023F0780E00208C0E0020A00E00203800002051
S315000024003C00002010B50146164800E0006803684D
S315000024108B42FBD3024643689B188B4204D1436828
S315000024204C681B19436001460A464B689B180468B2
S31500002430A34211D10C4C03682468A34208D04B6810
S31500002440046864681B194B6003681B680B6005E031
S31500002450054B1B680B6001E003680B60884200D0E7
S31500002460016010BD140000201C000020F8B50446D1
S315000024700D4616461F460020009065602461B54251
S315000024800CD8F01BA169884202D30120009011E00C
S31500002490211D0948006800F0ADFA0BE0BE4204D2E7
S315000024A0BD4202D30120009004E0211D03480068CC
S315000024B000F0A0FA0098F8BD780000207400002013
S315000024C070B5054600F0B2FAA86B002801D10124C8
S315000024D000E0002400F0B8FA204670BD70B505464D
S315000024E000F0A4FAA86BE96B884201D1012400E050
S315000024F0002400F0A9FA204670BD000070B505461C
S315000025000E460E480068C068C468201D00F048FAF0
S315000025102420005D04210840002805D032462946C3
S31500002520204600F0D1F805E02420005DFE21084099
S31500002530242108552046216A884770BD7400002072
S315000025407FB57EE0019800287BDB039C606900284C
S3150000255001D1012000E00020002802D1201D00F05A
S315000025601FFA684600F0DEF8054601980300FFF7FB
S31500002570F3F80A6606083139550709323A6600BF8C
S3150000258000BF00BF2420005D012108432421085517
S315000025900298A269811803462A462046FFF766FF7D
S315000025A0002816D02420005D04210840002807D00A
S315000025B00298A26981182A46204600F085F805E0AF
S315000025C02420005DFE210840242108552046216A6A
S315000025D0884735E000BF2420005DFE210840242105
S315000025E008552DE000BF2420005D01210843242169
S315000025F008550298A061A069002801D0012000E0DA
S315000026000020002802D172B600BFFEE7A06941197A
S315000026102B462A462046FFF729FF11E02420005DBD
S3150000262002210840002803D1204600F021FA05E0E7
S315000026302420005DFE2108402421085500E000BF4B
S3150000264000BF002201A90448006800F069FD0028C7
S3150000265000D077E77FBD00007C000020F8B5054676
S315000026600C4600F03FFB684600F05CF80646009812
S31500002670002822D1002C08D1B54206D801F024F852
S3150000268031462846FFF73AFF19E0002C08D00C48DF
S3150000269000680068002801D1012000E000200446FF
S315000026A0A91B22460748006800F040FA01F00CF822
S315000026B0002804D100F02EFA01E001F005F8F8BD7B
S315000026C0780000207C00002070B504460D461646B2
S315000026D004E0A06945192046216A8847A069411986
S315000026E02B4632462046FFF7C1FE0028F1D170BDC9
S315000026F00A4800680068002801D1012000E0002097
S31500002700002804D00020C0430549086005E00348BE
S315000027100068C068006802490860704738000020F9
S315000027206400002070B5044600F016FE0546074812
S315000027300068854204D200F00BF80120206001E019
S315000027400020206001480560284670BD84000020F6
S3150000275070B508E00D480068C06804680021C943E8
S315000027602046FFF7CBFE094800680068002801D123
S31500002770012000E000200028ECD004480568044849
S315000027800068024908600248056070BD74000020B8
S315000027907800002007480068401C002801D101206D
S315000027A000E00020002802D172B600BFFEE772B634
S315000027B000BFFEE73000002008B500BF6846FFF7FF
S315000027C007FD044620460099FFF748FFFFF7B8FECD
S315000027D0F4E770B5044600F029F94520055713E0E3
S315000027E0606A002801D1012000E00020002808D1FD
S315000027F02046243000F0E4FE002803D000F0EAF979
S3150000280000E003E0681E45B2002DE9DC00BF0021B0
S31500002810C9434520015500F017F900F007F9442097
S31500002820055713E02069002801D1012000E00020AF
S3150000283000280AD12046103000F0C2FE002801D040
S3150000284000F0C8F9681E45B200E001E0002DE9DCA1
S3150000285000BF0021C9434420015500F0F5F870BDC2
S31500002860FEB505460020019000F03CFA3F4800689E
S31500002870002801D1FFF7C2FC002D13D06807400FD6
S315000028801021081A00900021C9430098081AA8428E
S3150000289001D2012000E00020002802D100982D1866
S315000028A000E00025E817401C00284ED0002D4CD033
S315000028B02F480068854248D82E4E3046046801E00D
S315000028C0264624686068A84202D220680028F7D10C
S315000028D026480068844238D0306808300190206865
S315000028E030606068401B102813D967197807400FBD
S315000028F0002801D1012000E00020002802D172B694
S3150000290000BFFEE76068401B786065603846FFF7E9
S3150000291079FD174960680968081A1549086008466C
S31500002920006815490968884203D2114800681249AF
S3150000293008600121C90760680843606000202060C4
S315000029400E480068401C0D49086000F0BDFE019865
S315000029504007400F002801D1012000E00020002898
S3150000296002D172B600BFFEE70198FEBD1C00002032
S315000029702000002014000020240000202800002051
S31500002980001F01231B060360001F0160001F034B8D
S315000029900360143802602038704700009527000055
S315000029A001460A694B68886898608B684868586071
S315000029B05068884201D1886850600020086110681C
S315000029C0401E10601068704701480068704700009C
S315000029D0440000200146083141600021C94381605E
S315000029E001460831C1600161002101607047002184
S315000029F00161704710B502460B685C1C002C01D1C2
S31500002A00106907E01046083000E040684468246812
S31500002A109C42FAD944684C604C68A1608860416069
S31500002A200A611468641C146010BD000072B6054883
S31500002A300068401C03490860BFF34F8FBFF36F8FD8
S31500002A40704700003000002008480068002802D1C6
S31500002A5072B600BFFEE705480068401E03490860DD
S31500002A6008460068002800D162B670473000002092
S31500002A7070B506463546002E30D0083D2C466068B7
S31500002A80C00F002802D172B600BFFEE720680028FA
S31500002A9001D1012000E00020002802D172B600BF5B
S31500002AA0FEE76068C00F002818D02068002815D1FE
S31500002AB0606840004008606000F014F908496068EA
S31500002AC009684018064908602046FFF79BFC054840
S31500002AD00068401C0349086000F0F6FD70BD000068
S31500002AE0200000202C00002010B5002007490861B6
S31500002AF088617D21C90006480068FDF73DFB401E40
S31500002B00024948610720086110BD000000E000E0AE
S31500002B109C0000200120000703494860BFF34F8F47
S31500002B20BFF36F8F7047000000ED00E0F8B5054673
S31500002B300E4617462C46FFF779FF44210857401CDE
S31500002B40002802D100214420015545210857401C88
S31500002B50002802D1002145200155FFF775FFA06B23
S31500002B60002805D13A4631462046243000F04EF87A
S31500002B702046FFF72EFEF8BD70B504460025002C52
S31500002B8014D00D480068002801D1012000E0002083
S31500002B90002802D172B600BFFEE700F0A3F80021BC
S31500002BA02046FFF7AFF900F08FFD0546002D01D155
S31500002BB0FFF7B0FF70BD00007000002003490968F0
S31500002BC00160034909684160704700005C0000200D
S31500002BD04800002001200149086070475800002085
S31500002BE070B504460D46002C02D172B600BFFEE752
S31500002BF00548016818312046FFF7FCFE01212846EA
S31500002C00FFF780F970BD00003400002070B504465F
S31500002C100E461546002C02D172B600BFFEE760686C
S31500002C200F490968C8610E49826809680A620C4939
S31500002C30096818318268516009490968183181604C
S31500002C40074909688C622168491C2160002D01D062
S31500002C500026F64329463046FFF754F970BD0000BA
S31500002C60340000201CB5174800210B464022009175
S31500002C70019015A1164800F02BFB0446012C02D149
S31500002C8000F0EAFD0446012C0DD172B60020C043C7
S31500002C901049086001201049086000200F490860AB
S31500002CA000F068F80AE0601C002801D0012000E06E
S31500002CB00020002802D172B600BFFEE7084800686F
S31500002CC01CBD00006800002049444C45000000007F
S31500002CD06D22000064000020500000204800002003
S31500002CE06C00002002480068401C014908607047DB
S31500002CF0700000201A480068002803D001201949F6
S31500002D0008602CE00020174908601748016805E0B4
S31500002D10002902D172B600BFFEE7491E14204843BF
S31500002D20124A1058002801D1012000E00020002896
S31500002D30EED114224A430D4BD018426852684260C5
S31500002D40024608324368934202D1426852684260A2
S31500002D504268D268064B1A600348016000BF70479C
S31500002D6070000020580000204C000020C40D0020F8
S31500002D703400002010B50B48006AFF2109040843FF
S31500002D80084908620846006AFF2109060843054902
S31500002D900862FFF7A9FE002003490860FDF79CF9C9
S31500002DA0002010BD00ED00E03000002010B5FDF75A
S31500002DB0A7F9044600F0D6FA002803D00120000740
S31500002DC0024948602046FDF79FF910BD00ED00E07E
S31500002DD0F7B582B005460E460024002D21D02946BF
S31500002DE0601EFDF7C9F9B0421BD32846704348213F
S31500002DF0C943884215D82F46774338464830FFF7EF
S31500002E002FFD0446002C11D00194019C2046483029
S31500002E100190009431462846049B019AFFF732FA46
S31500002E2004E0002C02D172B600BFFEE7204605B0D2
S31500002E30F0BDF8B505460E4601272C46002C02D1FA
S31500002E4072B600BFFEE7002C41D0E06B00283ED0F2
S31500002E500020C043E16BFDF78FF9216C884236D321
S31500002E60FFF7E4FD216CE06B484321684018A06041
S31500002E700020A06320686060E06B401E216C484320
S31500002E8021684118E1600021C943442001554520CD
S31500002E900155002E10D12069002801D1012000E043
S31500002EA00020002810D12046103000F089FB0028B1
S31500002EB00AD0FFF72FFE07E020461030FFF78AFD05
S31500002EC020462430FFF786FDFFF7BEFD00E0002711
S31500002ED0002F01D0012000E00020002802D172B6A8
S31500002EE000BFFEE73846F8BDFFB583B006461D466F
S31500002EF0002002903446002C02D172B600BFFEE7D5
S31500002F000498002802D1206C002801D1012000E09D
S31500002F100020002802D172B600BFFEE7022D02D1C2
S31500002F20E06B012801D1012000E00020002802D139
S31500002F3072B600BFFEE700F0FDF9002802D1059841
S31500002F40002801D1012000E00020002802D172B63D
S31500002F5000BFFEE700BFFFF769FDA06BE16B88428B
S31500002F6001D3022D1FD12A4620460499FFF7E6F821
S31500002F700746606A002801D1012000E000200028F1
S31500002F8008D12046243000F01BFB002806D0FFF7AE
S31500002F90C1FD03E0002F01D0FFF7BCFDFFF754FD94
S31500002FA0012007B0F0BD0598002803D1FFF74CFDBE
S31500002FB00020F6E70298002804D16846FFF7FEFDD8
S31500002FC001200290FFF740FDFFF78CFEFFF72EFD74
S31500002FD044210857401C002802D1002144200155F5
S31500002FE045210857401C002802D1002145200155E3
S31500002FF0FFF72AFD05A9684600F02EF9002819D129
S315000030002046FFF76BFA00280ED0204610300599AF
S31500003010FFF7E6FD2046FFF7DCFB00F055FB002836
S3150000302099D1FFF777FD96E72046FFF7D2FB00F030
S315000030304BFB90E72046FFF7CCFB00F045FB00205A
S31500003040AFE7FFB585B007461D463C46002C02D1CA
S3150000305072B600BFFEE70698002802D1206C002851
S3150000306001D1012000E00020002802D172B600BF85
S31500003070FEE7022D02D1E06B012801D1012000E01C
S315000030800020002802D172B600BFFEE7FDF738F82F
S315000030900390A06BE16B884201D3022D38D1452005
S315000030A00657A06B02902A4620460699FFF746F877
S315000030B0701C002814D1606A002801D1012000E0AC
S315000030C0002000280BD12046243000F079FA002891
S315000030D005D00798002802D001210798016014E066
S315000030E0FFF772FC0190019886420DD27F2E01D027
S315000030F0012000E00020002802D172B600BFFEE7E2
S31500003100701C41B24520015500BF0120049001E02A
S31500003110002004900398FCF7F7FF049809B0F0BD6F
S31500003120F7B584B005460E46002003902C46002CC9
S3150000313002D172B600BFFEE7002E02D1206C002835
S3150000314001D1012000E00020002802D172B600BFA4
S31500003150FEE700F0EFF8002802D10698002801D11A
S31500003160012000E00020002802D172B600BFFEE771
S3150000317000BFFFF75BFCA76B002F1AD03146204635
S31500003180FEF7C6FF781EA0632069002801D1012042
S3150000319000E00020002807D12046103000F010FA89
S315000031A0002801D0FFF7B6FCFFF74EFC012007B060
S315000031B0F0BD0698002803D1FFF746FC0020F6E78D
S315000031C00398002804D101A8FFF7F8FC012003901A
S315000031D0FFF73AFCFFF786FDFFF728FC4421085766
S315000031E0401C002802D100214420015545210857E2
S315000031F0401C002802D1002145200155FFF724FC80
S3150000320006A901A800F028F8002819D12046FFF7E2
S3150000321057F900280ED0204624300699FFF7E0FC27
S315000032202046FFF7D6FA00F04FFA0028A1D1FFF7A3
S3150000323071FC9EE72046FFF7CCFA00F045FA98E7C6
S315000032402046FFF7C6FA00F03FFA2046FFF738F9A6
S3150000325000288ED00020AAE770B505460C46002D42
S3150000326002D172B600BFFEE7002C02D172B600BFD3
S31500003270FEE7FFF7DBFB144802686868131A20684C
S31500003280401C002801D1002619E010492868096869
S31500003290884206D06868904203D801260020206044
S315000032A00DE02068984207D92068C01A2060284699
S315000032B0FFF784FC002602E0002020600126FFF7CD
S315000032C0C3FB304670BD0000480000205C000020B3
S315000032D0FFB585B01746B800FFF7C2FA0646002EBE
S315000032E00FD08420FFF7BCFA0446002C05D08421B9
S315000032F02046FCF796FF266304E03046FFF7B8FB4E
S3150000330000E00024002C10D000220F990E986B4686
S3150000331013C303923A46089B06990598FEF7C3FF26
S315000033202046FEF741FE012501E00025ED43284633
S3150000333009B0F0BD06490968002901D1012006E05F
S3150000334004490968002901D1022000E000207047E5
S3150000335050000020700000200149086870470000F6
S3150000336048000020F8B5002000905D48006800285D
S315000033707ED15C480068451C5A480560002D1CD16A
S31500003380594800680068002801D1012000E00020AB
S31500003390002802D172B600BFFEE7534807685348BB
S315000033A00068514908605148076051480068401C50
S315000033B04F490860FFF79CF900BF4E4800688542F8
S315000033C075D300BF484800680068002801D1012075
S315000033D000E00020002804D00020C04345490860D2
S315000033E064E041480068C068C4686668B54202D2B5
S315000033F0404806605AE06069E268A1688A60A2688F
S31500003400E1684A60211D42688A4201D1E168416053
S31500003410002262610168491E0160A06A002813D07B
S31500003420A06A226AE1698A60E269216A4A602146E5
S31500003430183142688A4201D1216A41600022A262A3
S315000034400168491E016000BF2B49E06A096888428D
S3150000345002D92949E06A08601422E16A5143274AE1
S3150000346089184868A0608268E260211D826800E0D1
S315000034702FE0516081601422E16A51431F4A8A1885
S3150000348062611422E16A51431C4A5158491C1423B3
S31500003490E26A5A43194B99501949E06A0968C96AA0
S315000034A088428FD9012000908CE700E000BF1448C5
S315000034B00068C06A1421484310490858012801D9F8
S315000034C0012000900F480068002801D001200090DC
S315000034D004E00D480068401C0B4908600098F8BDE0
S315000034E07000002048000020380000203C0000202A
S315000034F05C000020640000204C000020C40D002069
S3150000350034000020580000205400002070B5054605
S315000035102C460026002D4BD026480068844201D157
S31500003520012000E00020002802D172B600BFFEE7AD
S31500003530A06F002802D172B600BFFEE7A06F401E42
S31500003540A067616FE06A884232D0A06F00282FD151
S31500003550201DFFF725FA606FE0620721E06A081A6E
S31500003560A0611549E06A0968884202D91249E06AF1
S3150000357008601422E16A5143104A89184868A0601D
S315000035808268E260211D8268516081601422E16ACE
S3150000359051430A4A8A1862611422E16A5143074A72
S315000035A05158491C1423E26A5A43044B9950012688
S315000035B0304670BD340000204C000020C40D0020B1
S315000035C070B50346D868C168002902D172B600BF3B
S315000035D0FEE7886A0D6ACC69A560CD690C6A6560EC
S315000035E00C4618344568A54201D10C6A4460002592
S315000035F08D620468641E04602D480068002838D176
S315000036004869CD688C68A5608D68CC6865600C1DBE
S315000036104568A54201D1CC68446000254D61046827
S31500003620641E0460234CC86A2468A04202D9214C57
S31500003630C86A20601425CC6A6C431F4D6419606803
S3150000364088608568CD600C1D85686C608460142573
S31500003650CC6A6C43184D65194D611425CC6A6C43D0
S31500003660154D2C59641C1426CD6A7543124E74519F
S3150000367010E0124C6068C86185680D620C4618340B
S3150000368085686C6084600D4D8D622C462468641CD0
S315000036902C6000BF0A4CC86A2468E46AA04204D9B8
S315000036A001220120074C206000E00022104670BD78
S315000036B0700000204C000020C40D0020780E002071
S315000036C0340000205800002070B5002400254D4825
S315000036D00068002802D172B600BFFEE7FFF7A6F920
S315000036E048480068401E47490860084600680028A8
S315000036F07ED14548006800287FD056E04348C06820
S31500003700C468A06A226AE1698A60E269216A4A603D
S315000037102146183142688A4201D1216A416000225D
S31500003720A2620168491E01606069E268A1688A6058
S31500003730A268E1684A60211D42688A4201D1E168B7
S315000037404160002262610168491E01603049E06AF9
S315000037500968884202D92E49E06A08601422E16AA3
S3150000376051432C4A89184868A0608268E260211D8E
S315000037708268516081601422E16A5143254A8A18A1
S3150000378062611422E16A5143224A5158491C1423AA
S31500003790E26A5A431F4B99501F49E06A0968C96A91
S315000037A0884202D301201D49086018480068002895
S315000037B001D1012000E0002000289FD0002C01D07C
S315000037C0FEF796FF16480668002E0DD000BFFFF7DD
S315000037D0C9FD002802D0012010490860761E002E7F
S315000037E0F5D100200E4908600C480068002800E06A
S315000037F003E002D00125FFF78DF9FFF725F92846EA
S3150000380070BD00007000002044000020780E0020EB
S315000038104C000020C40D0020340000205800002079
S3150000382054000020FFB583B005460E460C9F2820A5
S31500003830FFF716F80446002C0AD000212420015573
S315000038400097019431462846069B059AFEF782FDAD
S31500003850204607B0F0BD00001CB50024FEF70CFCA6
S315000038600A48006800280AD0094800210B46402271
S315000038700091019007A10948FFF72AFD0446002C94
S3150000388002D172B600BFFEE720461CBD7C000020B8
S3150000389080000020546D722053766300B927000023
S315000038A0F0B585B004460D4616461F460020039027
S315000038B0002C02D172B600BFFEE71548006800284A
S315000038C022D0009501960294062D15DAFFF732FDF7
S315000038D0022808D1002369460D480A9A0068FFF7B6
S315000038E003FB039010E000231A4669460848006867
S315000038F0FFF7FAFA039007E000233A4669460448C0
S315000039000068FFF79EFB0390039805B0F0BD00002A
S315000039107C00002001460A46002902D172B600BF8B
S31500003920FEE79069704700000000000054545220E2
S315000039305245474745530000583900000000002013
S31500003940A80000000C180000003A0000A8000020A3
S31500003950701100001C1800000000000000000000AC
S315000039600000000000000000000000000000000051
S315000039700000000000000000000000000000000041
S315000039800000000000000000AAAAAAAA0000000089
S315000039900000000000000000000000000000000021
S315000039A00000000000000000000000000000000011
S315000039B00000000000000000000000000000000001
S315000039C000000000060000000000000000000000EB
S315000039D000000000000000000000000000000000E1
S315000039E000000000000000000000000000000000D1
S315000039F00000000000D8B80500000000000000002C
S705000000C139
