S31500000000C01A002051010000DD0B00003D07000072
S3150000001000000000000000000000000000000000DA
S315000000200000000000000000000000009F14000017
S3150000003000000000000000000F010000791500001C
S31500000040F71D0000F91D0000FB1D0000FD1D00004E
S31500000050A7050000A905000005080000AB05000083
S315000000608D1C00003B0700009D1400009303000058
S3150000007069010000110B0000D51C00004B050000B3
S315000000806901000069010000A5050000A103000048
S3150000009069010000000000000000000000000000F0
S315000000A0000000000000000000000000000000004A
S315000000B0000000000000000000000000000000003A
S315000000C00448854600F042F9004800471128000020
S315000000D0C046C046C01A0020084B19680868203080
S315000000E080F30988022080F31488BFF36F8F3FBC2A
S315000000F0AE4608BC04BC62B61847000030000020BB
S31500000100EFF3108072B6704780F310887047EFF3F4
S3150000011009800E4B1A6820381060F0C044464D46E0
S3150000012056465F46F0C008B572B603F0C3F862B62D
S315000001300CBC116808681030F0C8A046A946B24643
S31500000140BB4680F309882038F0C8184730000020E5
S31500000150064880F308880648804706480047FEE7B9
S31500000160FEE7FEE7FEE7FEE7FEE70000C01A002016
S3150000017095150000C100000030B50B460146002071
S315000001802022012409E00D46D5409D4205D31D4697
S315000001909540491B2546954040191546521E002D8F
S315000001A0F1DC30BDF8B500242546002904DA0E46F8
S315000001B0012400214042B141002B04DA1E460023EF
S315000001C052420125B34100F081F88C4617461E467F
S315000001D0AC4203D0002540428D41AC46002C02D0F3
S315000001E0002657429E4161463A46334601B0F0BD6D
S315000001F0F0B51FB486B000200090019002900698DA
S31500000200069980B204900798090C02040014114361
S3150000021007900027089D099806913E463C460390A4
S315000002200398A9B20204000C039004982D0C154300
S3150000023048430021224600F079F8C719714110346D
S315000002400E46402CECDB3846029A00F06FF8009A16
S31500000250019B80180090594102980191103002903C
S315000002604028CCDB00980BB0F0BD03460B439B0740
S3150000027003D009E008C9121F08C0042AFAD203E015
S315000002800B780370401C491C521EF9D27047D2B23B
S3150000029001E00270401C491EFBD270470022F6E7BF
S315000002A010B513460A4604461946FFF7F0FF2046E6
S315000002B010BD30B504460020034600E05B1C9342A7
S315000002C003D2E05CCD5C401BF8D030BDF0B51FB466
S315000002D00646002082B005464024019100901BE0AE
S315000002E0019922460F46304600F042F8049A059BD3
S315000002F0801A994110D310461946224600F016F886
S31500000300361A8F410197224601200021009F00F0F6
S315000003100DF838184D4100902046641E0028DFDC99
S31500000320019B00982946324607B0F0BD10B5202A39
S3150000033004DB0146203A9140002010BD9140202365
S315000003409C1A0346E3401943904010BD064C012514
S31500000350064E05E0E36807CC2B430C3C9847103467
S31500000360B442F7D3FFF7B0FE783D0000983D000099
S3150000037010B5202A04DB0846203AD040002110BDE3
S315000003800B46D340D0402024A21A91400843194678
S3150000039010BD70470148C068704700000034014036
S315000003A070B5FFF7F7FFC4B20C4D60070CD54021BE
S315000003B00B4800F039F80028A87D02D00121084337
S315000003C001E040084000A875E00706D0034B6A1D0F
S315000003D00E330248291D00F02BF870BD28010020BD
S315000003E00034014070B50D4604460121802001F01D
S315000003F09FF80C48016801221143016069682020BA
S315000004000029616801D0014300E081436160A8686A
S315000004106063E868A0612869E0612868206068690F
S31500000420206170BD003401408068C9B20840704741
S31500000430F0B52C4FBC68E40751D03C6864086400F2
S315000004403C60284D40352C68E4B2260623D50126AB
S315000004500E706968AE68490576033143EE68760129
S3150000046031432E69F60831430160600601D501204B
S3150000047000E00020107068691870A8695870E86973
S315000004809870286AD870686A1871A86A5871E86AFC
S315000004909871286B1CE000260E70610602D50121BA
S315000004A0117000E016706968AA68C9005209114304
S315000004B00160E86818702869587068699870A869BA
S315000004C0D870E8691871286A5871686A9871A86ABC
S315000004D0D87178680421084378600020F0BDFF20B9
S315000004E0F0BD00000034014070B50F4D0646286887
S315000004F0002440084000286031460C48FFF73CFEC7
S3150000050001E000BF641C8442FBD328681021084325
S31500000510286031460648FFF72FFE002101E000BFA4
S31500000520491C8142FBD370BD003401400094110088
S3150000053000E71800002141607822826001600522F0
S31500000540C2601C2202614161704770470346002069
S3150000055010B5421E002B0AD0002908D0002203E065
S315000005609C5C2018C0B2521C8A42F9DB10BD1046B2
S3150000057010BD000000B5094A07481063D005416B5D
S31500000580C31319434163FF20F53000F0E3FF04482D
S3150000059010600020106300BD837A000080000040D8
S315000005A0FF010000704770477047704770B5002321
S315000005B001252A460C689A40144094422ED10C79A3
S315000005C0002C04D0012C07D0022C0DD012E00468B8
S315000005D01646264306600AE00468944304604468AD
S315000005E016462643466005E0046894430460446862
S315000005F0944344604C79012C02D0002C05D007E0CE
S31500000600046916462643066102E0046994430461C0
S3150000061084698E68012E05D0944384615B1C102B7F
S31500000620C7D370BD1443F8E7F0B5324F1601150273
S3150000063014030B0001F064FD10090D13181E222887
S315000006402D33373D42484C52571D016A39408918AF
S315000006500EE0016A274AE13A1140711808E0016A82
S31500000660254A1140691803E0016A0905090D611858
S315000006700162F0BD416A394089180EE0416A1D4A9F
S31500000680E13A1140711808E0416A1B4A11406918A5
S3150000069003E0416A0905090D61184162F0BD816AEE
S315000006A0394089180EE0816A124AE13A1140711800
S315000006B008E0816A104A1140691803E0816A090559
S315000006C0090D61188162F0BDC16A394089180EE0D2
S315000006D0C16A084AE13A1140711808E0C16A064A3F
S315000006E01140691803E0C16A0905090D6118C16264
S315000006F0F0BD0000F0FF0000FFF000000246D268E7
S3150000070000200A4200D00120704700B5002200F008
S315000007100CF800BD00B5012200F007F800BD00216D
S3150000072001600171417181607047002AC26801D081
S315000007300A4300E08A43C26070477047044C054D87
S31500000740204600F007FF0121284600F05CF8F7E795
S3150000075000A8610000200140FEB572B61848194D88
S31500000760286319480168C212114301606846FFF701
S31500000770D6FF012069460871009000244C71134889
S31500000780FFF714FF01F010F800F090FF01F092F966
S3150000079001F0EAF87D26F600304600F0DBFE2C6319
S315000007A062B60B4801F0FCF8002806D009A001F05B
S315000007B097FC304600F0CEFEFEBD0CA0F7E7000029
S315000007C0837A0000800000400004004000200140C1
S315000007D0E02E00005379735469636B20436F6E6695
S315000007E0696720457272210D0A000000537973541F
S315000007F069636B20436F6E666967204F6B210D0A34
S3150000080000000000704770B50C460546FFF776FFFE
S3150000081000282146284603D0FFF777FF002070BD49
S31500000820FFF778FF012070BD7CB53D487D21009023
S3150000083000230122C9003BA003F0E8F93C4C002844
S31500000840206060D03BA001F04BFC03F011F802469B
S31500000850FF20F530009000230121206803F022FAE2
S315000008606061002851D03BA001F03AFC02F000FC88
S315000008702F490520091D01910090002380223DA1EA
S31500000880414802F0BBFFA061012840D03FA001F023
S3150000089027FC00252648A5610830042601902B4632
S315000008A0402242A10096464802F0A8FFA061012816
S315000008B02FD044A001F014FC1D49A5610C3106207F
S315000008C0019100900023802246A14B4802F096FF3A
S315000008D0A06101281FD049A001F002FC1448A561BF
S315000008E010300190002340224CA10096504802F09F
S315000008F085FFA061012810D04EA001F0F1FBA56193
S3150000090002F0C2FB7CBD53A0AEE75AA0ACE760A0E4
S31500000910BDE767A0CEE76EA0DEE775A0EDE70000B5
S31500000920691500005379734C656454696D657200EE
S31500000930840000207379734C656454696D65722078
S315000009404372656174652053756363656564210D43
S315000009500A0000007379734C656454696D657220F2
S3150000096053746172742053756363656564210D0A5F
S315000009700000000054435F34383552785461736B7D
S3150000098046756E63000000009D15000074633438E0
S315000009903552785461736B204372656174652046E5
S315000009A061696C6564210D0A0000000054435F34E0
S315000009B0383554785461736B46756E6300000000D9
S315000009C029160000746334383554785461736B20EB
S315000009D0437265617465204661696C6564210D0A20
S315000009E00000000054435F43414E52785461736BDC
S315000009F046756E63000000002517000074634361AE
S31500000A006E52785461736B2043726561746520463B
S31500000A1061696C6564210D0A0000000054435F4360
S31500000A20414E54785461736B46756E630000000046
S31500000A3031170000746343616E54785461736B2000
S31500000A40437265617465204661696C6564210D0AAF
S31500000A50000000007379734C656454696D657220FB
S31500000A60437265617465204661696C6564210D0A8F
S31500000A70000000007379734C656454696D657220DB
S31500000A805374617274204661696C6564210D0A00B5
S31500000A90746334383552785461736B2043726561E0
S31500000AA074652053756363656564210D0A00000053
S31500000AB0746334383554785461736B2043726561BE
S31500000AC074652053756363656564210D0A00000033
S31500000AD0746343616E52785461736B20437265612F
S31500000AE074652053756363656564210D0A00000013
S31500000AF0746343616E54785461736B20437265610D
S31500000B0074652053756363656564210D0A000000F2
S31500000B1070470000F0B52F4E059FB56800246D079D
S31500000B2055D535686D086D003560CD0192012A43B3
S31500000B30D5B2284A3D4340321560002921D0C10074
S31500000B40090E5160C102090E9160C104090ED160FF
S31500000B50C006000E10611878506158789061987838
S31500000B60D061D87810621879506258799062987975
S31500000B70D062D879106330684007706818D51021A4
S31500000B8017E04105090E51604007000E9060187885
S31500000B90D0605878106198785061D878906118794B
S31500000BA0D0615879106298795062D8799062E2E7FC
S31500000BB0012108437060084804E02146641CA4B281
S31500000BC0814204D2B1680907F7D50020F0BDFF20A5
S31500000BD0F0BD000000340140FF0F0000FEE70000FA
S31500000BE0F8B5074616481C46007815460E460028F6
S31500000BF001D101F005F9EFF31082012080F310888E
S31500000C000F490020182343435B18DB69002B03D0F0
S31500000C100B69401C8342F5DC0B6983420ADD18230D
S31500000C20434359188F61CE610D6200238B624B627C
S31500000C30CC6201E00020C043D1B281F31088F8BD38
S31500000C40F8120020F8B5044613481D4600781646EB
S31500000C500F46002801D101F0D3F80F48032C17D214
S31500000C60EFF31081012282F31088182262431018D4
S31500000C706030002C05D00760466085600022026166
S31500000C80C260069A4261C8B280F310880020F8BD9F
S31500000C900020C043F8BD0000F8120020FEB516463D
S31500000CA01D4A054610780C46002801D101F0A8F827
S31500000CB018204543184800942D182C6FE86E00271D
S31500000CC060350190844213D9A868071BB74200D348
S31500000CD0374668683A4601190098FFF7C6FA009841
S31500000CE0F61BC0190090A868E419A04200D10024A0
S31500000CF00198001BB04200D20646002E07D0686855
S31500000D00324601190098FFF7B0FABF19A419002F4F
S31500000D1000D02C613846FEBDF8120020F8B50F460B
S31500000D2018214843174916464418A16A656AE069BE
S31500000D3018344019A94218D8A268531B5A1EB24249
S31500000D4001D3324615E05118B14219D31D461A4651
S31500000D503946FFF78AFA2B46761B04D0F918324635
S31500000D606068FFF782FAE66008E0491B491EB14257
S31500000D7006D33946FFF779FAA819E0600120F8BDD5
S31500000D800020F8BDF812002010B50848054B016890
S31500000D90054A084600F046F80120400700F0AEFA82
S31500000DA010BD0000AD210000F43C0000A8000020AA
S31500000DB070B5EFF31084012080F3108818480546BB
S31500000DC02F3D014680236A6804E016461E430E70D6
S31500000DD0D209491C7F2AF8D80A70AA6803E0164689
S31500000DE01E430E70D209491C7F2AF8D80A702A6958
S31500000DF003E016461E430E70D209491C7F2AF8D816
S31500000E000A7000224A701822891C01F099F8E0B293
S31500000E1080F31088686A002800D0804770BD000003
S31500000E20DF170020FFB516460F46012281B00023CA
S31500000E3052020E490EA0FFF7D3FE0F4CC0B26070EF
S31500000E402076002508230D4A09A10095FFF7FAFE32
S31500000E50256100F0E5FA2662E0600198A76060600F
S31500000E6004986062257005B0F0BD0000B015002042
S31500000E705379735669657700B0170020BC000020CF
S31500000E8010B5EFF31084012080F310880448112276
S31500000E90014601F055F8E0B280F3108810BD00005D
S31500000EA0DF17002070B50146EFF31084012080F3B0
S31500000EB010880C4802462F3A12698A1A0146802584
S31500000EC004E013462B430B70D209491C7F2AF8D83D
S31500000ED00A700822491C01F033F8E0B280F310884A
S31500000EE070BD0000DF17002070B50146EFF31084D7
S31500000EF0012080F310880C4802462F3A12698A1A9C
S31500000F000146802504E013462B430B70D209491C89
S31500000F107F2AF8D80A700422491C01F011F8E0B2C1
S31500000F2080F3108870BD0000DF17002070B5014601
S31500000F30EFF31084012080F310880C4802462F3A04
S31500000F4012698A1A0146802504E013462B430B706A
S31500000F50D209491C7F2AF8D80A700622491C00F0DB
S31500000F60EFFFE0B280F3108870BD0000DF170020AD
S31500000F7010B50A48006A002809D00068002806D083
S31500000F8080470A4601460D2000F028F810BD00F003
S31500000F9047FA01460C2000F003F810BDB0170020F8
S31500000FA070B50246EFF31084012080F310880A48DA
S31500000FB08026054604E00B4633430370C909401CEE
S31500000FC07F29F8D80170411C284600F0B9FFE0B22D
S31500000FD080F3108870BD0000DF170020F8B50546C5
S31500000FE0EFF31084012080F310880F488023064613
S31500000FF004E00F461F433770C909761C7F29F8D8CD
S315000010003170711C04E016461E430E70D209491C4D
S315000010107F2AF8D80A702A46491C00F091FFE0B2F0
S3150000102080F31088F8BD0000DF170020F8B584466D
S31500001030EFF31085012080F31088134880260446BC
S3150000104004E00F4637430770C909401C7F29F8D8CA
S31500001050017003E0114631430170D209401C7F2A1A
S31500001060F8D8027003E0194631430170DB09401CD1
S315000010707F2BF8D80370411C6246204600F060FFC3
S31500001080E8B280F31088F8BDDF170020F8B5844673
S31500001090EFF31085012080F3108818488026044657
S315000010A004E00F4637430770C909401C7F29F8D86A
S315000010B0017003E0114631430170D209401C7F2ABA
S315000010C0F8D8027003E0194631430170DB09401C71
S315000010D07F2BF8D80370069A03E01146314301705E
S315000010E0D209401C7F2AF8D80270411C624620466D
S315000010F000F026FFE8B280F31088F8BDDF17002065
S3150000110010B50246EFF31084012080F310880448DE
S31500001110014600F015FFE0B280F3108810BD000014
S31500001120DF17002070B51B494A68002A30D000211D
S3150000113003E01269002A2BD0491C8142F9D3EFF350
S315000011401085012181F31088134980260C4604E09E
S31500001150034633430B70C009491C7F28F8D8087032
S315000011604B1C906804E0014631431970C0095B1CB2
S315000011707F28F8D818701168581C802200F074FE79
S3150000118001461622204600F0DBFEE8B280F3108806
S3150000119070BD0000B4000020DF17002010B5054820
S315000011A04468002C05D0E068002800D080472469F8
S315000011B0F7E710BDB400002070B5EFF310840120EE
S315000011C080F310880A480B4A01461278802504E00D
S315000011D013462B430B70D209491C7F2AF8D80A7094
S315000011E01B22491C00F0ACFEE0B280F3108870BDF3
S315000011F0DF170020B400002070B5EFF31085012141
S3150000120081F31088074C01468022204600F02CFE10
S3150000121001460E22204600F093FEE8B280F31088C5
S3150000122070BD0000DF170020F8B50446EFF3108705
S31500001230012080F310882A49226808462F38006961
S315000012400D46101A802604E0024632430A70C00991
S31500001250491C7F28F8D808704B1CA06804E001469A
S3150000126031431970C0095B1C7F28F8D81870581CC8
S315000012702022616800F0F8FD01460922284600F0A8
S315000012805FFE174822682F3800692946101A04E0C5
S31500001290024632430A70C009491C7F28F8D80870F4
S315000012A0E06803E0024632430A70C009491C7F2801
S315000012B0F8D80870206903E0024632430A70C00974
S315000012C0491C7F28F8D80870002048701522284647
S315000012D0891C00F035FEF8B280F31088F8BD0000D6
S315000012E0DF1700200448006A002803D04068002861
S315000012F000D0004770470000B01700200149086180
S3150000130070470000B017002001490969401A70476C
S31500001310B017002070B5264D01262E70EFF310840D
S3150000132086F3108868780A222249FFF7F7FCE0B2B4
S3150000133080F310880A20FFF7E3FEEFF3108486F3AC
S31500001340108828462F30014680236A6804E0164636
S315000013501E430E70D209491C7F2AF8D80A70AA6863
S3150000136003E016461E430E70D209491C7F2AF8D8A0
S315000013700A702A6903E016461E430E70D209491CFC
S315000013807F2AF8D80A7000224A701822891C00F0B9
S31500001390D7FDE0B280F31088686A002800D0804745
S315000013A0FFF7E6FDFFF79EFFFFF706FF70BD0000A3
S315000013B0B01700200D3D000070B5EFF3108401203A
S315000013C080F31088074805462F3D2978002905D067
S315000013D00B22014600F0B4FD00202870E0B280F335
S315000013E0108870BDDF17002070B5EFF3108501215E
S315000013F081F31088094C01468022204600F034FD16
S315000014000121017000214170811C1A22204600F042
S3150000141097FDE8B280F3108870BD0000DF1700204A
S31500001420044948698969401C421A034909684143CD
S315000014308818704700E000E0B0000020F0B5164CB8
S31500001440079F25680126354325602568082635430C
S315000014502560D5074205160EDB070F4ADB0F403223
S3150000146016604007000EED0E284350600598906008
S31500001470D7604805000E10614807000E19010843A1
S315000014800F305061069890610898D0612068400836
S3150000149040002060F0BD00000034014070477047F6
S315000014A0FFB50E4681B005461F46052211A13046FE
S315000014B00A9CFEF7FEFE002806D0104B1868082886
S315000014C004D30F48FFF790FF05B0F0BD1421414348
S315000014D00C4A401C555089184E60039ACF600C6127
S315000014E08A6018603B46009431462846039A00F00D
S315000014F00BF8E9E749444C4500000000AC00002029
S31500001500283D000058120020F0B585B00D4604466F
S315000015101F46164614216846FEF7C0FE6846F0C010
S315000015200A9804906846FFF77FFE05B0F0BD0000FC
S31500001530074A064B13630029D16901D0014300E035
S315000015408143D1610020106370470000837A000058
S315000015508000004008B500210091814202D200BF00
S31500001560491CF9E708BD000010B501210148FFF745
S315000015704AF910BD0020014010B505480168491C14
S31500001580016002F065F9012801D001F0E1FE10BD0D
S31500001590B000002000B5FEF7EDFF00BD00F006F834
S315000015A07D24E400204601F0E3FDFBE7F8B50027C3
S315000015B0FF4369460F80194DE868EE143043E86032
S315000015C0174CAA202070082060701221A170E070CC
S315000015D0012020710020607106212046FEF7B6FF2B
S315000015E0694608800020085E401C0DD00888A0715E
S315000015F0072221460B4800F00FFA401CE86808D085
S31500001600B043E8600020F8BDE868B043E860032016
S31500001610F8BDB043E8603846F8BD00000020014040
S315000016200200002000280140FFF7C0FF7D24E400EF
S31500001630204601F09DFDFBE7FEB56846FFF76FF813
S315000016400025684605710120C00300900124684604
S31500001650154E447169463046FEF7A8FF6846FFF707
S315000016605EF868460471104F00944571403769462C
S315000016703846FEF79BFF04220F213046FEF7D4FFC3
S31500001680042200213846FEF7CFFF6846FFF747F8E9
S3150000169068460471E0020090684645716946304626
S315000016A0FEF784FFFEBD00000020014070B50F4C20
S315000016B0E068E5142843E060FFF7BEFF00F01CF881
S315000016C000F090F9E068A843E0600A210848FEF7B8
S315000016D0E5FD00F0CDF80648002101724172054A89
S315000016E0C26001220274417470BD000000200140F6
S315000016F014010020812700001FB5684600F06CFB2E
S31500001700E12000020090002001901B206946044C55
S315000017100873204600F0FEFAFF21E1611FBD0000BC
S31500001720002801407D24E400204601F021FDFBE76E
S3150000173008B508247D25ED000022054B114608203A
S315000017400094FFF7E7F9284601F012FDF4E70000E0
S31500001750A00000203EB56846FEF7E1FF6846FEF7AA
S31500001760DEFF01206A46107120200E4C009069466B
S315000017702046FEF71BFF6846FEF7D1FF00216A46AA
S3150000178011711021009169462046FEF70FFF0A22CB
S3150000179005212046FEF748FF0A2204212046FEF7CF
S315000017A043FF3EBD8020014010B58AB004A8FEF775
S315000017B0C1FE0B2007901C200890012005903220C6
S315000017C0002406900494EF20099004A90A48FEF725
S315000017D009FE2320812100230091029001941A46DC
S315000017E0039419462F20FFF729FEFFF7B3FFFA20CF
S315000017F0FEF77AFE0AB010BD0034014031B5154C33
S31500001800154D207A28706846007800F075F86870E3
S3150000181028782246C100503A8B1811460CCB0B662D
S31500001820CA65617C814205D16946681C904728706B
S3150000183020720DE009A000F053FC0A210548FEF7CE
S315000018402DFD0020207260720849E160012121749B
S31500001850607438BD140100200000002054435F4628
S31500001860736D43726173680D0A00000081270000E2
S31500001870174816490160002141711649816001210E
S3150000188041731549016102214175144981610321A2
S315000018904177134901620146042220314A71114AF7
S315000018A0826205224A73104A026306224A750F4A6B
S315000018B0826307224A770E490164014608224031B5
S315000018C04A710C4A826409204873704781270000D8
S315000018D0C400002055270000D1270000192700006A
S315000018E0F12700009D270000C9260000E126000020
S315000018F0B52700003927000010B504461948007ABC
S31500001900030000F0FDFB082C091115191D1F212CE1
S31500001910012010BD002010BDAA2CF9D0122C01D137
S31500001920022010BD092010BD082CFBD1032010BDDC
S31500001930102CF7D1042010BD022CF3D1052010BDC8
S31500001940062010BD072010BD07210648FEF7FEFD44
S31500001950411CDFD0C0B2A042E4D1082010BDAA2CA1
S31500001960D8D1D5E71401002010B502210A4800F0AD
S31500001970C5F90021082000F0DDFB082000F0CEFBB1
S315000019800121064800F0BAF90D210E2000F0D2FB25
S315000019900E2000F0C3FB10BD00280140002C0140C2
S315000019A00E4910B5401E884201D9012010BD0C4CCD
S315000019B060610F21601700F0BDFB0020A061206967
S315000019C0042188432061206902210843206120699F
S315000019D0012108432061002010BD0000FFFFFF0029
S315000019E000E000E010B58EB0684600F03DF908480A
S315000019F0069003200B900120064C0C906946204669
S31500001A0000F0B0F80121204600F06CF80EB010BDD1
S31500001A10C05D000000180140F8B517460E000546E7
S31500001A2004D0E869C007FCD100240EE00020C043C2
S31500001A30F8BD315D284600F0CDF96869C007FCD0D5
S31500001A40315D04A000F04CFB641CBC42F1DB0020BD
S31500001A50F8BD000025303258200000003EB568462B
S31500001A60FEF75DFE002468460471802000906846FB
S31500001A700F4D447169462846FEF798FD6846FEF705
S31500001A804EFE01216846017140200090684644716F
S31500001A9069462846FEF78AFD042207212846FEF7F6
S31500001AA0C3FD042206212846FEF7BEFD3EBD00000A
S31500001AB0002001401FB5FFF7D1FF684600F08CF902
S31500001AC0E120000200900020019003206946044CAA
S31500001AD00873204600F01EF9FF21E1611FBD0000DA
S31500001AE0002C0140F0B51E4D1D4E1D4F1C4A102402
S31500001AF0A03D2023803EC03F002918D0B84202D125
S31500001B00106B204303E0A84203D1106B1843106307
S31500001B10F0BDB04203D1116B4020014316E01049DD
S31500001B2060398842F4D1106B80210843EFE7B84250
S31500001B3002D1106BA043EAE7A84202D1106B98438A
S31500001B40E5E7B04204D1116B402081431163F0BD3B
S31500001B50034960398842FAD1106B80218843D6E761
S31500001B60C0180140F8B50C46054601210420FFF7D0
S31500001B70DFFC2168606889000843A1682269C90002
S31500001B80120111430843E168890108436169C901EB
S31500001B900843E16A090208432860A0696860E069B1
S31500001BA0E860206A28612F48026B416BA08C2D4F9C
S31500001BB00307208D2B4E00071B0F000FC03F403E32
S31500001BC0BD420DD110252A43CD08216BED00346AA4
S31500001BD02943FF252D022C401C430001204311E020
S31500001BE0204FA03FBD420FD120252A430D46216B31
S31500001BF03827BD43C900346A29431B02E4B2234394
S31500001C0000031843306228E0164F803FBD4210D1D2
S31500001C1040252A430D46FF27C137216BBD43890165
S31500001C20746A2943FF252D022C401C4300012043E2
S31500001C3012E00C4F603FBD420FD180252A430D466E
S31500001C4007277F02216BBD434902746A29431B02A1
S31500001C50E4B22343000318437062024802634163FF
S31500001C60F8BD0000C018014000214160016081609C
S31500001C7001617D22C160D200826141615210C26160
S31500001C8041628162C16202620163704738B50F4CDE
S31500001C90E069000701D50820E061E069C00601D5CA
S31500001CA01020E061E069800707D50220E061E06866
S31500001CB0694608700878FFF7A1FDE069C00703D000
S31500001CC00120E0610249087038BD0000002801408B
S31500001CD00900002010B5084C0121204600F010F83C
S31500001CE0002803D00121204600F008F8E0698007AB
S31500001CF001D50220E06110BD002C0140C161704792
S31500001D00C269806902400A4201D001207047002062
S31500001D1070470000FEB5054629480C46854202D1AB
S31500001D200121102004E02748854203D1012120200B
S31500001D30FFF7FEFB00263346234831462268FEF7AE
S31500001D4031FA0122002300910190FEF72BFA1F4F72
S31500001D5006E0B21C0023761C00990198FEF722FAD1
S31500001D60B842F6D81A498E61401EC1B2A960000475
S31500001D70000E6860E079012802D002281DD00020FC
S31500001D800021637922795B001A43A379C9009B007D
S31500001D900B431A4300010243207A40010243607A52
S31500001DA0800102432A60607BA17B400008432862D1
S31500001DB060892861207BA861FEBD01200146E0E71D
S31500001DC000280140002C014000D8B805FFFF0000A4
S31500001DD080000040C16070474B21C90101600021AD
S31500001DE0017141718171C171017241724181017349
S31500001DF041738173704770477047704770470000A2
S31500001E0010B5134CA8212046FEF748FA032020619E
S31500001E10606110A0A0612046A830E0610120400268
S31500001E2020620020A0626062E0620AA121660C497D
S31500001E3061661021A1662067E0666067094A0F2186
S31500001E400B1AD35C2354401C1028F9D310BD000094
S31500001E50F81200205465726D696E616C0000000016
S31500001E60A0150020FC3C000010B50023002901D17C
S31500001E7008E05B1CCC5C002CFBD1934200D91346D6
S31500001E80FF2B02D20370401C05E0FF220270437054
S31500001E901A0A8270C01C002204E00C780470401CF0
S31500001EA0491C521C9A42F8D310BD000038B5234C89
S31500001EB00122207E6946FEF7F1FE00281CD0684606
S31500001EC00078052825D008DC012816D0022817D06E
S31500001ED0032818D0042808D118E006281CD00728A3
S31500001EE01DD07F2808D080281CD0802804D3207ECF
S31500001EF001226946FEF7D2FE38BDFFF70BFA38BD60
S31500001F00FFF75AFA38BDFFF733F838BDFFF7EAF99D
S31500001F1038BDFEF74DFF38BDFFF74EF938BDFFF768
S31500001F203DF938BD207E01226946FEF7B7FE00283E
S31500001F30F7D068460078FFF7F5F838BDB0170020EF
S31500001F40F7B54B4E054630781446012808D00028D0
S31500001F507BD0022804D100F08FF83078012874D1A4
S31500001F60202C04D20120F169A04001426DD1E0B2DB
S31500001F70182C0ED30199491B7F2906D9CA096B1E55
S31500001F801A7080221143AD1E00E06D1E29707F2C51
S31500001F9002D26D1E28703BE08020012320439B0364
S31500001FA0E109C2B29C4203D2681E0170AD1E2EE04A
S31500001FB0E0098023012118434905A70BC3B28C42CF
S31500001FC005D2681E0770A81E0370ED1E1FE0600D87
S31500001FD08446A00B8027012138430907C7B28C42EB
S31500001FE008D26046691E0870A81E0770E81E0370B6
S31500001FF02D1F0CE0200F691E0870604680210843E3
S31500002000A91E0870E81E0770281F03706D1F2A702E
S31500002010FFF706FA0446F0680199201A802304E0C7
S3150000202002461A430A70C009491C7F28F8D808706E
S31500002030491C4A1B70782946FEF770FE002801D01D
S31500002040F46002E03078401C3070317E1820414345
S3150000205008480818C16E006F814208D0B078002881
S3150000206005D10120B070FFF721FF0020B070FEBD42
S31500002070B0170020F8120020FEB569460120174F60
S3150000208008704E1C8025786904E0014629433170AA
S31500002090C009761C7F28F8D83070761CFFF7C0F987
S315000020A0F9680446401A04E0014629433170C00924
S315000020B0761C7F28F8D830706846761C321A7878F5
S315000020C06946FEF72BFE002804D0FC603978491ECD
S315000020D03970FEBD7969491C7961FEBDB0170020D3
S315000020E00FB410B503A9044B044A029800F0A4F8F3
S315000020F010BC08BC04B01847AD2600000C00002038
S3150000210030B47446641E2578641CAB4200D21D466A
S31500002110635D5B00E31830BC18470000002805DB50
S31500002120C106C90E012088400149086070470000B9
S3150000213000E100E08307FF22DB0E9A400907090E43
S315000021409940002808DB830809489B001818036893
S3150000215093430B43036070470007000F083883085A
S3150000216004489B001818C36993430B43C361704727
S3150000217000E400E000ED00E002E008C8121F08C11C
S31500002180002AFAD170477047002001E001C1121FF2
S31500002190002AFBD1704710B501F070FB00217D22AB
S315000021A0D2000B46FEF724F810BD000010B503A0C0
S315000021B0FFF722F80FA0FFF71FF810BD4E3D46723D
S315000021C0656552544F53205472616E736665722072
S315000021D04170706C69636174696F6E2C443D4C4B41
S315000021E053333241543038352C4F3D467265655273
S315000021F0544F5300492331353D5379735469636B0A
S3150000220000000000F8B50024094D0A4E0BE014202A
S315000022102746474378190169001D00910EC8E85901
S31500002220FFF772F9641C30688442F0D3F8BD0000F1
S3150000223058120020AC000020FFB591B00F460546AD
S31500002240002606E025280AD0149A139990476D1C9B
S31500002250761C28780028F5D1304615B0F0BD00244C
S3150000226000940121F34A029400E004436D1C2B788C
S315000022700846203B98401042F7D128782A280ED0ED
S315000022800222287801463039092915D800990A23EF
S3150000229059433039401814436D1C0090F1E701CFC3
S315000022A00090002805DA01204003044300984042CC
S315000022B00090022004436D1C28782E2815D1042096
S315000022C0044368786D1C2A280AD101CF6D1C029040
S315000022D00BE002990A225143303940186D1C0290D6
S315000022E02878014630390929F3D928786C2810D086
S315000022F006DC4C281AD068280ED06A2817D104E0CC
S31500002300742813D07A2812D110E001204005044326
S315000023100CE00121090501E0032109050C43697858
S31500002320814203D10120000524186D1C6D1C2878FC
S315000023306E281ED00CDC632831D004DC00288BD03C
S31500002340582811D1B2E064287BD069280CD178E0F6
S3150000235073282DD004DC6F2870D0702804D1A7E034
S3150000236075286CD078286BD0149A13999047761CF0
S3150000237062E06002400F022807D003280AD0042832
S3150000238038680AD006603F1D56E03868F1170660C7
S315000023904160F8E738680680F5E70670F3E73878B5
S315000023A0694608740020487404A80390012003E0DD
S315000023B0386803900020C0433F1D61070FD50021F8
S315000023C001E00199491C029A0191914213DA814276
S315000023D0F7DB019A0399895C0029F2D10BE0002111
S315000023E001E00199491C01918142FADB019A0399A6
S315000023F0895C0029F5D101990098139A401A00903A
S315000024002146149B00F03CF901998019461807E013
S31500002410039803990078491C0391149A13999047DD
S315000024200198401E0190401CF2D12146149B139A3C
S31500002430009800F015F986196D1C0AE741E033E0B3
S3150000244034E00A200021049005916002410F022920
S3150000245005D001CFC2179446032905D007E0FF1D1A
S31500002460FF08FF0003CF06E000B2C2179446042916
S3150000247002D140B2C1178C4600226146944506DA65
S315000024800A460021404291418C462D2102E0210559
S3150000249004D52B216A461176012103E0E10701D01C
S315000024A02021F7E7019155E00A200BE0102009E012
S315000024B01020049000210420044308200591029076
S315000024C003E008200021059104906002410F0229D3
S315000024D005D001CF00229446032906D006E0FF1D51
S315000024E0FF08FF0003CF8C4603E080B2042900D129
S315000024F0C0B20021019121072CD5297803917029BA
S3150000250006D0049A1021059B4A401A4305D00EE0D6
S3150000251040216A461176012108E06146014306D052
S3150000252030216A4611760399517602210191049A67
S315000025300821059B4A401A430CD16146014301D14B
S31500002540610707D530216A4611760121019102996A
S31500002550491E02912978582904D037A103910FA961
S315000025600F910DE039A1F9E76146059B049AFDF745
S31500002570ADFE039B8C469B5C0F9A521E0F92137006
S3150000258061460143F0D10F9807A9081A203003903D
S31500002590600704D5012000048443029801E001206D
S315000025A002900399884201DD401A00E0002041189C
S315000025B00290019809180098401A0090E00306D48A
S315000025C02146149B139A009800F05AF886190020A9
S315000025D0049008E006A9085C149A13999047049899
S315000025E0401C761C049001998842F3DBE0030CD56D
S315000025F02146149B139A009800F042F8861904E0CD
S31500002600149A302013999047761C0299481E02901E
S315000026100029F5DC08E00F980F990078491C0F9106
S31500002620149A13999047761C0399481E0390002923
S31500002630F1DCFAE609280100303132333435363719
S3150000264038396162636465660000000030313233F8
S315000026503435363738394142434445460000000098
S31500002660F8B5044600251E461746880404D405E03E
S3150000267039462020B0476D1C641EF9D52846F8BDA2
S31500002680FFB50446002581B01E46C80301D5302794
S3150000269000E02027880404D505E038460399B047B2
S315000026A06D1C641EF9D5284605B0F0BD70B5054C05
S315000026B0054601462046FFF78DFB6069C007FCD042
S315000026C0284670BD002C014002780448072A03D131
S315000026D00978817107210174007C7047140100207C
S315000026E010B50078084C082802D009280AD107E05E
S315000026F00878E0710820207404A0FFF7F1FC01E0DF
S3150000270009202074207C10BD1401002046534D2062
S31500002710446F6E65210D0A0000780649042802D030
S31500002720092804D102E01020C87004200874087C2F
S31500002730704700001401002000780549002804D0E5
S31500002740012803D1AA20087001200874087C70476C
S315000027501401002000780949012804D0022806D077
S31500002760092808D106E0AA200870012002E01220FC
S31500002770487002200874087C70470000140100208D
S3150000278000780549002804D0012803D1AA20087042
S3150000279001200874087C7047140100200278044860
S315000027A0062A03D10978417106210174007C70471D
S315000027B01401002000780549002804D0012803D11F
S315000027C0AA20087001200874087C704714010020B4
S315000027D000780649032802D0092804D102E008201F
S315000027E0887003200874087C7047000014010020DC
S315000027F000780649052802D0092804D102E0022003
S31500002800087105200874087C704700001401002038
S31500002810FEF7BAFAFDF7A0FFFEF706F800F00CFD8A
S31500002820064C074D07A0FFF75BFC01212046FDF78C
S31500002830EAFF2846FEF78EFEF4E70000002001407E
S3150000284000A86100765461736B53746172745363AC
S31500002850686564756C657228293B3A204E6F742052
S31500002860656E6F7567682052414D210D0A000000A4
S31500002870F8B51A4D0F46EE6804462868001D00F0AC
S31500002880B7FB601C15D1002F13D015492A6848687C
S31500002890906082682B68DA602A688368121D5A6025
S315000028A02A68121D8260286841610868401C086019
S315000028B0F8BD2868341944602968B44204D2E86B2C
S315000028C0091D00F0BDFBF8BDA86B091D00F0B8FBA3
S315000028D0A86A8442F7D2AC62F8BD0000300000203E
S315000028E01C120020F8B5044600F0C2FB394EB06851
S315000028F0401CB0603068384F002803D0706900284B
S3150000290027D02CE03460B068012828D10025142097
S315000029106843C01900F086FB6D1C072DF7D32E48BF
S315000029208C3000F07FFB2C48A03000F07BFB2A485F
S31500002930B43000F077FB2848C83000F073FB264817
S31500002940DC3000F06FFB24488C30B0631430F06349
S3150000295005E03068E16AC06A884200D83460706A6F
S31500002960401C70626067002C0CD02046FEF79AFA75
S31500002970236B20682146C01A009034312046E26A53
S31500002980FEF78EFD2046FEF7D1FAE06A31698842ED
S3150000299000D9306114214843C0194068A06081689D
S315000029A0E1608268211D51608160E06A142148431C
S315000029B0C11961613958491C395000F065FB7069CD
S315000029C0002806D03068E16AC06A884201D200F069
S315000029D0A1FBF8BD300000204011002010B500F02A
S315000029E047FB0C4C2068002810D10B4800F01AFB5E
S315000029F00948143000F016FB0748E06014302061E7
S31500002A0000220C21052000F0B5FC206000F03CFB04
S31500002A1010BD0000700000203012002010B5026CBE
S31500002A200C46002A0CD0C1688B18C36081688B42A3
S31500002A3001D2194601E00168C1602046FDF715FC88
S31500002A4010BDF8B5856B174604460026026C002AB1
S31500002A5011D0002F19D0E068FDF707FCE168206C63
S31500002A60091AE1602268914202D2A168081AE06060
S31500002A70022F17D019E02068002816D1A06800F0B0
S31500002A8093FF06460020A0600FE06068FDF7EDFBAF
S31500002A90216C606840186060A168884205D3206890
S31500002AA0606002E0002D00D06D1E6D1CA5633046EF
S31500002AB0F8BD10B50446006B00F0F4FA204600F0AD
S31500002AC0F1FA10BD01210D480903420705D0C01DCA
S31500002AD0C0080A4AC000821A891A094B0022411806
S31500002AE005C30839C908C9001C3B19604A600A6059
S31500002AF00A1A06C09A605A6070470000400100201A
S31500002B00240000200F4E104D3746C83F11E000F05C
S31500002B10AFFAF068C468201D00F06AFAA868401E83
S31500002B20A8606868401E686000F0AEFA2046FFF7AD
S31500002B30C0FF68680028EAD138680128F9D900F092
S31500002B40E9FAF6E70812002030000020FFB581B050
S31500002B500D4691000C9C0F460A9EA522206BFDF7A0
S31500002B6096FB206B3F1FC019C708FF00780701D0EE
S31500002B7072B6FEE7002D0DD000202218295C203207
S31500002B801175295C002902D0401C4028F5D300218C
S31500002B9073200155072E01D372B6FEE7E662201DAB
S31500002BA0E66700F04AFA2046183000F046FA24613B
S31500002BB00720801B6462A0613846049A019900F0E0
S31500002BC007FA20600B98002800D0046005B0F0BD1D
S31500002BD030B5114900E011460A688242FBD34B68C2
S31500002BE05C18844203D14068181848600846436858
S31500002BF01C18944209D1084C143C2468A24209D0FE
S31500002C0052689A1842600A6812680260814200D0CF
S31500002C10086030BD0460F9E72400002070B5002488
S31500002C2041600B4D0061914206D8D11A82699142EA
S31500002C3006D2011D286907E09A4203D2994201D3C0
S31500002C40012403E0011DE86800F0FAF9204670BD92
S31500002C507000002010B5044600F00AFAA06B0028A8
S31500002C6004D0002400F010FA204610BD0124F9E734
S31500002C7070B506460C480D46C068C068C468201D7D
S31500002C8000F0B6F921462031087A420705D52A46D2
S31500002C903146204600F0A8F802E0400840000872DD
S31500002CA0216A2046884770BD70000020F0B585B0C7
S31500002CB001265DE0009800285ADB029C6069002826
S31500002CC002D0201D00F094F903A800F0B1F80546E3
S31500002CD000980300FFF714FA0A4C0606282E400651
S31500002CE006282E4C20462030017A074631430172D1
S31500002CF00198A169034641182A462046FFF78EFF30
S31500002D00002835D0387A410707D50198A1692A46A7
S31500002D104118204600F068F802E04008400038728A
S31500002D20216A2046884723E02034207A4008400064
S31500002D3020721DE020462030017A3143017201984D
S31500002D40A061002806D041192B461A462046FFF7F7
S31500002D5065FF0DE072B6FEE721462031087A82074C
S31500002D6003D4204600F09EF902E0400840000872B5
S31500002D70044800226946006800F070FC002899D1DA
S31500002D8005B0F0BD70000020F8B50D46064600F00F
S31500002D9089FA684600F04CF804460098002802D0EC
S31500002DA000F0B2FEF8BD0F48002D10D00169096889
S31500002DB0002915D00025311B2A46006800F0B6F917
S31500002DC000F0A2FE0028EDD100F0A4F9F8BDA6425D
S31500002DD0F1D800F099FE21463046FFF749FFF8BDCD
S31500002DE00125E8E77000002070B516460C4605463A
S31500002DF004E0A869296A041928468847A869234671
S31500002E00011932462846FFF709FF0028F1D170BDA7
S31500002E100648816B0968002904D0816BC968096876
S31500002E20816270470021C943FAE7000030000020A4
S31500002E30F8B5064600F01CFD0D4D0446A868844210
S31500002E4013D20027FF4304E0C06839460068FFF745
S31500002E500FFFE86801680029F6D12969E960286151
S31500002E60012030602046AC60F8BD0020F9E7000084
S31500002E707000002003480068401C72B600D0FEE7D0
S31500002E80FEE700002C000020094CE06801680029DC
S31500002E9008D00021002907D00020FFF775FFFFF7B3
S31500002EA005FFF2E70121F5E7C0680068F5E70000D5
S31500002EB070000020F8B5044600F0DAF826464036E1
S31500002EC005257557274624370BE0606A00280AD087
S31500002ED0384600F0B3FD002801D000F06DF96D1EF4
S31500002EE06DB2002DF1DC0027FF43777100F0CCF8BE
S31500002EF000F0BEF8042575572046103000900BE010
S31500002F00206900280AD0009800F098FD002801D01A
S31500002F1000F052F96D1E6DB2002DF1DC377100F034
S31500002F20B3F8F8BD70B50446002500F0BBF9274E8E
S31500002F303068002801D1FFF7C5FD002C3ED06007A0
S31500002F40400F1021081AC1438C4237D8211835D4B6
S31500002F50002933D07068814230D81C4A143210469A
S31500002F60046801E0224604466068884202D220686E
S31500002F700028F7D13068844220D015682068106098
S31500002F8060680835421A102A08D96018430701D02C
S31500002F9072B6FEE742606160FFF71AFE616870680C
S31500002FA0401A7060B268904200D2B0600120C0073B
S31500002FB00143002003C4F068401CF06000F0A4FD4B
S31500002FC0680701D072B6FEE7284670BD10000020E3
S31500002FD010B50124031F24061C601B1F1960191F4E
S31500002FE0024B0B60143940380A6010BD752E000084
S31500002FF04368826801699A60836842685A604A68D1
S31500003000824201D182684A60002202610868401E3D
S315000030100860086870470000014880687047000033
S31500003020300000200146083100224160D243C160D1
S3150000303082600161002101607047002101617047D3
S3150000304030B50C68621C02D00246083202E0026902
S3150000305004E01A4653681D68A542FAD953684B60C6
S3150000306099608A60516008610168491C016030BD41
S3150000307072B604480168491C0160BFF34F8FBFF365
S315000030806F8F70472C00002005490868002804D07F
S31500003090401E086000D162B6704772B6FEE70000B7
S315000030A02C00002070B500281DD00446083C60683E
S315000030B0002801DB72B6FEE72168002901D072B64E
S315000030C0FEE740004008606000F0ECF8064D6068DE
S315000030D06968401868602046FFF77AFD2869401C39
S315000030E0286100F011FD70BD1000002010B5074CDE
S315000030F000202061A06106487D21C9000068FDF717
S315000031003BF8401E60610720206110BD00E000E032
S31500003110A80000200120044900074860BFF34F8F34
S31500003120BFF36F8F7047000000ED00E070B51546E5
S315000031300E460446FFF79CFF204640300422825686
S315000031400021521C00D1017105228256521C00D169
S315000031504171FFF799FFA06B002805D120462A464A
S315000031603146243000F040F82046FFF7A3FE70BD3C
S3150000317010B5040013D00B48406B002801D072B67E
S31500003180FEE700F08FF821462320FDF709FF002116
S315000031902046FFF76DFB00F0B7FC002801D1FFF7D2
S315000031A0B9FF10BD3000002002490A6A0260C968F2
S315000031B0416070473000002001490120C861704716
S315000031C03000002010B50C46002809D005490968D2
S315000031D01831FFF735FF01212046FFF749FB10BDE7
S315000031E072B6FEE73000002070B514460D46002882
S315000031F01ED0104A41681368D9618B68166833621D
S3150000320013688E6818337360136818338B601168FF
S3150000321088620168491C0160002C01D00025ED433D
S315000032202420FDF76DFF21462846FFF721FB70BDE0
S3150000323072B6FEE7300000207CB5164800250190E6
S315000032402B46402214A10095154800F0D7FA114CE0
S315000032502C3C012803D100F005FD012802D0401CBA
S3150000326015D012E072B60020C043A0620120606152
S31500003270E5602068E16A884202D1FDF701FE02E0BE
S315000032802068FDF731FE00F04BF8206B7CBD72B66E
S31500003290FEE700005C00002049444C4500000000A9
S315000032A0052B00000248416B491C41637047000032
S315000032B03000002010B5184B586B002802D00120B2
S315000032C0D86110BD0020D8611869144902E00028B1
S315000032D01BD0401E142242438A58002AF7D01422DB
S315000032E0424351184A680C46526808344A60A24262
S315000032F001D152684A60D168196018611868D96AA4
S31500003300884204D1FDF7BCFD10BD72B6FEE7186811
S31500003310FDF7EAFD10BD000030000020401100203E
S3150000332010B50948016AFF22120411430162016ABD
S31500003330120211430162FFF7D9FE0449002008601A
S31500003340FCF7CAFE002010BD00ED00E02C000020B6
S3150000335010B5FCF7D5FE044600F096FA002803D017
S3150000336001200349000748602046FCF7CDFE10BD4A
S3150000337000ED00E0F8B517460D46060027D00146D9
S315000033800020C043FCF7F8FEA84220D3304668432D
S315000033905121C8421BD85030FFF7C4FD040012D09B
S315000033A020465030002D10D02060E66320460121D3
S315000033B0256400F00EF84C2007553B462A46314658
S315000033C07320FDF733FE2046F8BD2460EDE772B6A4
S315000033D0FEE7F8B501250E46044600282ED0E16B1F
S315000033E0002937D0AF1E3846FCF7C6FE0146206CD2
S315000033F081422FD3FFF73CFE216CE06B48432168E6
S315000034004118A1600021A16321686160E06B216C15
S31500003410401E48432168411820464030E16007714C
S3150000342047713038002E0BD0FFF7FCFD20462430C4
S31500003430FFF7F8FDFFF728FE2846F8BD72B6FEE74F
S3150000344021690029F6D000F0F9FA0028F2D0FFF73A
S3150000345061FEEFE772B6FEE7FFB5002683B01D46B4
S315000034600446002803D00498002802D006E072B66D
S31500003470FEE7206C002801D072B6FEE7022D04D1CB
S31500003480E06B012801D072B6FEE700F0E1F90028F2
S3150000349004D10598002801D072B6FEE7FFF7E8FDD3
S315000034A0A06BE16B884207D3022D05D00598002852
S315000034B021D0002E22D025E02046FDF725FF01462B
S315000034C000955A20059B049AFDF7E0FD2A46204602
S315000034D00499FFF7B6FA616A002903D02046243022
S315000034E000F0ACFA002801D0FFF714FEFFF7CCFD80
S315000034F0012007B0F0BDFFF7C7FD22E001A8FFF7E6
S3150000350053FE0126FFF7C0FDFFF7CCFEFFF7B0FD27
S315000035102046403004214156491C00D10171052145
S315000035204156491C00D14171FFF7AEFD05A901A81E
S3150000353000F034F9002810D02046FFF7BBFC00F05D
S31500003540E3FA2046FDF7E0FE014600955A20059B6A
S31500003550049AFDF79BFD0020CBE7FFF789FDA06BE2
S31500003560E16B884201D1012700E00027FFF78CFDBF
S31500003570002F0ED0204610300599FFF723FE204677
S31500003580FFF798FC00F0C0FA002887D1FFF7C2FDCC
S3150000359084E72046FFF78EFC00F0B6FA7EE7FFB51B
S315000035A081B01E46040003D00298002802D006E02F
S315000035B072B6FEE7206C002801D072B6FEE7022E36
S315000035C004D1E06B012801D072B6FEE7FCF798FD46
S315000035D00090A06BE16B884210D3022E0ED02046DD
S315000035E0FDF792FE01466020039AFDF7F7FC0024E2
S315000035F00098FCF789FD204605B0F0BD2046403016
S31500003600052545570746A06B2046FDF77DFE01467A
S315000036106020039AFDF7E2FC324620460299FFF746
S3150000362010FA681C09D0FFF7F7FC854203D27F2DFC
S3150000363012D06D1C7D710124DAE7606A0028FAD089
S315000036402046243000F0FAF90028F4D00398002828
S31500003650F1D001210160EEE772B6FEE7F7B500256D
S3150000366084B00446002803D00598002802D006E05E
S3150000367072B6FEE7206C002801D072B6FEE700F0B5
S31500003680E7F80026002804D10698002801D072B673
S31500003690FEE7FFF7EDFCA76B002F24D02046059927
S315000036A0FFF7BCF90020FDF72FFE05462046FDF783
S315000036B02BFE0146012000902A465C20069BFDF762
S315000036C0E5FC7F1EA7632069002807D0204610303E
S315000036D000F0B4F9002801D0FFF71CFDFFF7D4FC79
S315000036E0012007B0F0BD0698002802D0002D03D0B7
S315000036F006E0FFF7C9FC27E001A8FFF755FD012505
S31500003700FFF7C2FCFFF7CEFDFFF7B2FC20464030C4
S3150000371004214156491C00D1067105214156491C18
S3150000372000D14671FFF7B0FC06A901A800F036F8F3
S315000037300028204619D0FFF7BDFB00F0E5F920462A
S31500003740FFF788FA0028A4D00020FDF7DDFD054626
S315000037502046FDF7D9FD0146012000902A465C204F
S31500003760069BFDF793FC0020BBE7FFF773FA0028E2
S315000037700ED0204624300699FFF724FD2046FFF799
S3150000378099FB00F0C1F9002883D1FFF7C3FC80E75D
S315000037902046FFF78FFB00F0B7F97AE7F8B50C463D
S315000037A0050014D0002C14D0FFF762FC124EF1680D
S315000037B06B682068CA1A471C0DD02F68366AB74254
S315000037C00BD08B4209D801250020206010E072B68C
S315000037D0FEE772B6FEE700250AE0904205D9801A98
S315000037E020602846FFF7E0FCF5E700200125206071
S315000037F0FFF74AFC2846F8BD30000020FFB585B02B
S31500003800164690000F9FFFF78DFB05001DD08C20FC
S31500003810FFF788FB040015D08C21FCF73FFD2563DC
S3150000382000210E9803910197009002943246089B5E
S3150000383006990598FFF78AF92046FFF753F8012005
S3150000384009B0F0BD2846FFF72DFC0020C043F7E77E
S3150000385006484169002904D0406B002803D00020A7
S31500003860704701207047022070470000300000209A
S315000038700148C06870470000300000200148C06859
S315000038807047000030000020F8B5454C0027606BFB
S31500003890002804D0A069401CA0613846F8BDE56840
S315000038A06D1CE5600ED1A06B0068002801D072B6D1
S315000038B0FEE7A06BE16BA163E063206A401C206217
S315000038C0FFF7A6FA3648806A854211D33448816BE1
S315000038D00968002908D0806BC068C46860688542A2
S315000038E015D22F49886203E000212D48C943816221
S315000038F02B4801681422C96A51432A4A51580129A2
S3150000390000D90127C0690028C7D00127C5E7A268EA
S31500003910E16860699160E268A16851604168261DAE
S31500003920B14201D1E1684160002161610268521E25
S315000039300260A06A002810D0E269236A9360236AB5
S31500003940E2695A602346426818339A4201D1226AD4
S315000039504260A1620168491E01602046FDF7E6FA51
S315000039600F4AE06A1169884200D910611421484360
S315000039700C4940184068A0608368E36083685E6015
S315000039808660E06A14235843431863610B585B1C36
S315000039900B50E06A1168C96A884297D9012795E7F2
S315000039A0300000204011002070B504460020002C95
S315000039B03DD0204D2A68944201D072B6FEE72246D9
S315000039C080321168002933D0491E1160E36AE26F24
S315000039D093422CD000292AD1201DFFF709FB21464E
S315000039E04A20FDF7DDFAE06F0721E062081AA061C0
S315000039F02046FDF79BFAE06A2969884200D92861CA
S31500003A0014210D4A484380184068A0608168E1602F
S31500003A108368211D59608160E06A1421484380183B
S31500003A206061E06A48431158491C1150012070BD7D
S31500003A3072B6FEE7300000204011002070B5C06865
S31500003A40C468002C2AD0E269216AA06A9160226AC1
S31500003A50E16951602146426818318A4201D1226AE1
S31500003A6042600022A26203685B1E0360244E706BF4
S31500003A70002815D0234A5068E06183682362836872
S31500003A8059608160A2621068401C1060E06A31686B
S31500003A90C96A884232D90120F06170BD72B6FEE76C
S31500003AA0A368E16860699960E368A1685960416844
S31500003AB0251DA94201D1E168416062610168491E84
S31500003AC001602046FDF732FAE06A3169884200D982
S31500003AD03061142148430B49B43940184068A0604E
S31500003AE08268E260826855608560E06A142250430D
S31500003AF0421862610A58521C0A50C7E7002070BD7E
S31500003B0030000020F4110020F8B500243D4E00944A
S31500003B10706B002808D0FFF7ABFA706B401E70631D
S31500003B20706B002802D069E072B6FEE7B068012724
S31500003B30002847D162E0C068C468E269216AA06AC9
S31500003B409160226AE16951602146426818318A42D1
S31500003B5001D1216A41600021A1620268521E026001
S31500003B60A368E26860699A60E368A2685A6042687E
S31500003B70251DAA4201D1E268426061610168491EC1
S31500003B8001602046FDF7D2F9E06A3169884200D922
S31500003B903061142148431C4940184068A06082687F
S31500003BA0E260826855608560E06A142250434218DC
S31500003BB062610A58521C0A50E06A3168C96A884232
S31500003BC000D3F7611048B43001680029B3D1002C46
S31500003BD001D0FFF71DF9B469002C08D0FFF754FE99
S31500003BE0002800D0F761641EF8D10020B061F069AA
S31500003BF0002803D001200090FFF78CFAFFF744FA63
S31500003C000098F8BD3000002040110020FFB507469F
S31500003C1083B00D462C20FFF785F904001DD02646FB
S31500003C20002020363072059802970190069F0C9866
S31500003C300090002D14D0FEF7D1FE0298E761A56131
S31500003C40206000982062201DFFF7F7F901980028F0
S31500003C5003D0307A042108433072204607B0F0BD05
S31500003C6072B6FEE71CB5FEF7B9FE0A4800680028E2
S31500003C700CD008490020091D0346019100904022FE
S31500003C8005A10748FFF7BAFD002801D172B6FEE785
S31500003C901CBD000070000020546D72205376630036
S31500003CA0892E0000FEB51D4603460020089E002B07
S31500003CB012D00F4C2768002F0DD068460EC006297B
S31500003CC00FDAFFF7C5FD022808D000231A46694619
S31500003CD02068FFF7C1FBFEBD72B6FEE70023324641
S31500003CE0F5E700232A4669463846FFF758FCFEBD2D
S31500003CF0700000209721000005220000000000004F
S31500003D0000005454522052454747455300000000D6
S31500003D1000000000000000303132333435363738C9
S31500003D20394142434445460053595354454D56493B
S31500003D3045573A20436F756C64206E6F7420726528
S31500003D40636F7264207461736B20696E666F726D47
S31500003D506174696F6E2E204D6178696D756D206E88
S31500003D60756D626572206F66207461736B73207265
S31500003D706561636865642E00983D000000000020C0
S31500003D80C4000000782100005C3E0000C400002052
S31500003D90FC1900008821000000000000000000005F
S31500003DA0000000000000000000000000000000000D
S31500003DB000000000000000000000000000000000FD
S31500003DC000000000AAAAAAAA000000000000000045
S31500003DD000000000000000000000000000000000DD
S31500003DE000000000000000000000000000000000CD
S31500003DF000000000000000000600000000000000B7
S31500003E0000000000000000000000000000000000AC
S31500003E10000000000000000000000000000000009C
S31500003E20000000000000000000000000000000008C
S31500003E3000000000000000008113334415263748B7
S31500003E4000D8B805000000000000000000000000D7
S31100003E5000000000000000000000000060
S705000000C139
