S31500000000001B00205101000005130000110F000025
S3150000001000000000000000000000000000000000DA
S31500000020000000000000000000000000D31F0000D8
S3150000003000000000000000000F0100000121000088
S315000000406B2500006D2500006F250000712500005E
S315000000509306000095060000C90F000097060000F1
S3150000006091230000C5080000D11F00009303000083
S3150000007069010000FD110000F92300002D060000B3
S31500000080690100006901000091060000C503000037
S3150000009069010000000000000000000000000000F0
S315000000A0000000000000000000000000000000004A
S315000000B0000000000000000000000000000000003A
S315000000C00448854600F042F900480047BD3100006B
S315000000D0C046C046001B0020084B1968086820303F
S315000000E080F30988022080F31488BFF36F8F3FBC2A
S315000000F0AE4608BC04BC62B6184700003C000020AF
S31500000100EFF3108072B6704780F310887047EFF3F4
S3150000011009800E4B1A6820381060F0C044464D46E0
S3150000012056465F46F0C008B572B603F0A7FF62B642
S315000001300CBC116808681030F0C8A046A946B24643
S31500000140BB4680F309882038F0C818473C000020D9
S31500000150064880F308880648804706480047FEE7B9
S31500000160FEE7FEE7FEE7FEE7FEE70000001B0020D5
S3150000017021210000C100000030B50B4601460020D9
S315000001802022012409E00D46D5409D4205D31D4697
S315000001909540491B2546954040191546521E002D8F
S315000001A0F1DC30BDF8B500242546002904DA0E46F8
S315000001B0012400214042B141002B04DA1E460023EF
S315000001C052420125B34100F081F88C4617461E467F
S315000001D0AC4203D0002540428D41AC46002C02D0F3
S315000001E0002657429E4161463A46334601B0F0BD6D
S315000001F0F0B51FB486B000200090019002900698DA
S31500000200069980B204900798090C02040014114361
S3150000021007900027089D099806913E463C460390A4
S315000002200398A9B20204000C039004982D0C154300
S3150000023048430021224600F079F8C719714110346D
S315000002400E46402CECDB3846029A00F06FF8009A16
S31500000250019B80180090594102980191103002903C
S315000002604028CCDB00980BB0F0BD03460B439B0740
S3150000027003D009E008C9121F08C0042AFAD203E015
S315000002800B780370401C491C521EF9D27047D2B23B
S3150000029001E00270401C491EFBD270470022F6E7BF
S315000002A010B513460A4604461946FFF7F0FF2046E6
S315000002B010BD30B504460020034600E05B1C9342A7
S315000002C003D2E05CCD5C401BF8D030BDF0B51FB466
S315000002D00646002082B005464024019100901BE0AE
S315000002E0019922460F46304600F042F8049A059BD3
S315000002F0801A994110D310461946224600F016F886
S31500000300361A8F410197224601200021009F00F0F6
S315000003100DF838184D4100902046641E0028DFDC99
S31500000320019B00982946324607B0F0BD10B5202A39
S3150000033004DB0146203A9140002010BD9140202365
S315000003409C1A0346E3401943904010BD064C012514
S31500000350064E05E0E36807CC2B430C3C9847103467
S31500000360B442F7D3FFF7B0FE544E0000744E0000BF
S3150000037010B5202A04DB0846203AD040002110BDE3
S315000003800B46D340D0402024A21A91400843194678
S3150000039010BD704708B50BE00820064B0022114639
S315000003A00090A52000F02CFF7D20C00003F094FDF6
S315000003B0F2E70000A40000200148C0687047000072
S315000003C00034014070B500240025FFF7F5FFC4B2E4
S315000003D002202040002800D00125042020400028CB
S315000003E012D040210F4800F047F8002806D00E48EA
S315000003F0807D012108430C49887505E00A48807D07
S315000004004008400008498875E007C00F002807D05B
S31500000410054B0E331A46093A511E081F00F032F8F2
S3150000042070BD0000003401406801002070B504462C
S315000004300D460121802001F035FE0E48006801219D
S3150000044008430C4908606868002804D060682021C9
S315000004500843606003E06068202188436060A86804
S315000004606063E868A0612869E061286820606869BF
S31500000470206170BD00340140024690680840C0B259
S315000004807047000070B504460D464A488068C007AC
S31500000490C00F00287ED04748006840084000454EFF
S315000004A03060444840300068C1B2802008400028CF
S315000004B03FD0012028703F484030406840053D4EFF
S315000004C04036B668760330433A4E4036F6687601D3
S315000004D03043384E40363669F608304320604020B7
S315000004E00840002802D00120107001E000201070A2
S315000004F030484030406918702E4840308069587046
S315000005002C484030C06998702A484030006AD8703C
S3150000051028484030406A187126484030806A587131
S3150000052024484030C06A987122484030006BD87128
S3150000053036E00020287040200840002802D0012024
S31500000540107001E0002010701A4840304068C0006A
S31500000550184E4036B668760930432060154840305C
S31500000560C068187013484030006958701148403010
S31500000570406998700F4840308069D8700D48403007
S31500000580C06918710B484030006A587109484030FC
S31500000590406A00E00CE0987106484030806AD871E5
S315000005A00448406804263043024E7060002070BD47
S315000005B0FF20FCE70034014070B505460026002404
S315000005C011480068400840000F49086029460F4856
S315000005D0FFF7D2FD064600BF01E000BF641CB4422F
S315000005E0FBD30948006810210843074908602946DB
S315000005F00748FFF7C1FD0646002401E000BF641C62
S31500000600B442FBD370BD00000034014000941100D9
S3150000061000E7180000214160016078218160052112
S31500000620C1601C210161002141617047704710B50E
S3150000063002460023002A01D1401E10BD002909DD13
S31500000640002003E0145CE418E3B2401C8842F9DBA6
S315000006501846F2E70020C043EFE7000000B509485E
S3150000066009490863C805406BC9130843C9034863B1
S31500000670FF20F53001F02EFD0448034908600020F4
S31500000680086300BD837A000080000040FF0100007F
S315000006907047704770477047F0B50B46002200243C
S315000006A00025002100BF57E00126964034461E680B
S315000006B026403546A5424ED11E79002E0CD1016842
S315000006C001269640314301604168012696400F4657
S315000006D0B743394641601FE01E79012E0BD10168F0
S315000006E096400F46B7433946016041680126964059
S315000006F03143416010E01E79022E0DD101680126BA
S3150000070096400F46B7433946016041680126964038
S315000007100F46B743394641605E79012E04D101691F
S3150000072096403143016109E05E79002E06D10169E8
S31500000730012696400F46B7433946016181699E6896
S31500000740012E02D19640314304E0012696400F4621
S31500000750B74339468161521C102AA5D3F0BD00006B
S3150000076030B50C46230002F0FBF810090F171E25C2
S315000007702B333A41474F565D636B7279016A394DA7
S3150000078029408B1803626AE0016A364DE13D294033
S3150000079013015B18036262E0016A334D29401302BC
S315000007A05B1803625BE0036A1905090D13035B1806
S315000007B0036254E0416A2B4D29408B1843624EE098
S315000007C0416A284DE13D294013015B18436246E02A
S315000007D0416A254D294013025B1843623FE0436A94
S315000007E01905090D13035B18436238E0816A1D4D34
S315000007F029408B18836232E0816A1A4DE13D294017
S3150000080013015B1883622AE0816A174D294013029F
S315000008105B18836223E0836A1905090D13035B18CD
S3150000082083621CE0C16A0F4D29408B18C36216E033
S31500000830C16A0C4DE13D294013015B18C3620EE00D
S31500000840C16A094D294013025B18C36207E0C36AF7
S315000008501905090D13035B18C36200E000BF00BF52
S3150000086030BD0000F0FF0000FFF00000024600204F
S31500000870D3680B40002B01D0012000E00020704718
S3150000088030B504460D4600222946204600F010F8F1
S3150000089030BD30B504460D4601222946204600F0FB
S315000008A007F830BD00210160017141718160704718
S315000008B0002A03D0C3680B43C36002E0C3688B43BE
S315000008C0C36070477047000008B50021C943009116
S315000008D02248C0680121C90208432049C860AA20ED
S315000008E01F49087008204870122088700820C870B8
S315000008F0012008710020487106211948FFF797FE6C
S31500000900009069460020085E401C002808D1134864
S31500000910C0680121C90288431049C860032008BD88
S31500000920684600880E49887107220E4800F07CFA56
S31500000930401C002809D10948C0680121C902884322
S315000009400649C8600020C043E9E70448C0680121A1
S31500000950C90288430149C8600020E0E70020014041
S3150000096008000020002801400EB56846FFF79AFFF0
S315000009700021684601710120C003009001216846EC
S31500000980417169461648FFF787FE6846FFF78AFFFA
S3150000099001216846017101200090002168464171DD
S315000009A069460F484030FFF777FE04220F210C48B6
S315000009B0FFF7D6FE0422002109484030FFF7D0FE9B
S315000009C06846FFF76FFF012168460171C802009073
S315000009D000216846417169460148FFF75DFE0EBD7C
S315000009E00020014010B51348C0680121C902084320
S315000009F01049C860FFF7B8FF00F022F800F0FAF9D6
S31500000A000C48C0680121C90288430A49C8600A2106
S31500000A100948FFF743FC00F0D3F8002006490872A6
S31500000A2048720648C86001210348017400214174D8
S31500000A3010BD0000002001401C010020D130000044
S31500000A401FB5684601F082FDE120000200900021FA
S31500000A506846017141718171C1711B21017369463B
S31500000A60034801F0EFFCFF200149C8611FBD0000EB
S31500000A70002801400EB56846FFF714FF6846FFF7E9
S31500000A8011FF0121684601712020009069460D483A
S31500000A90FFF702FE6846FFF705FF00216846017171
S31500000AA01020009069460748FFF7F6FD0A22052147
S31500000AB00448FFF755FE0A2204210248FFF750FEBC
S31500000AC00EBD00008020014000B58BB005A8FFF7E1
S31500000AD0A1FD052008901C20099001200690002009
S31500000AE005903220079003200A9005A90B48FFF7CE
S31500000AF09DFC002023218123019000930291039005
S31500000B000346024601465A2001F024FAFFF7B2FFD7
S31500000B10FF20F530FFF750FD0BB000BD003401405B
S31500000B2010B509A001F00CFF0A210B48FFF7B6FB30
S31500000B3000200949087248720848C8600121064821
S31500000B4001740021417410BD48575F46736D4372AE
S31500000B506173680D0A0000001C010020D1300000FE
S31500000B6001B500F0DFF8124908706846007800F019
S31500000B707FF8104908700E480078C0000E494218E8
S31500000B800E4806CA0261C160407C0949097888425C
S31500000B900BD10A486946C26806489047044908705E
S31500000BA00846007800F0E0F801E0FFF7B9FF08BD5D
S31500000BB00F00002010000020CC0000201C010020A7
S31500000BC0204821490860002048712048886001219A
S31500000BD01D4841731E481C49086102211A48417587
S31500000BE01C48194988610321174841771A48164954
S31500000BF0086204211448203041711848124988625D
S31500000C00052111482830417115480F49086306210E
S31500000C100D483030417113480B49886307210A4853
S31500000C2038304171104808490864082106484030A8
S31500000C3041710E48044988640921034848304171CE
S31500000C4070470000D1300000CC0000208D3000003D
S31500000C5055310000293000008931000001310000C3
S31500000C60BD2F0000E12F0000253100005D3000009F
S31500000C7070B505462A48007A030001F071FE0A069F
S31500000C800C161C22282A2C3C4248AA2D01D10124EC
S31500000C9000E0002441E0AA2D01D1012404E0122D38
S31500000CA001D1022400E0092437E0082D01D10324F4
S31500000CB000E0092431E0102D01D1042400E00924CC
S31500000CC02BE0022D01D1052400E0092425E00624AD
S31500000CD023E0072421E007211148FFF7A8FC064678
S31500000CE0701C002800D170BDF0B2A84201D10824C2
S31500000CF000E0092411E0AA2D01D1012400E000241E
S31500000D000BE0AA2D01D1012400E0002405E0AA2D64
S31500000D1001D1012400E0002400BF00BF2046E2E725
S31500000D201C0100200148007A704700001C010020C9
S31500000D3010B502210A4801F077FB0021082001F0D6
S31500000D402DFE082001F01AFE0121064801F06CFB79
S31500000D500D210E2001F022FE0E2001F00FFE10BD27
S31500000D6000280140002C0140014908724874704770
S31500000D701C0100200EB56846FFF794FD0121684668
S31500000D8001710120009000216846417169460248C0
S31500000D90FFF782FC0EBD00000020014010B504469E
S31500000DA0601E1249884201D9012010BD601E1049FB
S31500000DB048610F210020C04301F0F0FD00200C49DE
S31500000DC08861084600690421884309490861084684
S31500000DD000690221084306490861084600690121A5
S31500000DE00843034908610020DFE70000FFFFFF001A
S31500000DF000E000E000B58DB0684601F0B5FA08489D
S31500000E00069003200B9001200C906946054801F0DE
S31500000E10F5F90121034801F087F90DB000BD000086
S31500000E20C05D000000180140F8B506460C4617469E
S31500000E30002C01D1481EF8BD00BFF069C007C00FE5
S31500000E400028FAD1002510E0615D304601F07CFBF8
S31500000E5000BF084800780028FBD00020054908702C
S31500000E60615D05A001F06CFD6D1CBD42ECDB002050
S31500000E70E1E700001800002025303258200000006D
S31500000E800EB56846FFF70EFD002168460171802009
S31500000E9000906846417169460E48FFF7FDFB6846BB
S31500000EA0FFF700FD012168460171402000900021F6
S31500000EB06846417169460748FFF7EEFB04220721A1
S31500000EC00448FFF74DFC042206210248FFF748FCC0
S31500000ED00EBD0000002001401FB5FFF7D1FF684698
S31500000EE001F034FBE1200002009000216846017108
S31500000EF041718171C171032101736946034801F093
S31500000F00A1FAFF200149C8611FBD0000002C014065
S31500000F1006E0044801F0DEF80121034800F055F828
S31500000F20F7E7000000A861000020014010B572B686
S31500000F3015481649086316480068C912084314493B
S31500000F400860FFF717FFFFF7BFFDFFF74BFDFFF741
S31500000F50C3FFFFF7EDFE7D20C00001F0BBF80020C7
S31500000F600A49086362B60B48FFF718FF002803D149
S31500000F7009A001F0E5FC02E00DA001F0E1FC7D20F6
S31500000F80C00001F0A7F810BD837A00008000004081
S31500000F9000040040E02E00005379735469636B200F
S31500000FA0436F6E666967204F6B210D0A00000000D3
S31500000FB05379735469636B20436F6E666967204586
S31500000FC07272210D0A000000704770B504460D4686
S31500000FD029462046FFF74AFC0646002E05D029463C
S31500000FE02046FFF74DFC002070BD29462046FFF73E
S31500000FF050FC0120F8E700001CB53348002301220D
S315000010007D21C900009031A003F060FE32490860DE
S3150000101008460068002803D130A001F091FC1CE0CE
S3150000102036A001F08DFC03F0CFFB0446FF20F5301F
S3150000103000232246012100902748006803F084FE21
S315000010403649086008460068002803D134A001F03C
S3150000105077FC02E039A001F073FC02F097FE3F48EE
S3150000106006210023FF220132009101903CA1404855
S3150000107003F066FB3F49086008460068012803D173
S315000010803DA001F05DFC02E042A001F059FC002009
S3150000109038490860464806210023802200910190C5
S315000010A044A1474803F04CFB3249086008460068F3
S315000010B0012803D143A001F043FC02E048A001F05F
S315000010C03FFC02F071FE1CBDED2000005379734C0D
S315000010D0454454696D657200980000207379734C1D
S315000010E0454454696D657220437265617465204696
S315000010F061696C6564210D0A000000007379734C08
S31500001100454454696D657220437265617465205368
S31500001110756363656564210D0A0000009C0000206C
S315000011207379734C454454696D65722053746172CA
S3150000113074204661696C6564210D0A007379734CED
S31500001140454454696D6572205374617274205375F9
S315000011506363656564210D0A0000000090000020AD
S3150000116052533438355461736B46756E6300000014
S3150000117009130000A000002052533438355461731F
S315000011806B2043726561746520537563636565649E
S31500001190210D0A0052533438355461736B20437263
S315000011A065617465204661696C6564210D0A0000FD
S315000011B09400002043414E5461736B46756E630084
S315000011C09503000043414E5461736B204372656181
S315000011D074652053756363656564210D0A0000001C
S315000011E043414E5461736B204372656174652046BA
S315000011F061696C6564210D0A0000000070470000FB
S31500001200F0B504460D46002100263C4880680427B8
S315000012103840002870D03948006840084000374FF1
S315000012203860E8010843C1B290010843C1B205988D
S315000012300143324840300160002D19D16405640D28
S31500001240E0082E4F403778606007000EB8601878C7
S31500001250F8605878386198787861D878B8611879E4
S31500001260F8615879386298797862D879B8621EE060
S31500001270E400E408600D214F40377860E002000E7C
S31500001280B860E004000EF860E006000E38611878D9
S3150000129078615878B8619878F861D87838621879A2
S315000012A078625879B8629879F862D87938631348C1
S315000012B0006804273840002806D0104840681027E8
S315000012C038430E4F786005E00C48406801273843E4
S315000012D00A4F786007E03046771CBEB2084FB84226
S315000012E001DBFF20F0BD054880680827384000284C
S315000012F0F1D00020F6E7FFE7FF20F3E700340140D6
S31500001300FF0F000000BFFEE7FFF7DEFA07E0044824
S31500001310006803F053FD7D20C00002F0DDFDF6E716
S3150000132098000020FFB581B006460F46274800907A
S3150000133000BF00980078002801D101F01BF900BF1A
S31500001340EFF310810846012181F3108800BF00BF2A
S315000013501E4D002400BF182161432A461832891801
S315000013604968002900D103E0641C2969A142F2DC26
S3150000137000BF2969A1421EDD182161432A461832A1
S3150000138056501821614389184F60182262432B4634
S315000013901833D21803999160002118226243D2189B
S315000013A0116118226243D218D16018226243D21802
S315000013B00499516101E00024E443C1B281F310882D
S315000013C000BF00BF204605B0F0BD0000380F00206A
S315000013D0FFB583B005460F461948019000BF019836
S315000013E00078002801D101F0C5F800BF144802902A
S315000013F0032D1FD2EFF31080012181F3108800BF67
S3150000140000BF18212A464A43029960315418002D1C
S3150000141007D02760059961600699A16000212161C6
S31500001420E1600C996161C1B281F3108800BF00BF11
S31500001430002601E00026F643304607B0F0BD000066
S31500001440380F0020F7B586B017462B48019000BF2D
S3150000145001980078002801D101F08CF800BF18210E
S315000014600698484324496031461807980390356921
S31500001470F068049000200590049885421BD9B06856
S31500001480441BBC4201D2204600E038460446706840
S3150000149040190290224602990398FEF7E6FE059847
S315000014A0001905900398001903903F1B2D19B06889
S315000014B0A84200D100250498441BBC4201D2204614
S315000014C000E038460446002C0FD0706840190290A0
S315000014D0224602990398FEF7C8FE05980019059062
S315000014E00398001903903F1B2D190598002800D07A
S315000014F03561059809B0F0BD380F0020F7B584B006
S315000015001446059803901821049848432249451823
S3150000151028690290EE686868801900900298B042C7
S315000015202AD8A868801B471EA74209D322460399DA
S315000015300098FEF79AFE3019E860012007B0F0BD6A
S3150000154002983F18A74225D3A868801B0190019AEC
S3150000155003990098FEF789FE0198241A002C08D0FA
S3150000156068680090019A0398811822460098FEF751
S315000015707CFEEC600120E1E70298801B471EA74233
S3150000158008D3224603990098FEF76FFE3019E860EB
S315000015900120D3E70020D1E7500F002010B5064BFD
S315000015A0064A07480168006800F068F8012040070D
S315000015B000F0BCFB10BD0000852A0000D04D0000E5
S315000015C0AC00002070B5EFF310800646012080F3D2
S315000015D0108800BF00BF274801F07EF805462C465C
S315000015E02046254A516804E080220A430270401CC6
S315000015F0C9097F29F8D80170401C044620461E4AB6
S31500001600916804E080220A430270401CC9097F29C0
S31500001610F8D80170401C04462046174A116904E0B8
S3150000162080220A430270401CC9097F29F8D801703C
S31500001630401C04462046002104E080220A43027032
S31500001640401CC9097F29F8D80170401C044618229D
S315000016502146284601F044F8F0B280F3108800BF16
S3150000166000BF0548406A002802D00349486A8047FF
S3150000167070BD000018180020F0170020F8B50446C9
S315000016800D4616461F460023012292020F4910A05E
S31500001690FFF748FE10494870084640780876002053
S315000016A00090087E08230D4A09A1FFF791FE00204D
S315000016B00949086100F024FC0749C860084606622B
S315000016C044608560476200200870F8BDF013002072
S315000016D05379735669657700F0170020BC00002027
S315000016E070B5EFF310800446012080F3108800BF28
S315000016F000BF074800F0F0FF05461122294628469C
S3150000170000F0EEFFE0B280F3108800BF00BF70BDAE
S3150000171018180020F8B50446EFF31080074601209C
S3150000172080F3108800BF00BF0F4800F0D5FF0546C4
S315000017302E460E480069241A3046214604E08022CF
S315000017400A430270401CC9097F29F8D80170401C61
S31500001750064608223146284600F0C2FFF8B280F35A
S31500001760108800BF00BFF8BD18180020F017002031
S31500001770F8B50446EFF310800746012080F3108881
S3150000178000BF00BF0F4800F0A7FF05462E460E48D3
S315000017900069241A3046214604E080220A4302707A
S315000017A0401CC9097F29F8D80170401C064604224E
S315000017B03146284600F094FFF8B280F3108800BF47
S315000017C000BFF8BD18180020F0170020F8B5044631
S315000017D0EFF310800746012080F3108800BF00BF9A
S315000017E00F4800F079FF05462E460E480069241A78
S315000017F03046214604E080220A430270401CC90993
S315000018007F29F8D80170401C064606223146284634
S3150000181000F066FFF8B280F3108800BF00BFF8BD85
S3150000182018180020F017002070B50E48006A00282E
S3150000183010D00C48006A006800280BD00949096AD4
S315000018400868804704460D462A4621460D2000F0CA
S3150000185037F806E000F054FB064631460C2000F04F
S3150000186003F870BDF0170020F8B505460E46EFF3F5
S3150000187010800090012080F3108800BF00BF0F4841
S3150000188000F02AFF044627463846314604E0802207
S315000018900A430270401CC9097F29F8D80170401C10
S315000018A007462A463946204600F01AFF0098C0B27D
S315000018B080F3108800BF00BFF8BD00001818002094
S315000018C0F7B582B006460F46EFF31080019001206F
S315000018D080F3108800BF00BF154800F0FDFE0546E6
S315000018E02C462046394604E080220A430270401CFA
S315000018F0C9097F29F8D80170401C0446204604997E
S3150000190004E080220A430270401CC9097F29F8D8E6
S315000019100170401C044632462146284600F0E0FE8F
S315000019200198C0B280F3108800BF00BF05B0F0BDBB
S3150000193018180020FFB581B00E461746EFF3108049
S315000019400090012080F3108800BF00BF1C4800F003
S31500001950C3FE05462C462046314604E080220A4353
S315000019600270401CC9097F29F8D80170401C044642
S315000019702046394604E080220A430270401CC90909
S315000019807F29F8D80170401C04462046049904E0DB
S3150000199080220A430270401CC9097F29F8D80170C9
S315000019A0401C044621462846019A00F099FE0098FC
S315000019B0C0B280F3108800BF00BF05B0F0BD0000C4
S315000019C018180020FFB581B00E461746EFF31080B9
S315000019D00090012080F3108800BF00BF224800F06D
S315000019E07BFE05462C462046314604E080220A430B
S315000019F00270401CC9097F29F8D80170401C0446B2
S31500001A002046394604E080220A430270401CC90978
S31500001A107F29F8D80170401C04462046049904E04A
S31500001A2080220A430270401CC9097F29F8D8017038
S31500001A30401C044620460A9904E080220A430270AC
S31500001A40401CC9097F29F8D80170401C044621466C
S31500001A502846019A00F044FE0098C0B280F3108830
S31500001A6000BF00BF05B0F0BD1818002070B50446D1
S31500001A70EFF310800546012080F3108800BF00BFF9
S31500001A80074800F029FE064622463146304600F059
S31500001A9027FEE8B280F3108800BF00BF70BD0000CB
S31500001AA018180020FEB5064625480068002846D0CE
S31500001AB023480468002704E02469002C00D102E0D2
S31500001AC07F1CB742F8D300BF002C38D0EFF310804C
S31500001AD00090012080F3108800BF00BF194800F075
S31500001AE0FBFD0190019D2846314604E080220A4311
S31500001AF00270401CC9097F29F8D80170401C0546B0
S31500001B002846A16804E080220A430270401CC909E5
S31500001B107F29F8D80170401C054680222846216896
S31500001B2000F060FD054616222946019800F0D8FD12
S31500001B300098C0B280F3108800BF00BF00BFFEBD92
S31500001B40C40000201818002010B5084800680028B6
S31500001B500AD00648046800BFE068002801D0E068A3
S31500001B6080472469002CF7D110BD0000C400002076
S31500001B7070B5EFF310800646012080F3108800BF91
S31500001B8000BF0F4800F0A8FD0446254628460D4A2A
S31500001B90117804E080220A430270401CC9097F299B
S31500001BA0F8D80170401C05461B222946204600F045
S31500001BB097FDF0B280F3108800BF00BF70BD000033
S31500001BC018180020C8000020F8B50446EFF310806E
S31500001BD00546012080F3108800BF00BF0A4800F0C8
S31500001BE07BFD074680222146384600F0FBFC064670
S31500001BF00E223146384600F073FDE8B280F31088B5
S31500001C0000BF00BFF8BD000018180020F8B5054653
S31500001C10EFF310800746012080F3108800BF00BF55
S31500001C20374800F059FD064634462046354B2A68AB
S31500001C301B69D11A04E080220A430270401CC909BC
S31500001C407F29F8D80170401C04462046A96804E0A4
S31500001C5080220A430270401CC9097F29F8D8017006
S31500001C60401C044620222046696800F0BBFC04465E
S31500001C7009222146304600F033FD34462046214BEA
S31500001C802A681B69D11A04E080220A430270401CAC
S31500001C90C9097F29F8D80170401C04462046E96826
S31500001CA004E080220A430270401CC9097F29F8D843
S31500001CB00170401C04462046296904E080220A433C
S31500001CC00270401CC9097F29F8D80170401C0446DF
S31500001CD02046002104E080220A430270401CC90904
S31500001CE07F29F8D80170401C04461522214630464B
S31500001CF000F0F6FCF8B280F3108800BF00BFF8BD14
S31500001D0018180020F017002010B50748006A0028B0
S31500001D1008D00548006A4068002803D00249096ACD
S31500001D204868804710BD0000F0170020014908618F
S31500001D3070470000F0170020014602480069081AA3
S31500001D4070470000F017002070B50120394908706F
S31500001D50EFF310800446012080F3108800BF00BF17
S31500001D6048780A223449FFF7C9FBE0B280F31088AD
S31500001D7000BF00BF0A20FFF779FEEFF3108006468A
S31500001D80012080F3108800BF00BF2C4800F0A4FC9F
S31500001D9005462C462046274A516804E080220A431D
S31500001DA00270401CC9097F29F8D80170401C0446FE
S31500001DB02046204A916804E080220A430270401CB3
S31500001DC0C9097F29F8D80170401C04462046194AE3
S31500001DD0116904E080220A430270401CC9097F2968
S31500001DE0F8D80170401C04462046002104E08022F9
S31500001DF00A430270401CC9097F29F8D80170401CAB
S31500001E00044618222146284600F06AFCF0B280F308
S31500001E10108800BF00BF0748406A002802D0054965
S31500001E20486A8047FFF700FDFFF76EFFFFF7A0FE49
S31500001E3070BD0000F0170020E94D000018180020C2
S31500001E4070B5EFF310800546012080F3108800BFBF
S31500001E5000BF0B4800F040FC04460A480078002802
S31500001E6007D00B222146204600F03AFC0020054907
S31500001E700870E8B280F3108800BF00BF70BD000094
S31500001E8018180020F0170020F8B50546EFF310806B
S31500001E900646012080F3108800BF00BF174800F0F7
S31500001EA01BFC074680222946384600F09BFB044669
S31500001EB02046012104E080220A430270401CC90921
S31500001EC07F29F8D80170401C04462046002104E012
S31500001ED080220A430270401CC9097F29F8D8017084
S31500001EE0401C04461A222146384600F0F9FBF0B29F
S31500001EF080F3108800BF00BFF8BD0000181800204E
S31500001F0070B5002310484069421C0F488069131AB7
S31500001F100E4801680020C04300280CDB0C4C2468E6
S31500001F20C606F60E0125B5402C40002C01D0012432
S31500001F3002E0002400E00024002C00D0491C0846E2
S31500001F405043C318184670BD00E000E0B4000020FE
S31500001F5000E200E0F0B5069D059C1C4E36680127A0
S31500001F603E431A4F3E603E46366808273E43174FAB
S31500001F703E604005400D4905490DD207D20FDB07EB
S31500001F80DB0FC608114F40373E604607360E170175
S31500001F903E430E4F40377E603E46B460079EFE606D
S31500001FA0CE083E614E07360E1F013E430F36074FE1
S31500001FB040377E613E46B561089EFE61034E366837
S31500001FC076087600014F3E60F0BD00000034014007
S31500001FD070477047FFB581B005460C4616460A9F06
S31500001FE0052220A12046FEF764F9002801D105B09C
S31500001FF0F0BD1E480068082803D31D48FFF744FFBC
S31500002000F5E71A480068142148431A490D50174845
S315000020100068142148431749401844601348006873
S3150000202014214843134940188660104904980968EA
S31500002030142251430F4A8918C8600C4800681421BD
S31500002040484311464018076108480068401C074984
S3150000205008600097324621462846049B00F00CF89B
S3150000206000BFC4E749444C4500000000B000002012
S31500002070044E0000980E0020F0B585B004460D46CB
S3150000208016461F4614216846FEF708F90094019586
S31500002090029603970A9804906846FFF7B7FD05B0C5
S315000020A0F0BD0000094A0A4B1A63002904D01A46FB
S315000020B0D2690243DA6104E0054AD2698243044BDD
S315000020C0DA610022024B1A6370470000837A00002F
S315000020D08000004008B50021009103E000BF009990
S315000020E0491C009100998142F8D308BD10B50446F9
S315000020F001210248FEF769FF10BD000000200140E3
S3150000210010B506480068401C0449086002F04AFB06
S31500002110012801D002F01EF810BD0000B400002016
S3150000212000B5FEF79BFA00BD002932D0324A904234
S3150000213008D1314AC032126B10231A432E4BC033DA
S315000021401A6358E02C4A2032904208D12A4AC032FB
S31500002150126B20231A43284BC0331A634BE0264ADE
S315000021604032904208D1244AC032126B40231A43AF
S31500002170214BC0331A633EE01F4A603290423AD187
S315000021801D4AC032126B80231A431B4BC0331A639D
S3150000219031E0194A904208D1174AC032126B102317
S315000021A09A43154BC0331A6325E0134A20329042F6
S315000021B008D1114AC032126B20239A430E4BC0330A
S315000021C01A6318E00C4A4032904208D10A4AC032DB
S315000021D0126B40239A43084BC0331A630BE0064A3E
S315000021E06032904207D1044AC032126B80239A4370
S315000021F0014BC0331A63704700180140F0B585B033
S3150000220006460C4601210420FFF74CFF2168890091
S3150000221060680843A168C9000843216909010843A9
S31500002220E168890108436169C9010843E16A090255
S3150000223008433060A0697060E069F060206A306130
S315000022404848006B03904748476BA08C0007000F77
S315000022500190208D0007000F00904248C03886424A
S315000022601AD110210398084303900720029039469B
S31500002270029881430F46206B07433A484038056A67
S31500002280FF20000205400198054300980001054320
S315000022903448403805625EE03248A03886421AD19A
S315000022A0202103980843039038200290394602986B
S315000022B081430F46206BC00007432A484038056A11
S315000022C0EDB2019800020543009800030543254836
S315000022D0403805623FE02348803886421CD14021C1
S315000022E0039808430390FF20C130029039460298B4
S315000022F081430F46206B800107431A484038456AE0
S31500002300FF2000020540019805430098000105439F
S315000023101448403845621EE01248603886421AD199
S315000023208021039808430390072040020290394613
S31500002330029881430F46206B400207430948403804
S31500002340456AEDB201980002054300980003054373
S3150000235004484038456203490398086308464763C2
S3150000236005B0F0BDC01801400021416001608160E8
S315000023700161C16041617D21C90081614910C1616E
S315000023800162002141628162C162016370470000FF
S3150000239008B51748C06908210840002802D008205F
S315000023A01349C8611248C06910210840002802D0AC
S315000023B010200F49C8610E48C06902210840002854
S315000023C00AD002200A49C8610846C068C1B2009115
S315000023D068460078FEF7C4FB0548C069C007C00F11
S315000023E0002804D001200249C8610249087008BDCE
S315000023F0002801401800002010B50121094800F00E
S3150000240015F8002803D00121064800F00DF805480C
S31500002410C06902210840002802D002200149C86193
S3150000242010BD0000002C0140C16170470246D06912
S31500002430084093691840002801D001207047002009
S31500002440FCE70000F0B587B005460C4639488542E2
S3150000245004D101211020FFF725FE06E0364885420B
S3150000246003D101212020FFF71DFE00272068024628
S315000024700023019031481946FDF794FE039102901E
S31500002480781C0246002301900298FDF78BFE064653
S3150000249012E07F1C20680246002301902748194657
S315000024A0FDF780FE03910290781C024600230190FE
S315000024B00298FDF777FE064621488642E9D821486C
S315000024C08761761EF0B2A860FF2000023040000A45
S315000024D06860E079012803D104900020059009E0A6
S315000024E0E079022803D101200490059002E0002043
S315000024F0049005902079617949000843A179890003
S3150000250008430599C9000843049909010843217A3B
S3150000251049010843617A890108432860607B4000CD
S31500002520A17B0843286260892861207BA86107B0E7
S31500002530F0BD000000280140002C014000D8B8057D
S31500002540FFFF000080000040C16070474B21C901B9
S3150000255001600021017141718171C1710172417285
S3150000256041810173417381737047704770477047AB
S315000025707047000070B5144CA8212046FDF78EFE6A
S3150000258003202061606111A0A0611349E16101216E
S31500002590890221620021A1626162E1620BA02066CC
S315000025A00E4961661021A16600212167E166616717
S315000025B0002505E00F20401B0949085C60556D1C8D
S315000025C0102DF7D370BD0000380F00205465726DD2
S315000025D0696E616C00000000E00F0020E01300202F
S315000025E0D84D000030B50B460021002B07D000E087
S315000025F0491C5D5C002DFBD1914200D91146FF2993
S3150000260002D20170401C08E0FF250570401C0170D5
S31500002610401C0D042D0E0570401C002404E01D789E
S3150000262005705B1C401C641C8C42F8D330BD000056
S3150000263038B52849087E01226946FEF703FF04469D
S31500002640002C46D06846007805281ED008DC0128F4
S315000026500FD0022810D0032811D004282DD111E064
S31500002660062815D0072816D07F2825D0802824D103
S3150000267014E0FFF769FB2BE0FFF7E2FB28E0FFF72A
S31500002680D3F825E0FFF740FB22E0FEF79BFF1FE0B3
S31500002690FFF76EFA1CE0FFF757FA19E00D49087EBE
S315000026A001226946FEF7CEFE0446002C03D068469A
S315000026B00078FFF7F7F90BE00AE068460078802813
S315000026C005DB0449087E01226946FEF7BBFE00BF12
S315000026D000BF38BDF01700200146C81D7047000036
S315000026E0FEB505460F46144673480078012800D10A
S315000026F010E071480078002800D1C0E06E480078EC
S31500002700022806D100F0DCF86B480078012800D0DA
S31500002710B5E000BF202C07D26748C0690121A1405F
S315000027200840002800D0AAE0182C03D2681E0546EF
S3150000273004707BE07E1B7F2E0BD97004010E681E91
S315000027400546017080203043C1B2681E05460170FF
S3150000275002E0681E054606707F2C03D2681E0546F9
S31500002760047063E00120800384420BD26004010EF2
S31500002770681E0546017080202043C1B2681E0546CA
S31500002780017053E001204005844212D2A002010EDE
S31500002790681E05460170E00980210843C1B2681E23
S315000027A00546017080202043C1B2681E05460170AF
S315000027B03CE001200007844219D2E000010E681EA9
S315000027C005460170A00B80210843C1B2681E05466C
S315000027D00170E00980210843C1B2681E05460170F8
S315000027E080202043C1B2681E054601701EE0210FFD
S315000027F0681E05460170600D80210843C1B2681E3F
S3150000280005460170A00B80210843C1B2681E05462B
S315000028100170E00980210843C1B2681E05460170B7
S3150000282080202043C1B2681E05460170FFF768FB91
S3150000283002902148C1680298421A019238460199CD
S3150000284004E080220A430270401CC9097F29F8D897
S315000028500170401C07467A1B174948782946FEF73F
S315000028604DFE00900098002803D013490298C860D6
S3150000287004E011480078401C0F49087000BF0E485C
S31500002880007E182148430D494018C2680A48007E58
S3150000289018214843094940180069101A0BD0064808
S315000028A08078002807D1012003498870FFF7C0FE11
S315000028B0002001498870FEBDF0170020980F002007
S315000028C0FEB50120694608704E1C30461B4A516908
S315000028D004E080220A430270401CC9097F29F8D807
S315000028E00170401C0646FFF70BFB04461348C168FF
S315000028F0671A3046394604E080220A430270401CBB
S31500002900C9097F29F8D80170401C06466946721A23
S315000029100A4948786946FEF7F1FD0546002D06D0BE
S315000029200648C4600078401E0449087004E0034865
S315000029304069401C014948612846FEBDF017002049
S315000029400FB410B503A9044B044A029800F0EAF844
S3150000295010BC08BC04B01847992F000014000020D2
S3150000296030B47446641E2578641CAB4204D3635DA0
S315000029705B00E31830BC18471D46F8E7002809DB62
S3150000298000BF00BFC206D20E01219140024A11606B
S3150000299000BF00BF7047000000E100E010B500284E
S315000029A019DB1A4A03231B02D21883089B00D2584C
S315000029B08307DC0EFF23A3409A430B071B0E8407F5
S315000029C0E40EA3401A43114B032424021B19840866
S315000029D0A4001A5118E00E4A03071B0F083B9B0878
S315000029E09B00D2588307DC0EFF23A3409A430B07B4
S315000029F01B0E8407E40EA3401A43054B0407240F5D
S31500002A00083CA408A4001A5110BD000000E100E033
S31500002A101CED00E002E008C8121F08C1002AFAD126
S31500002A2070477047002001E001C1121F002AFBD148
S31500002A307047F0B587B001F0CDFE002501950090F6
S31500002A4001210020019D009C059104902046294605
S31500002A50049B059AFDF7CCFB019100907D21C900EE
S31500002A600020019F009E0391029030463946029B4A
S31500002A70039AFDF7BDFB019100900199009807B0FC
S31500002A80F0BD000010B503A0FFF79EF80EA0FFF7FB
S31500002A909BF810BD4E3D4672656552544F53204417
S31500002AA0656D6F204170706C69636174696F6E2C1F
S31500002AB0443D436F727465782D4D302C4F3D467200
S31500002AC0656552544F530000492331353D537973A0
S31500002AD05469636B00000000F8B5002418E0142068
S31500002AE060430E4940180069142565430E46AD192A
S31500002AF00090EB6814256543AD19AA681425654353
S31500002B00AD196968142565437059FFF7B5FA641C59
S31500002B10034800688442E2D3F8BD0000980E002006
S31500002B20B0000020FFB591B00F460546002606E02E
S31500002B3025280AD0149A139990476D1C761C28787C
S31500002B400028F5D1304615B0F0BD002400940121CF
S31500002B50F34A029400E004436D1C2B780846203BA0
S31500002B6098401042F7D128782A280ED002222878D9
S31500002B7001463039092915D800990A2359433039B5
S31500002B80401814436D1C0090F1E701CF0090002817
S31500002B9005DA0120400304430098404200900220D9
S31500002BA004436D1C28782E2815D104200443687828
S31500002BB06D1C2A280AD101CF6D1C02900BE00299E8
S31500002BC00A225143303940186D1C0290287801467C
S31500002BD030390929F3D928786C2810D006DC4C281E
S31500002BE01AD068280ED06A2817D104E0742813D0AA
S31500002BF07A2812D110E00120400504430CE001219F
S31500002C00090501E0032109050C436978814203D1D6
S31500002C100120000524186D1C6D1C28786E281ED016
S31500002C200CDC632831D004DC00288BD0582811D165
S31500002C30B2E064287BD069280CD178E073282DD0C7
S31500002C4004DC6F2870D0702804D1A7E075286CD0FA
S31500002C5078286BD0149A13999047761C62E060022C
S31500002C60400F022807D003280AD0042838680AD063
S31500002C7006603F1D56E03868F11706604160F8E7C8
S31500002C8038680680F5E70670F3E738786946087411
S31500002C900020487404A80390012003E038680390DC
S31500002CA00020C0433F1D61070FD5002101E00199B7
S31500002CB0491C029A0191914213DA8142F7DB019A8B
S31500002CC00399895C0029F2D10BE0002101E001990A
S31500002CD0491C01918142FADB019A0399895C00291A
S31500002CE0F5D101990098139A401A00902146149B39
S31500002CF000F03CF901998019461807E003980399FA
S31500002D000078491C0391149A139990470198401E24
S31500002D100190401CF2D12146149B139A009800F0B2
S31500002D2015F986196D1C0AE741E033E034E00A2004
S31500002D300021049005916002410F022905D001CFC0
S31500002D40C2179446032905D007E0FF1DFF08FF00C0
S31500002D5003CF06E000B2C2179446042902D140B25E
S31500002D60C1178C4600226146944506DA0A460021C0
S31500002D70404291418C462D2102E0210504D52B21AC
S31500002D806A461176012103E0E10701D02021F7E729
S31500002D90019155E00A200BE0102009E01020049074
S31500002DA000210420044308200591029003E0082036
S31500002DB00021059104906002410F022905D001CF40
S31500002DC000229446032906D006E0FF1DFF08FF00F7
S31500002DD003CF8C4603E080B2042900D1C0B20021A3
S31500002DE0019121072CD529780391702906D0049AE0
S31500002DF01021059B4A401A4305D00EE040216A4641
S31500002E001176012108E06146014306D030216A4669
S31500002E1011760399517602210191049A0821059BA6
S31500002E204A401A430CD16146014301D1610707D5D7
S31500002E3030216A461176012101910299491E0291BB
S31500002E402978582904D037A103910FA90F910DE0D5
S31500002E5039A1F9E76146059B049AFDF737FA039B0A
S31500002E608C469B5C0F9A521E0F921370614601436B
S31500002E70F0D10F9807A9081A20300390600704D5EF
S31500002E80012000048443029801E001200290039986
S31500002E90884201DD401A00E00020411802900198A6
S31500002EA009180098401A0090E00306D42146149BA6
S31500002EB0139A009800F05AF886190020049008E04A
S31500002EC006A9085C149A139990470498401C761C2E
S31500002ED0049001998842F3DBE0030CD52146149B4C
S31500002EE0139A009800F042F8861904E0149A3020EC
S31500002EF013999047761C0299481E02900029F5DC2A
S31500002F0008E00F980F990078491C0F91149A1399AD
S31500002F109047761C0399481E03900029F1DCFAE6D7
S31500002F200928010030313233343536373839616299
S31500002F30636465660000000030313233343536375D
S31500002F40383941424344454600000000F8B504467E
S31500002F5000251E461746880404D405E0394620207D
S31500002F60B0476D1C641EF9D52846F8BDFFB504466A
S31500002F70002581B01E46C80301D5302700E0202772
S31500002F80880404D505E038460399B0476D1C641ED5
S31500002F90F9D5284605B0F0BD70B504460D46214664
S31500002FA00548FFF7D1FA00BF03484069C007C00FC4
S31500002FB00028F9D0204670BD002C0140024610784A
S31500002FC0072805D10B78054883710723037400E0B1
S31500002FD000BF00BF0148007C704700001C010020B4
S31500002FE070B504460D462078082802D009280ED16F
S31500002FF009E028780849C87108210748017407A024
S31500003000FFF79EFC04E009210348017400E000BFBD
S3150000301000BF0148007C70BD1C01002046534D20B6
S31500003020446F6E65210D0A0002461078042802D00E
S3150000303009280BD106E01020074BD8700423064858
S31500003040037404E009230448037400E000BF00BFD2
S315000030500148007C704700001C01002002461078E1
S31500003060002808D001280AD1AA20074B187001238E
S315000030700548037404E000230348037400E000BF1E
S3150000308000BF0148007C70471C01002002461078F2
S31500003090012804D0022809D0092812D10DE0AA205F
S315000030A00A4B18700123094803740BE01220074BE2
S315000030B0587002230548037404E009230348037487
S315000030C000E000BF00BF0148007C70471C010020E3
S315000030D002461078002808D001280AD1AA20074BFA
S315000030E0187001230548037404E0002303480374A1
S315000030F000E000BF00BF0148007C70471C010020B3
S3150000310002461078062806D10878054B5871062322
S315000031100348037400E000BF00BF0148007C70470D
S315000031201C01002002461078002808D001280AD188
S31500003130AA20074B187001230548037404E00023F6
S315000031400348037400E000BF00BF0148007C7047DD
S315000031501C01002002461078032802D009280BD152
S3150000316006E00820074B987003230648037404E022
S3150000317009230448037400E000BF00BF0148007C37
S31500003180704700001C01002002461078052802D076
S3150000319009280BD106E00220074B187105230648C3
S315000031A0037404E009230448037400E000BF00BF71
S315000031B00148007C704700001C010020FEF7EEF974
S315000031C0FDF7B4FEFDF718FF00F002FF09E005A0C9
S315000031D0FFF7B6FB01210E48FDF7F7FE0D48FEF797
S315000031E079FFF4E7765461736B53746172745363B9
S315000031F0686564756C657228293B3A204E6F7420A9
S31500003200656E6F7567682052414D210D0A000000FA
S315000032100020014000A86100F8B505460E46214889
S31500003220076821480068001D00F06AFD681C002838
S315000032301CD1002E1AD01D4948681B4909688860B0
S31500003240194982680968CA6017490968091D8268B0
S31500003250516015490968091D8160144A12490968B7
S315000032604A6111460968491C11601AE07C190E482A
S3150000327000684460BC4207D20B480168091D0C482F
S31500003280006800F067FD0CE007480168091D094861
S31500003290006800F05FFD08480068844201D20648D5
S315000032A00460F8BD500000203C0000205C0E0020A9
S315000032B044000020400000206C00002038B5044681
S315000032C000F064FD36480068401C35490860354802
S315000032D00068002808D133480460084600680128C1
S315000032E00ED100F00DFA0BE02F480068002807D138
S315000032F02C480068C06AE16A884201D829480460FF
S315000033002A480068401C294908600846006860672A
S31500003310002C0DD02046FEF7FDF9216B2068401ADF
S315000033200090214634312046236BE26AFEF752FEB6
S315000033302046FEF74BFA1E49E06A0968884202D920
S315000033401B49E06A08601422E16A5143194A891848
S315000033504868A0608268E260211D826851608160D1
S315000033601422E16A5143134A8A1862611422E16AFF
S315000033705143104A5158491C1423E26A5A430D4BD3
S31500003380995000F011FD08480068002807D005484C
S315000033900068C06AE16A884201D200F06BFD38BD60
S315000033A04C0000203C00002058000020680000204F
S315000033B054000020800D002010B500F0E7FC0D48F9
S315000033C00068002812D10C4800F0B4FC0B4800F04D
S315000033D0B1FC09480A49086008480A490860002201
S315000033E00C21052000F0C8FE0249086000F0DCFC54
S315000033F010BD000084000020700E0020840E002006
S315000034007C0000208000002010B516E000F0BEFC15
S315000034100C48C068C468201D00F072FC0A480068A9
S31500003420401E0949086009480068401E07490860AF
S3150000343000F0BAFC204600F061F804480068002855
S31500003440E4D110BD480E00204C00002048000020AA
S3150000345070B504460D46206C00280ED0216CE0683D
S315000034604118E160A168E068884201D32168E16003
S315000034702846226CE168FCF7F8FE70BDF8B50446F4
S315000034800F46154600200090A66B206C002809D137
S31500003490206800282ED1A06801F07AFA009000205A
S315000034A0A06027E0002D0FD13946226C6068FCF73A
S315000034B0DCFE216C606840186060A1686068884224
S315000034C018D32068606015E03946226CE068FCF786
S315000034D0CCFE216CE068411AE1602168E068884210
S315000034E003D2216CA068411AE160022D02D1002EA0
S315000034F000D0761E701CA0630098F8BD10B5044677
S31500003500206B00F065FC204600F062FC10BD000058
S315000035100146094A12681268002A01D1012200E018
S3150000352000220A600A68002A04D1034A1268D26897
S31500003530106800E0002070477C00002030B50323AF
S315000035409B0215484407640F002C05D0C01DC00817
S31500003550C000114C041B1B1B0246104C22600024A9
S315000035600E4D6C60D0180838C008C0000C4C2060A6
S3150000357000240B4D2D686C60094D2D682C6011469A
S31500003580441A4C60064C24680C60064D4C682C604E
S31500003590054D4C682C6030BD800100201C000020C9
S315000035A0240000202C0000202800002000BFFFF788
S315000035B02BFF034800680128F9D900F05BFCF6E709
S315000035C0800D0020FFB581B006460D4617460A9CC1
S315000035D0002D01D1246000E02760E6632564012107
S315000035E0204600F0FAFD4C21049808552A4631463B
S315000035F07320049BFEF79EF905B0F0BDFFB581B0C0
S315000036000F460A9E0C9C039A9100A522206BFCF79C
S315000036103EFE216B0398401E80000818009000981B
S31500003620C008C000009000984007400F002801D154
S31500003630012000E00020002802D172B600BFFEE79C
S31500003640002F10D0002508E0795D20463430415522
S31500003650785D002800D102E06D1C402DF4D300BF38
S31500003660002173200155072E01D2012000E0002021
S31500003670002802D172B600BFFEE7072E00D3062649
S31500003680E662E667201D00F062FB2046183000F077
S315000036905EFB24610720801BA0616462049A019985
S315000036A0009800F01DFB20600B98002801D00B98B5
S315000036B0046005B0F0BDFFB581B006460D4617465D
S315000036C00B9C002D01D0012000E00020002802D133
S315000036D072B600BFFEE7FFF76FFE2660A56104988D
S315000036E0E0610A982062201D00F031FB002F05D012
S315000036F02820005D042108432821085505B0F0BDA7
S3150000370010B5002406E0142161430E4A881800F023
S3150000371011FB641C072CF6D30B4800F00BFB0B487F
S3150000372000F008FB0A4800F005FB0A4800F002FB1F
S31500003730094800F0FFFA04480849086003480849A8
S31500003740086010BD800D00200C0E0020200E002009
S31500003750340E0020480E00205C0E002040000020A1
S315000037604400002010B50146164800E000680368D2
S315000037708B42FBD3024643689B188B4204D14368B5
S315000037804C681B19436001460A464B689B1804683F
S31500003790A34211D10C4C03682468A34208D04B689D
S315000037A0046864681B194B6003681B680B6005E0BE
S315000037B0054B1B680B6001E003680B60884200D074
S315000037C0016010BD1C00002024000020F8B504464E
S315000037D00D4616461F460020009065602461B542DE
S315000037E00CD8F01BA169884202D30120009011E099
S315000037F0211D0948006800F0ADFA0BE0BE4204D274
S31500003800BD4202D30120009004E0211D0348006858
S3150000381000F0A0FA0098F8BD800000207C0000208F
S3150000382070B5054600F0B2FAA86B002801D1012454
S3150000383000E0002400F0B8FA204670BD70B50546D9
S3150000384000F0A4FAA86BE96B884201D1012400E0DC
S31500003850002400F0A9FA204670BD000070B50546A8
S315000038600E460E480068C068C468201D00F048FA7D
S315000038702820005D04210840002805D0324629464C
S31500003880204600F0D1F805E02820005DFE21084022
S31500003890282108552046216A884770BD7C000020F3
S315000038A07FB57EE0019800287BDB039C60690028D9
S315000038B001D1012000E00020002802D1201D00F0E7
S315000038C01FFA684600F0DEF8054601980300FFF788
S315000038D047F80A6606083139550709323A6600BFC5
S315000038E000BF00BF2820005D01210843282108559C
S315000038F00298A269811803462A462046FFF766FF0A
S31500003900002816D02820005D04210840002807D092
S315000039100298A26981182A46204600F085F805E03B
S315000039202820005DFE210840282108552046216AEE
S31500003930884735E000BF2820005DFE210840282189
S3150000394008552DE000BF2820005D012108432821ED
S3150000395008550298A061A069002801D0012000E066
S315000039600020002802D172B600BFFEE7A069411907
S315000039702B462A462046FFF729FF11E02820005D46
S3150000398002210840002803D1204600F021FA05E074
S315000039902820005DFE2108402821085500E000BFD0
S315000039A000BF002201A90448006800F0C1FD0028FC
S315000039B000D077E77FBD000084000020F8B50546FB
S315000039C00C4600F053FB684600F05CF8064600988B
S315000039D0002822D1002C08D1B54206D801F0C6F83D
S315000039E031462846FFF73AFF19E0002C08D00C486C
S315000039F000680068002801D1012000E0002004468C
S31500003A00A91B22460748006800F040FA01F0AEF80C
S31500003A10002804D100F02EFA01E001F0A7F8F8BD65
S31500003A20800000208400002070B504460D4616462E
S31500003A3004E0A06945192046216A8847A069411912
S31500003A402B4632462046FFF7C1FE0028F1D170BD55
S31500003A500A4800680068002801D1012000E0002023
S31500003A60002804D00020C0430549086005E003484B
S31500003A700068C0680068024908607047400000207E
S31500003A806C00002070B5044600F09EFE054607480F
S31500003A900068854204D200F00BF80120206001E0A6
S31500003AA00020206001480560284670BD8C0000207B
S31500003AB070B508E00D480068C06804680021C94375
S31500003AC02046FFF7CBFE094800680068002801D1B0
S31500003AD0012000E000200028ECD0044805680448D6
S31500003AE00068024908600248056070BD7C0000203D
S31500003AF08000002007480068401C002801D10120F2
S31500003B0000E00020002802D172B600BFFEE772B6C0
S31500003B1000BFFEE73800002008B500BF6846FFF783
S31500003B20F7FC044620460099FFF748FFFFF7B8FE6A
S31500003B30F4E770B5044600F029F94520055713E06F
S31500003B40606A002801D1012000E00020002808D189
S31500003B502046243000F082FF002803D000F0EEF962
S31500003B6000E003E0681E45B2002DE9DC00BF00213D
S31500003B70C9434520015500F017F900F007F9442024
S31500003B80055713E02069002801D1012000E000203C
S31500003B9000280AD12046103000F060FF002801D02E
S31500003BA000F0CCF9681E45B200E001E0002DE9DC2A
S31500003BB000BF0021C9434420015500F0F5F870BD4F
S31500003BC0FEB505460020019000F050FA3F48006817
S31500003BD0002801D1FFF7B2FC002D13D06807400F73
S31500003BE01021081A00900021C9430098081AA8421B
S31500003BF001D2012000E00020002802D100982D18F3
S31500003C0000E00025E817401C00284ED0002D4CD0BF
S31500003C102F480068854248D82E4E3046046801E099
S31500003C20264624686068A84202D220680028F7D198
S31500003C3026480068844238D03068083001902068F1
S31500003C4030606068401B102813D967197807400F49
S31500003C50002801D1012000E00020002802D172B620
S31500003C6000BFFEE76068401B786065603846FFF776
S31500003C7079FD174960680968081A154908600846F9
S31500003C80006815490968884203D21148006812493C
S31500003C9008600121C9076068084360600020206051
S31500003CA00E480068401C0D49086000F05FFF01984F
S31500003CB04007400F002801D1012000E00020002825
S31500003CC002D172B600BFFEE70198FEBD24000020B7
S31500003CD0280000201C0000202C00002030000020BE
S31500003CE0001F01231B060360001F0160001F034B1A
S31500003CF0036014380260203870470000F53A00006F
S31500003D0001460A694B68886898608B6848685860FD
S31500003D105068884201D188685060002008611068A8
S31500003D20401E106010687047014800687047000028
S31500003D304C0000200146083141600021C9438160E2
S31500003D4001460831C1600161002101607047002110
S31500003D500161704710B502460B685C1C002C01D14E
S31500003D60106907E01046083000E04068446824689F
S31500003D709C42FAD944684C604C68A16088604160F6
S31500003D800A611468641C146010BD000072B6054810
S31500003D900068401C03490860BFF34F8FBFF36F8F65
S31500003DA0704700003800002008480068002802D14B
S31500003DB072B600BFFEE705480068401E034908606A
S31500003DC008460068002800D162B670473800002017
S31500003DD070B506463546002E30D0083D2C46606844
S31500003DE0C00F002802D172B600BFFEE72068002887
S31500003DF001D1012000E00020002802D172B600BFE8
S31500003E00FEE76068C00F002818D02068002815D18A
S31500003E10606840004008606000F028F90849606862
S31500003E2009684018064908602046FFF79BFC0548CC
S31500003E300068401C0349086000F098FE70BD000051
S31500003E40280000203400002010B500200749086132
S31500003E5088617D21C90006480068FCF78DF9401E7F
S31500003E60024948610720086110BD000000E000E03B
S31500003E70AC0000200120000703494860BFF34F8FC4
S31500003E80BFF36F8F7047000000ED00E0F8B5054600
S31500003E900E4617462C46FFF779FF44210857401C6B
S31500003EA0002802D100214420015545210857401C15
S31500003EB0002802D1002145200155FFF775FFA06BB0
S31500003EC0002805D13A4631462046243000F052F803
S31500003ED02046FFF72EFEF8BD70B504460025002CDF
S31500003EE018D00F480068002801D1012000E000200A
S31500003EF0002802D172B600BFFEE700F0B7F82146EF
S31500003F002320FDF7B1FC00212046FFF785F900F0DC
S31500003F102DFE0546002D01D1FFF7ACFF70BD000058
S31500003F207800002003490968016003490968416077
S31500003F307047000064000020500000200120014965
S31500003F40086070476000002070B504460D46002CDE
S31500003F5002D172B600BFFEE7054801681831204657
S31500003F60FFF7F8FE01212846FFF756F970BD00005D
S31500003F703C00002070B504460E461546002C02D1C2
S31500003F8072B600BFFEE7606810490968C8610F494C
S31500003F90826809680A620D490968183182685160A9
S31500003FA00A49096818318160084909688C622168E4
S31500003FB0491C2160002D01D00026F6432420FDF780
S31500003FC055FD29463046FFF727F970BD3C00002015
S31500003FD01CB51D4800210B464022009101901BA1F3
S31500003FE01C4800F0ADFB0446012C02D100F088FE0F
S31500003FF00446012C1AD172B60020C0431649086047
S315000040000120164908600020154908601548006817
S315000040100D490968884202D1FDF762FB03E01148A9
S315000040200068FDF7A5FB00F079F80AE0601C00289F
S3150000403001D0012000E00020002802D172B600BFA6
S31500004040FEE7094800681CBD7000002049444C4545
S3150000405000000000AD3500006C0000205800002074
S31500004060500000203C000020740000200248006838
S31500004070401C0149086070477800002010B52148AF
S315000040800068002803D001201F49086038E000209E
S315000040901D4908601D48016805E0002902D172B675
S315000040A000BFFEE7491E14204843194A105800284D
S315000040B001D1012000E000200028EED114224A435D
S315000040C0134BD01842685268426002460832436871
S315000040D0934202D14268526842604268D2680D4BF0
S315000040E01A600A480160184600680B490968884248
S315000040F002D1FDF7F5FA03E006480068FDF738FB44
S3150000410010BD000078000020600000205400002050
S31500004110800D00203C0000207000002010B50B48E8
S31500004120006AFF2109040843084908620846006A34
S31500004130FF210906084305490862FFF785FE0020AE
S3150000414003490860FBF7C8FF002010BD00ED00E042
S315000041503800002010B5FBF7D3FF044600F040FB03
S31500004160002803D001200007024948602046FBF7DB
S31500004170CBFF10BD00ED00E0F7B582B005460E4658
S315000041800024002D21D02946601EFBF7F5FFB04222
S315000041901BD3284670435021C943884215D82F4661
S315000041A0774338465030FFF70BFD0446002C11D0FC
S315000041B00194019C204650300190009431462846D7
S315000041C0049B019AFFF7FEF904E0002C02D172B6B7
S315000041D000BFFEE7204605B0F0BDF8B505460E4621
S315000041E001272C46002C02D172B600BFFEE7002C38
S315000041F041D0E06B00283ED00020C043E16BFBF7C6
S31500004200BBFF216C884236D3FFF7C0FD216CE06B03
S31500004210484321684018A0600020A06320686060C1
S31500004220E06B401E216C484321684118E160002183
S31500004230C9434420015545200155002E10D120695F
S31500004240002801D1012000E00020002810D12046DE
S31500004250103000F003FC00280AD0FFF70BFE07E041
S3150000426020461030FFF766FD20462430FFF762FD3A
S31500004270FFF79AFD00E00027002F01D0012000E0A3
S315000042800020002802D172B600BFFEE73846F8BD0E
S31500004290FFB587B006460F461D46002006903446F9
S315000042A0002C02D172B600BFFEE7002F02D1206CAF
S315000042B0002801D1012000E00020002802D172B6BA
S315000042C000BFFEE7022D02D1E06B012801D10120DB
S315000042D000E00020002802D172B600BFFEE700F021
S315000042E061FA002802D10998002801D1012000E0D6
S315000042F00020002802D172B600BFFEE700BFFFF71C
S3150000430045FDA06BE16B884201D3022D2BD12046DF
S31500004310FDF712FD009502903A4601465A20099B88
S31500004320FDF750FB2A4639462046FFF7A7F80590C9
S31500004330606A002801D1012000E00020002808D191
S315000043402046243000F08AFB002807D0FFF792FDB4
S3150000435004E00598002801D0FFF78CFDFFF724FD47
S3150000436001200BB0F0BD099800280ED1FFF71CFD07
S315000043702046FDF7E1FC009502903A4601465A2098
S31500004380099BFDF71FFB0020EBE70698002804D1E8
S3150000439003A8FFF7C7FD01200690FFF705FDFFF70D
S315000043A065FEFFF7F3FC44210857401C002802D1A4
S315000043B000214420015545210857401C002802D100
S315000043C0002145200155FFF7EFFC09A903A800F0DD
S315000043D07BF9002819D12046FFF730FA00280ED0C5
S315000043E0204610300999FFF7AFFD2046FFF7A1FBE5
S315000043F000F0BCFB002882D1FFF73CFD7FE720469A
S31500004400FFF797FB00F0B2FB79E72046FFF791FB39
S3150000441000F0ACFB2046FDF78FFC009502903A4673
S3150000442001465A20099BFDF7CDFA002099E7FFB512
S3150000443085B007461D463C46002C02D172B600BF29
S31500004440FEE70698002802D1206C002801D1012041
S3150000445000E00020002802D172B600BFFEE7022D60
S3150000446002D1E06B012801D1012000E000200028E4
S3150000447002D172B600BFFEE7FBF742FE0390A06BC7
S31500004480E16B884201D3022D41D145200657A06B2E
S3150000449002902046FDF750FC019001466020079AE5
S315000044A0FDF70EFA2A4620460699FEF7E7FF701C2E
S315000044B0002814D1606A002801D1012000E0002004
S315000044C000280BD12046243000F0C8FA002805D079
S315000044D00798002802D001210798016014E0FFF731
S315000044E023FC0190019886420DD27F2E01D0012037
S315000044F000E00020002802D172B600BFFEE7701C63
S3150000450041B24520015500BF012004900AE0204633
S31500004510FDF712FC064631466020079AFDF7D0F9F2
S31500004520002004900398FBF7EFFD049809B0F0BD56
S31500004530F7B586B005460E46002005902C46002CA1
S3150000454002D172B600BFFEE7002E02D1206C002811
S3150000455001D1012000E00020002802D172B600BF80
S31500004560FEE700F01FF9002802D10898002801D1C3
S31500004570012000E00020002802D172B600BFFEE74D
S3150000458000BFFFF703FCA76B002F2AD03146204659
S31500004590FEF75EFF0020FDF7CFFB02902046FDF7F9
S315000045A0CBFB0190012000905C20089B029A0199A8
S315000045B0FDF708FA781EA0632069002801D10120C2
S315000045C000E00020002807D12046103000F046FA0F
S315000045D0002801D0FFF74EFCFFF7E6FB012009B0EB
S315000045E0F0BD0898002813D1FFF7DEFB0020FDF789
S315000045F0A3FB02902046FDF79FFB0190012000904F
S315000046005C20089B029A0199FDF7DCF90020E6E799
S315000046100598002804D103A8FFF784FC0120059023
S31500004620FFF7C2FBFFF722FDFFF7B0FB4421085757
S31500004630401C002802D1002144200155452108577D
S31500004640401C002802D1002145200155FFF7ACFB94
S3150000465008A903A800F038F8002819D12046FFF76A
S31500004660DFF800280ED0204624300899FFF76CFCAE
S315000046702046FFF75EFA00F079FA002881D1FFF7AD
S31500004680F9FB7EE72046FFF754FA00F06FFA78E769
S315000046902046FFF74EFA00F069FA2046FFF7C0F809
S315000046A00028EED00020FDF747FB07462046FDF721
S315000046B043FB0290012000903A465C20089B029939
S315000046C0FDF780F900208AE770B505460C46002DF7
S315000046D002D172B600BFFEE7002C02D172B600BF4F
S315000046E0FEE7FFF753FB144802686868131A206850
S315000046F0401C002801D1002619E0104928680968E5
S31500004700884206D06868904203D8012600202060BF
S315000047100DE02068984207D92068C01A2060284614
S31500004720FFF700FC002602E0002020600126FFF7CC
S315000047303BFB304670BD00005000002064000020A6
S31500004740FFB585B01746B800FFF73AFA0646002EC1
S315000047500FD08C20FFF734FA0446002C05D08C21AC
S315000047602046FBF79BFD266304E03046FFF730FB4F
S3150000477000E00024002C10D000220F990E986B4602
S3150000478013C303923A46089B06990598FEF736FF2F
S315000047902046FEF793FD012501E00025ED4328465E
S315000047A009B0F0BD06490968002901D1012006E0DB
S315000047B004490968002901D1022000E00020704761
S315000047C05800002078000020014908687047000062
S315000047D0500000200021014A106870475000002058
S315000047E0F8B5002000905F48006800287ED15E483A
S315000047F00068451C5C480560002D1CD15B480068BC
S315000048000068002801D1012000E00020002802D124
S3150000481072B600BFFEE75548076855480068534919
S3150000482008605348076053480068401C51490860B7
S31500004830FFF70EF900BF50480068854278D300BFE5
S315000048404A4800680068002801D1012000E00020E5
S31500004850002804D00020C0434749086067E0434869
S315000048600068C068C4686668B54202D242480660FD
S315000048705DE06069E268A1688A60A268E1684A60F2
S31500004880211D42688A4201D1E168416000226261CD
S315000048900168491E0160A06A002813D0A06A226A36
S315000048A0E1698A60E269216A4A60214618314268F4
S315000048B08A4201D1216A41600022A2620168491E32
S315000048C0016000BF2046FCF781FF2C49E06A0968B9
S315000048D0884202D92949E06A08601422E16A5143F4
S315000048E0274A89184868A060826800E032E0E260E2
S315000048F0211D8268516081601422E16A5143204A79
S315000049008A1862611422E16A51431D4A5158491CB2
S315000049101423E26A5A431A4B99501A49E06A096805
S31500004920C96A88428CD90120009089E700E000BF5F
S3150000493014480068C06A14214843114908580128E0
S3150000494001D90120009010480068002801D00120FC
S31500004950009004E00D480068401C0C49086000986F
S31500004960F8BD000078000020500000204000002024
S3150000497044000020640000206C0000205400002049
S31500004980800D00203C000020600000205C0000201C
S3150000499070B505462C460026002D56D02C480068DA
S315000049A0844201D1012000E00020002802D172B625
S315000049B000BFFEE780200059002802D172B600BF72
S315000049C0FEE780200059401E80210851E16FE06A11
S315000049D088423AD080200059002836D1201DFFF7A2
S315000049E08FF929464A20FCF73FFFE06FE062072176
S315000049F0E06A081AA0612046FCF7E8FE1549E06A5D
S31500004A000968884202D91349E06A08601422E16AFB
S31500004A105143114A89184868A0608268E260211DE6
S31500004A208268516081601422E16A51430A4A8A18F9
S31500004A3062611422E16A5143074A5158491C142302
S31500004A40E26A5A43044B99500126304670BD000075
S31500004A503C00002054000020800D002070B5064662
S31500004A60F068C468002C02D172B600BFFEE7A06AE7
S31500004A70226AE1698A60E269216A4A602146183140
S31500004A8042688A4201D1216A41600022A26201681D
S31500004A90491E01602F48006800283BD16069E26822
S31500004AA0A1688A60A268E1684A60211D42688A425C
S31500004AB001D1E1684160002262610168491E01601E
S31500004AC02046FCF783FE2449E06A0968884202D939
S31500004AD02149E06A08601422E16A51431F4A891895
S31500004AE04868A0608268E260211D8268516081602A
S31500004AF01422E16A5143194A8A1862611422E16A52
S31500004B005143164A5158491C1423E26A5A43134B1F
S31500004B10995010E012494868E06182682262214695
S31500004B2018318268516081600D4AA2621146096897
S31500004B30491C116000BF0B49E06A0968C96A8842CE
S31500004B4004D9012501200849086000E0002528460F
S31500004B5070BD00007800002054000020800D002069
S31500004B60340E00203C0000206000002070B50024B8
S31500004B7000254E480068002802D172B600BFFEE745
S31500004B80FFF704F949480068401E4849086008468E
S31500004B90006800287ED14648006800287AD059E08F
S31500004BA04448C068C468A06A226AE1698A60E2690A
S31500004BB0216A4A602146183142688A4201D1216A37
S31500004BC041600022A2620168491E01606069E268D4
S31500004BD0A1688A60A268E1684A60211D42688A422B
S31500004BE001D1E1684160002262610168491E0160ED
S31500004BF02046FCF7EBFD3049E06A0968884202D995
S31500004C002D49E06A08601422E16A51432B4A89184B
S31500004C104868A0608268E260211D826851608160F8
S31500004C201422E16A5143254A8A1862611422E16A14
S31500004C305143224A5158491C1423E26A5A431F4BD6
S31500004C4099501F49E06A0968C96A884202D301205F
S31500004C501C49086017480068002801D1012000E0BF
S31500004C60002000289CD0002C01D0FEF7F1FE16484B
S31500004C700668002E0DD000BFFFF7B2FD002802D057
S31500004C80012010490860761E002EF5D100200E493D
S31500004C90086000E006E00B480068002802D0012505
S31500004CA0FFF7E8F8FFF780F8284670BD7800002087
S31500004CB04C000020340E002054000020800D0020FF
S31500004CC03C000020600000205C000020FFB583B09F
S31500004CD005460E460C9F2C20FEF772FF0446002C5C
S31500004CE00AD0002128200155009701943146284614
S31500004CF0069B059AFEF7DFFC204607B0F0BD0000D4
S31500004D001CB50024FEF758FB0A48006800280AD0A4
S31500004D10094800210B4640220091019007A109484D
S31500004D20FFF70EFD0446002C02D172B600BFFEE767
S31500004D3020461CBD8400002088000020546D72208F
S31500004D4053766300193B0000F0B585B004460D4666
S31500004D5016461F4600200390002C02D172B600BFF3
S31500004D60FEE715480068002822D0009501960294B7
S31500004D70062D15DAFFF716FD022808D1002369462D
S31500004D800D480A9A0068FFF783FA039010E00023A3
S31500004D901A46694608480068FFF77AFA039007E062
S31500004DA000233A46694604480068FFF740FB039033
S31500004DB0039805B0F0BD00008400002001460A46B5
S31500004DC0002902D172B600BFFEE790697047000065
S31500004DD0332A0000D92A00000000000000005454C5
S31500004DE0522052454747455300000000000000008E
S31500004DF000000030313233343536373839414243DA
S31500004E004445460053595354454D564945573A2053
S31500004E10436F756C64206E6F74207265636F726485
S31500004E20207461736B20696E666F726D6174696F51
S31500004E306E2E204D6178696D756D206E756D62659B
S31500004E4072206F66207461736B732072656163688C
S31500004E5065642E00744E000000000020CC000000A7
S31500004E60142A0000404F0000CC000020341A000035
S31500004E70242A0000000000000000000000000000DE
S31500004E80000000000000000000000000000000001C
S31500004E90000000000000000000000000000000000C
S31500004EA0000000000000000000000000AAAAAAAA54
S31500004EB000000000000000000000000000000000EC
S31500004EC000000000000000000000000000000000DC
S31500004ED000000000000000000000000000000000CC
S31500004EE000000000000000000600000000000000B6
S31500004EF000000000000000000000000000000000AC
S31500004F00000000000000000000000000000000009B
S31500004F1000000000000000008113334415263748C6
S31500004F2000D8B805000000000000000000000000E6
S31500004F30000000000000000000000000000000006B
S705000000C139
